{
  "_format": "hh-sol-artifact-1",
  "contractName": "BYBY",
  "sourceName": "contracts/BYBY.sol",
  "abi": [
    {
      "inputs": [],
      "stateMutability": "nonpayable",
      "type": "constructor"
    },
    {
      "inputs": [],
      "name": "ECDSAInvalidSignature",
      "type": "error"
    },
    {
      "inputs": [
        {
          "internalType": "uint256",
          "name": "length",
          "type": "uint256"
        }
      ],
      "name": "ECDSAInvalidSignatureLength",
      "type": "error"
    },
    {
      "inputs": [
        {
          "internalType": "bytes32",
          "name": "s",
          "type": "bytes32"
        }
      ],
      "name": "ECDSAInvalidSignatureS",
      "type": "error"
    },
    {
      "inputs": [
        {
          "internalType": "address",
          "name": "spender",
          "type": "address"
        },
        {
          "internalType": "uint256",
          "name": "allowance",
          "type": "uint256"
        },
        {
          "internalType": "uint256",
          "name": "needed",
          "type": "uint256"
        }
      ],
      "name": "ERC20InsufficientAllowance",
      "type": "error"
    },
    {
      "inputs": [
        {
          "internalType": "address",
          "name": "sender",
          "type": "address"
        },
        {
          "internalType": "uint256",
          "name": "balance",
          "type": "uint256"
        },
        {
          "internalType": "uint256",
          "name": "needed",
          "type": "uint256"
        }
      ],
      "name": "ERC20InsufficientBalance",
      "type": "error"
    },
    {
      "inputs": [
        {
          "internalType": "address",
          "name": "approver",
          "type": "address"
        }
      ],
      "name": "ERC20InvalidApprover",
      "type": "error"
    },
    {
      "inputs": [
        {
          "internalType": "address",
          "name": "receiver",
          "type": "address"
        }
      ],
      "name": "ERC20InvalidReceiver",
      "type": "error"
    },
    {
      "inputs": [
        {
          "internalType": "address",
          "name": "sender",
          "type": "address"
        }
      ],
      "name": "ERC20InvalidSender",
      "type": "error"
    },
    {
      "inputs": [
        {
          "internalType": "address",
          "name": "spender",
          "type": "address"
        }
      ],
      "name": "ERC20InvalidSpender",
      "type": "error"
    },
    {
      "inputs": [
        {
          "internalType": "uint256",
          "name": "deadline",
          "type": "uint256"
        }
      ],
      "name": "ERC2612ExpiredSignature",
      "type": "error"
    },
    {
      "inputs": [
        {
          "internalType": "address",
          "name": "signer",
          "type": "address"
        },
        {
          "internalType": "address",
          "name": "owner",
          "type": "address"
        }
      ],
      "name": "ERC2612InvalidSigner",
      "type": "error"
    },
    {
      "inputs": [],
      "name": "EnforcedPause",
      "type": "error"
    },
    {
      "inputs": [],
      "name": "ExpectedPause",
      "type": "error"
    },
    {
      "inputs": [
        {
          "internalType": "address",
          "name": "account",
          "type": "address"
        },
        {
          "internalType": "uint256",
          "name": "currentNonce",
          "type": "uint256"
        }
      ],
      "name": "InvalidAccountNonce",
      "type": "error"
    },
    {
      "inputs": [],
      "name": "InvalidShortString",
      "type": "error"
    },
    {
      "inputs": [
        {
          "internalType": "address",
          "name": "owner",
          "type": "address"
        }
      ],
      "name": "OwnableInvalidOwner",
      "type": "error"
    },
    {
      "inputs": [
        {
          "internalType": "address",
          "name": "account",
          "type": "address"
        }
      ],
      "name": "OwnableUnauthorizedAccount",
      "type": "error"
    },
    {
      "inputs": [
        {
          "internalType": "string",
          "name": "str",
          "type": "string"
        }
      ],
      "name": "StringTooLong",
      "type": "error"
    },
    {
      "anonymous": false,
      "inputs": [
        {
          "indexed": true,
          "internalType": "address",
          "name": "owner",
          "type": "address"
        },
        {
          "indexed": true,
          "internalType": "address",
          "name": "spender",
          "type": "address"
        },
        {
          "indexed": false,
          "internalType": "uint256",
          "name": "value",
          "type": "uint256"
        }
      ],
      "name": "Approval",
      "type": "event"
    },
    {
      "anonymous": false,
      "inputs": [],
      "name": "EIP712DomainChanged",
      "type": "event"
    },
    {
      "anonymous": false,
      "inputs": [
        {
          "indexed": true,
          "internalType": "address",
          "name": "previousOwner",
          "type": "address"
        },
        {
          "indexed": true,
          "internalType": "address",
          "name": "newOwner",
          "type": "address"
        }
      ],
      "name": "OwnershipTransferred",
      "type": "event"
    },
    {
      "anonymous": false,
      "inputs": [
        {
          "indexed": false,
          "internalType": "address",
          "name": "account",
          "type": "address"
        }
      ],
      "name": "Paused",
      "type": "event"
    },
    {
      "anonymous": false,
      "inputs": [
        {
          "indexed": true,
          "internalType": "address",
          "name": "from",
          "type": "address"
        },
        {
          "indexed": true,
          "internalType": "address",
          "name": "to",
          "type": "address"
        },
        {
          "indexed": false,
          "internalType": "uint256",
          "name": "value",
          "type": "uint256"
        }
      ],
      "name": "Transfer",
      "type": "event"
    },
    {
      "anonymous": false,
      "inputs": [
        {
          "indexed": false,
          "internalType": "address",
          "name": "account",
          "type": "address"
        }
      ],
      "name": "Unpaused",
      "type": "event"
    },
    {
      "inputs": [],
      "name": "DOMAIN_SEPARATOR",
      "outputs": [
        {
          "internalType": "bytes32",
          "name": "",
          "type": "bytes32"
        }
      ],
      "stateMutability": "view",
      "type": "function"
    },
    {
      "inputs": [
        {
          "internalType": "address",
          "name": "controller",
          "type": "address"
        }
      ],
      "name": "addController",
      "outputs": [],
      "stateMutability": "nonpayable",
      "type": "function"
    },
    {
      "inputs": [
        {
          "internalType": "address",
          "name": "owner",
          "type": "address"
        },
        {
          "internalType": "address",
          "name": "spender",
          "type": "address"
        }
      ],
      "name": "allowance",
      "outputs": [
        {
          "internalType": "uint256",
          "name": "",
          "type": "uint256"
        }
      ],
      "stateMutability": "view",
      "type": "function"
    },
    {
      "inputs": [
        {
          "internalType": "address",
          "name": "spender",
          "type": "address"
        },
        {
          "internalType": "uint256",
          "name": "value",
          "type": "uint256"
        }
      ],
      "name": "approve",
      "outputs": [
        {
          "internalType": "bool",
          "name": "",
          "type": "bool"
        }
      ],
      "stateMutability": "nonpayable",
      "type": "function"
    },
    {
      "inputs": [
        {
          "internalType": "address",
          "name": "account",
          "type": "address"
        }
      ],
      "name": "balanceOf",
      "outputs": [
        {
          "internalType": "uint256",
          "name": "",
          "type": "uint256"
        }
      ],
      "stateMutability": "view",
      "type": "function"
    },
    {
      "inputs": [
        {
          "internalType": "uint256",
          "name": "value",
          "type": "uint256"
        }
      ],
      "name": "burn",
      "outputs": [],
      "stateMutability": "nonpayable",
      "type": "function"
    },
    {
      "inputs": [
        {
          "internalType": "address",
          "name": "account",
          "type": "address"
        },
        {
          "internalType": "uint256",
          "name": "value",
          "type": "uint256"
        }
      ],
      "name": "burnFrom",
      "outputs": [],
      "stateMutability": "nonpayable",
      "type": "function"
    },
    {
      "inputs": [],
      "name": "decimals",
      "outputs": [
        {
          "internalType": "uint8",
          "name": "",
          "type": "uint8"
        }
      ],
      "stateMutability": "view",
      "type": "function"
    },
    {
      "inputs": [],
      "name": "eip712Domain",
      "outputs": [
        {
          "internalType": "bytes1",
          "name": "fields",
          "type": "bytes1"
        },
        {
          "internalType": "string",
          "name": "name",
          "type": "string"
        },
        {
          "internalType": "string",
          "name": "version",
          "type": "string"
        },
        {
          "internalType": "uint256",
          "name": "chainId",
          "type": "uint256"
        },
        {
          "internalType": "address",
          "name": "verifyingContract",
          "type": "address"
        },
        {
          "internalType": "bytes32",
          "name": "salt",
          "type": "bytes32"
        },
        {
          "internalType": "uint256[]",
          "name": "extensions",
          "type": "uint256[]"
        }
      ],
      "stateMutability": "view",
      "type": "function"
    },
    {
      "inputs": [
        {
          "internalType": "address",
          "name": "to",
          "type": "address"
        },
        {
          "internalType": "uint256",
          "name": "amount",
          "type": "uint256"
        }
      ],
      "name": "faucet",
      "outputs": [],
      "stateMutability": "nonpayable",
      "type": "function"
    },
    {
      "inputs": [],
      "name": "maxSupply",
      "outputs": [
        {
          "internalType": "uint256",
          "name": "",
          "type": "uint256"
        }
      ],
      "stateMutability": "pure",
      "type": "function"
    },
    {
      "inputs": [
        {
          "internalType": "address",
          "name": "to",
          "type": "address"
        },
        {
          "internalType": "uint256",
          "name": "amount",
          "type": "uint256"
        }
      ],
      "name": "mint",
      "outputs": [],
      "stateMutability": "nonpayable",
      "type": "function"
    },
    {
      "inputs": [],
      "name": "name",
      "outputs": [
        {
          "internalType": "string",
          "name": "",
          "type": "string"
        }
      ],
      "stateMutability": "view",
      "type": "function"
    },
    {
      "inputs": [
        {
          "internalType": "address",
          "name": "owner",
          "type": "address"
        }
      ],
      "name": "nonces",
      "outputs": [
        {
          "internalType": "uint256",
          "name": "",
          "type": "uint256"
        }
      ],
      "stateMutability": "view",
      "type": "function"
    },
    {
      "inputs": [],
      "name": "owner",
      "outputs": [
        {
          "internalType": "address",
          "name": "",
          "type": "address"
        }
      ],
      "stateMutability": "view",
      "type": "function"
    },
    {
      "inputs": [],
      "name": "pause",
      "outputs": [],
      "stateMutability": "nonpayable",
      "type": "function"
    },
    {
      "inputs": [],
      "name": "paused",
      "outputs": [
        {
          "internalType": "bool",
          "name": "",
          "type": "bool"
        }
      ],
      "stateMutability": "view",
      "type": "function"
    },
    {
      "inputs": [
        {
          "internalType": "address",
          "name": "owner",
          "type": "address"
        },
        {
          "internalType": "address",
          "name": "spender",
          "type": "address"
        },
        {
          "internalType": "uint256",
          "name": "value",
          "type": "uint256"
        },
        {
          "internalType": "uint256",
          "name": "deadline",
          "type": "uint256"
        },
        {
          "internalType": "uint8",
          "name": "v",
          "type": "uint8"
        },
        {
          "internalType": "bytes32",
          "name": "r",
          "type": "bytes32"
        },
        {
          "internalType": "bytes32",
          "name": "s",
          "type": "bytes32"
        }
      ],
      "name": "permit",
      "outputs": [],
      "stateMutability": "nonpayable",
      "type": "function"
    },
    {
      "inputs": [
        {
          "internalType": "address",
          "name": "controller",
          "type": "address"
        }
      ],
      "name": "removeController",
      "outputs": [],
      "stateMutability": "nonpayable",
      "type": "function"
    },
    {
      "inputs": [],
      "name": "renounceOwnership",
      "outputs": [],
      "stateMutability": "nonpayable",
      "type": "function"
    },
    {
      "inputs": [],
      "name": "symbol",
      "outputs": [
        {
          "internalType": "string",
          "name": "",
          "type": "string"
        }
      ],
      "stateMutability": "view",
      "type": "function"
    },
    {
      "inputs": [],
      "name": "totalSupply",
      "outputs": [
        {
          "internalType": "uint256",
          "name": "",
          "type": "uint256"
        }
      ],
      "stateMutability": "view",
      "type": "function"
    },
    {
      "inputs": [
        {
          "internalType": "address",
          "name": "to",
          "type": "address"
        },
        {
          "internalType": "uint256",
          "name": "value",
          "type": "uint256"
        }
      ],
      "name": "transfer",
      "outputs": [
        {
          "internalType": "bool",
          "name": "",
          "type": "bool"
        }
      ],
      "stateMutability": "nonpayable",
      "type": "function"
    },
    {
      "inputs": [
        {
          "internalType": "address",
          "name": "from",
          "type": "address"
        },
        {
          "internalType": "address",
          "name": "to",
          "type": "address"
        },
        {
          "internalType": "uint256",
          "name": "value",
          "type": "uint256"
        }
      ],
      "name": "transferFrom",
      "outputs": [
        {
          "internalType": "bool",
          "name": "",
          "type": "bool"
        }
      ],
      "stateMutability": "nonpayable",
      "type": "function"
    },
    {
      "inputs": [
        {
          "internalType": "address",
          "name": "newOwner",
          "type": "address"
        }
      ],
      "name": "transferOwnership",
      "outputs": [],
      "stateMutability": "nonpayable",
      "type": "function"
    },
    {
      "inputs": [],
      "name": "unpause",
      "outputs": [],
      "stateMutability": "nonpayable",
      "type": "function"
    }
  ],
  "bytecode": "0x6101606040523480156200001257600080fd5b506040518060400160405280600481526020017f4259425900000000000000000000000000000000000000000000000000000000815250806040518060400160405280600181526020017f3100000000000000000000000000000000000000000000000000000000000000815250336040518060400160405280600481526020017f42594259000000000000000000000000000000000000000000000000000000008152506040518060400160405280600281526020017f42590000000000000000000000000000000000000000000000000000000000008152508160039081620000fe919062000771565b50806004908162000110919062000771565b5050506000600560006101000a81548160ff021916908315150217905550600073ffffffffffffffffffffffffffffffffffffffff168173ffffffffffffffffffffffffffffffffffffffff1603620001a35760006040517f1e4fbdf70000000000000000000000000000000000000000000000000000000081526004016200019a91906200089d565b60405180910390fd5b620001b4816200030560201b60201c565b50620001cb600683620003cb60201b90919060201c565b6101208181525050620001e9600782620003cb60201b90919060201c565b6101408181525050818051906020012060e08181525050808051906020012061010081815250504660a08181525050620002286200042360201b60201c565b608081815250503073ffffffffffffffffffffffffffffffffffffffff1660c08173ffffffffffffffffffffffffffffffffffffffff168152505050505033600b60006101000a81548173ffffffffffffffffffffffffffffffffffffffff021916908373ffffffffffffffffffffffffffffffffffffffff1602179055506001600960003373ffffffffffffffffffffffffffffffffffffffff1673ffffffffffffffffffffffffffffffffffffffff16815260200190815260200160002060006101000a81548160ff02191690831515021790555062000a98565b6000600560019054906101000a900473ffffffffffffffffffffffffffffffffffffffff16905081600560016101000a81548173ffffffffffffffffffffffffffffffffffffffff021916908373ffffffffffffffffffffffffffffffffffffffff1602179055508173ffffffffffffffffffffffffffffffffffffffff168173ffffffffffffffffffffffffffffffffffffffff167f8be0079c531659141344cd1fd0a4f28419497f9722a3daafe3b4186f6b6457e060405160405180910390a35050565b6000602083511015620003f157620003e9836200048060201b60201c565b90506200041d565b826200040383620004ed60201b60201c565b600001908162000414919062000771565b5060ff60001b90505b92915050565b60007f8b73c3c69bb8fe3d512ecc4cf759cc79239f7b179b0ffacaa9a75d522b39400f60e05161010051463060405160200162000465959493929190620008e6565b60405160208183030381529060405280519060200120905090565b600080829050601f81511115620004d057826040517f305a27a9000000000000000000000000000000000000000000000000000000008152600401620004c79190620009d2565b60405180910390fd5b805181620004de9062000a28565b60001c1760001b915050919050565b6000819050919050565b600081519050919050565b7f4e487b7100000000000000000000000000000000000000000000000000000000600052604160045260246000fd5b7f4e487b7100000000000000000000000000000000000000000000000000000000600052602260045260246000fd5b600060028204905060018216806200057957607f821691505b6020821081036200058f576200058e62000531565b5b50919050565b60008190508160005260206000209050919050565b60006020601f8301049050919050565b600082821b905092915050565b600060088302620005f97fffffffffffffffffffffffffffffffffffffffffffffffffffffffffffffffff82620005ba565b620006058683620005ba565b95508019841693508086168417925050509392505050565b6000819050919050565b6000819050919050565b6000620006526200064c62000646846200061d565b62000627565b6200061d565b9050919050565b6000819050919050565b6200066e8362000631565b620006866200067d8262000659565b848454620005c7565b825550505050565b600090565b6200069d6200068e565b620006aa81848462000663565b505050565b5b81811015620006d257620006c660008262000693565b600181019050620006b0565b5050565b601f8211156200072157620006eb8162000595565b620006f684620005aa565b8101602085101562000706578190505b6200071e6200071585620005aa565b830182620006af565b50505b505050565b600082821c905092915050565b6000620007466000198460080262000726565b1980831691505092915050565b600062000761838362000733565b9150826002028217905092915050565b6200077c82620004f7565b67ffffffffffffffff81111562000798576200079762000502565b5b620007a4825462000560565b620007b1828285620006d6565b600060209050601f831160018114620007e95760008415620007d4578287015190505b620007e0858262000753565b86555062000850565b601f198416620007f98662000595565b60005b828110156200082357848901518255600182019150602085019450602081019050620007fc565b868310156200084357848901516200083f601f89168262000733565b8355505b6001600288020188555050505b505050505050565b600073ffffffffffffffffffffffffffffffffffffffff82169050919050565b6000620008858262000858565b9050919050565b620008978162000878565b82525050565b6000602082019050620008b460008301846200088c565b92915050565b6000819050919050565b620008cf81620008ba565b82525050565b620008e0816200061d565b82525050565b600060a082019050620008fd6000830188620008c4565b6200090c6020830187620008c4565b6200091b6040830186620008c4565b6200092a6060830185620008d5565b6200093960808301846200088c565b9695505050505050565b600082825260208201905092915050565b60005b838110156200097457808201518184015260208101905062000957565b60008484015250505050565b6000601f19601f8301169050919050565b60006200099e82620004f7565b620009aa818562000943565b9350620009bc81856020860162000954565b620009c78162000980565b840191505092915050565b60006020820190508181036000830152620009ee818462000991565b905092915050565b600081519050919050565b6000819050602082019050919050565b600062000a1f8251620008ba565b80915050919050565b600062000a3582620009f6565b8262000a418462000a01565b905062000a4e8162000a11565b9250602082101562000a915762000a8c7fffffffffffffffffffffffffffffffffffffffffffffffffffffffffffffffff83602003600802620005ba565b831692505b5050919050565b60805160a05160c05160e051610100516101205161014051612d8762000af360003960006118880152600061184d01526000611b8801526000611b670152600061143101526000611487015260006114b00152612d876000f3fe608060405234801561001057600080fd5b506004361061018e5760003560e01c80637b56c2b2116100de578063a7fc7a0711610097578063d5abeb0111610071578063d5abeb011461043f578063dd62ed3e1461045d578063f2fde38b1461048d578063f6a74ed7146104a95761018e565b8063a7fc7a07146103d7578063a9059cbb146103f3578063d505accf146104235761018e565b80637b56c2b2146103215780637ecebe001461033d5780638456cb591461036d57806384b0196e146103775780638da5cb5b1461039b57806395d89b41146103b95761018e565b80633f4ba83a1161014b5780635c975abb116101255780635c975abb146102ad57806370a08231146102cb578063715018a6146102fb57806379cc6790146103055761018e565b80633f4ba83a1461026b57806340c10f191461027557806342966c68146102915761018e565b806306fdde0314610193578063095ea7b3146101b157806318160ddd146101e157806323b872dd146101ff578063313ce5671461022f5780633644e5151461024d575b600080fd5b61019b6104c5565b6040516101a89190612333565b60405180910390f35b6101cb60048036038101906101c691906123ee565b610557565b6040516101d89190612449565b60405180910390f35b6101e961057a565b6040516101f69190612473565b60405180910390f35b6102196004803603810190610214919061248e565b610584565b6040516102269190612449565b60405180910390f35b6102376105b3565b60405161024491906124fd565b60405180910390f35b6102556105bc565b6040516102629190612531565b60405180910390f35b6102736105cb565b005b61028f600480360381019061028a91906123ee565b6105dd565b005b6102ab60048036038101906102a6919061254c565b610788565b005b6102b56108de565b6040516102c29190612449565b60405180910390f35b6102e560048036038101906102e09190612579565b6108f5565b6040516102f29190612473565b60405180910390f35b61030361093d565b005b61031f600480360381019061031a91906123ee565b610951565b005b61033b600480360381019061033691906123ee565b610abb565b005b61035760048036038101906103529190612579565b610c90565b6040516103649190612473565b60405180910390f35b610375610ca2565b005b61037f610cb4565b60405161039297969594939291906126ae565b60405180910390f35b6103a3610d5e565b6040516103b09190612732565b60405180910390f35b6103c1610d88565b6040516103ce9190612333565b60405180910390f35b6103f160048036038101906103ec9190612579565b610e1a565b005b61040d600480360381019061040891906123ee565b610f0d565b60405161041a9190612449565b60405180910390f35b61043d600480360381019061043891906127a5565b610f30565b005b610447611078565b6040516104549190612473565b60405180910390f35b61047760048036038101906104729190612847565b61108b565b6040516104849190612473565b60405180910390f35b6104a760048036038101906104a29190612579565b611112565b005b6104c360048036038101906104be9190612579565b611198565b005b6060600380546104d4906128b6565b80601f0160208091040260200160405190810160405280929190818152602001828054610500906128b6565b801561054d5780601f106105225761010080835404028352916020019161054d565b820191906000526020600020905b81548152906001019060200180831161053057829003601f168201915b5050505050905090565b60008061056261128b565b905061056f818585611293565b600191505092915050565b6000600c54905090565b60008061058f61128b565b905061059c8582856112a5565b6105a7858585611339565b60019150509392505050565b60006012905090565b60006105c661142d565b905090565b6105d36114e4565b6105db61156b565b565b600960008373ffffffffffffffffffffffffffffffffffffffff1673ffffffffffffffffffffffffffffffffffffffff16815260200190815260200160002060009054906101000a900460ff16610669576040517f08c379a000000000000000000000000000000000000000000000000000000000815260040161066090612933565b60405180910390fd5b6a115eec47f6cf7e3500000081600d546106839190612982565b11156106c4576040517f08c379a00000000000000000000000000000000000000000000000000000000081526004016106bb90612a02565b60405180910390fd5b80600c546106d29190612982565b600c8190555080600d546106e69190612982565b600d8190555080600a60008473ffffffffffffffffffffffffffffffffffffffff1673ffffffffffffffffffffffffffffffffffffffff168152602001908152602001600020546107379190612982565b600a60008473ffffffffffffffffffffffffffffffffffffffff1673ffffffffffffffffffffffffffffffffffffffff1681526020019081526020016000208190555061078482826115ce565b5050565b600960003373ffffffffffffffffffffffffffffffffffffffff1673ffffffffffffffffffffffffffffffffffffffff16815260200190815260200160002060009054906101000a900460ff16610814576040517f08c379a000000000000000000000000000000000000000000000000000000000815260040161080b90612a6e565b60405180910390fd5b80600c546108229190612a8e565b600c8190555080600d546108369190612a8e565b600d8190555080600a60003373ffffffffffffffffffffffffffffffffffffffff1673ffffffffffffffffffffffffffffffffffffffff168152602001908152602001600020546108879190612a8e565b600a60003373ffffffffffffffffffffffffffffffffffffffff1673ffffffffffffffffffffffffffffffffffffffff168152602001908152602001600020819055506108db6108d561128b565b82611650565b50565b6000600560009054906101000a900460ff16905090565b60008060008373ffffffffffffffffffffffffffffffffffffffff1673ffffffffffffffffffffffffffffffffffffffff168152602001908152602001600020549050919050565b6109456114e4565b61094f60006116d2565b565b6109596114e4565b600960003373ffffffffffffffffffffffffffffffffffffffff1673ffffffffffffffffffffffffffffffffffffffff16815260200190815260200160002060009054906101000a900460ff166109e5576040517f08c379a00000000000000000000000000000000000000000000000000000000081526004016109dc90612a6e565b60405180910390fd5b6109f7826109f161128b565b836112a5565b80600c54610a059190612a8e565b600c8190555080600d54610a199190612a8e565b600d8190555080600a60008473ffffffffffffffffffffffffffffffffffffffff1673ffffffffffffffffffffffffffffffffffffffff16815260200190815260200160002054610a6a9190612a8e565b600a60008473ffffffffffffffffffffffffffffffffffffffff1673ffffffffffffffffffffffffffffffffffffffff16815260200190815260200160002081905550610ab78282611650565b5050565b610ac36114e4565b60096000600b60009054906101000a900473ffffffffffffffffffffffffffffffffffffffff1673ffffffffffffffffffffffffffffffffffffffff1673ffffffffffffffffffffffffffffffffffffffff16815260200190815260200160002060009054906101000a900460ff16610b71576040517f08c379a0000000000000000000000000000000000000000000000000000000008152600401610b6890612933565b60405180910390fd5b6a115eec47f6cf7e3500000081600d54610b8b9190612982565b1115610bcc576040517f08c379a0000000000000000000000000000000000000000000000000000000008152600401610bc390612a02565b60405180910390fd5b80600c54610bda9190612982565b600c8190555080600d54610bee9190612982565b600d8190555080600a60008473ffffffffffffffffffffffffffffffffffffffff1673ffffffffffffffffffffffffffffffffffffffff16815260200190815260200160002054610c3f9190612982565b600a60008473ffffffffffffffffffffffffffffffffffffffff1673ffffffffffffffffffffffffffffffffffffffff16815260200190815260200160002081905550610c8c82826115ce565b5050565b6000610c9b82611798565b9050919050565b610caa6114e4565b610cb26117e1565b565b600060608060008060006060610cc8611844565b610cd061187f565b46306000801b600067ffffffffffffffff811115610cf157610cf0612ac2565b5b604051908082528060200260200182016040528015610d1f5781602001602082028036833780820191505090505b507f0f00000000000000000000000000000000000000000000000000000000000000959493929190965096509650965096509650965090919293949596565b6000600560019054906101000a900473ffffffffffffffffffffffffffffffffffffffff16905090565b606060048054610d97906128b6565b80601f0160208091040260200160405190810160405280929190818152602001828054610dc3906128b6565b8015610e105780601f10610de557610100808354040283529160200191610e10565b820191906000526020600020905b815481529060010190602001808311610df357829003601f168201915b5050505050905090565b610e226114e4565b600b60009054906101000a900473ffffffffffffffffffffffffffffffffffffffff1673ffffffffffffffffffffffffffffffffffffffff168173ffffffffffffffffffffffffffffffffffffffff1603610eb2576040517f08c379a0000000000000000000000000000000000000000000000000000000008152600401610ea990612b3d565b60405180910390fd5b6001600960008373ffffffffffffffffffffffffffffffffffffffff1673ffffffffffffffffffffffffffffffffffffffff16815260200190815260200160002060006101000a81548160ff02191690831515021790555050565b600080610f1861128b565b9050610f25818585611339565b600191505092915050565b83421115610f7557836040517f62791302000000000000000000000000000000000000000000000000000000008152600401610f6c9190612473565b60405180910390fd5b60007f6e71edae12b1b97f4d1f60370fef10105fa2faae0126114a169c64845d6126c9888888610fa48c6118ba565b89604051602001610fba96959493929190612b5d565b6040516020818303038152906040528051906020012090506000610fdd82611911565b90506000610fed8287878761192b565b90508973ffffffffffffffffffffffffffffffffffffffff168173ffffffffffffffffffffffffffffffffffffffff161461106157808a6040517f4b800e46000000000000000000000000000000000000000000000000000000008152600401611058929190612bbe565b60405180910390fd5b61106c8a8a8a611293565b50505050505050505050565b60006a115eec47f6cf7e35000000905090565b6000600160008473ffffffffffffffffffffffffffffffffffffffff1673ffffffffffffffffffffffffffffffffffffffff16815260200190815260200160002060008373ffffffffffffffffffffffffffffffffffffffff1673ffffffffffffffffffffffffffffffffffffffff16815260200190815260200160002054905092915050565b61111a6114e4565b600073ffffffffffffffffffffffffffffffffffffffff168173ffffffffffffffffffffffffffffffffffffffff160361118c5760006040517f1e4fbdf70000000000000000000000000000000000000000000000000000000081526004016111839190612732565b60405180910390fd5b611195816116d2565b50565b6111a06114e4565b600b60009054906101000a900473ffffffffffffffffffffffffffffffffffffffff1673ffffffffffffffffffffffffffffffffffffffff168173ffffffffffffffffffffffffffffffffffffffff1603611230576040517f08c379a000000000000000000000000000000000000000000000000000000000815260040161122790612c33565b60405180910390fd5b6000600960008373ffffffffffffffffffffffffffffffffffffffff1673ffffffffffffffffffffffffffffffffffffffff16815260200190815260200160002060006101000a81548160ff02191690831515021790555050565b600033905090565b6112a0838383600161195b565b505050565b60006112b1848461108b565b90507fffffffffffffffffffffffffffffffffffffffffffffffffffffffffffffffff81146113335781811015611323578281836040517ffb8f41b200000000000000000000000000000000000000000000000000000000815260040161131a93929190612c53565b60405180910390fd5b6113328484848403600061195b565b5b50505050565b600073ffffffffffffffffffffffffffffffffffffffff168373ffffffffffffffffffffffffffffffffffffffff16036113ab5760006040517f96c6fd1e0000000000000000000000000000000000000000000000000000000081526004016113a29190612732565b60405180910390fd5b600073ffffffffffffffffffffffffffffffffffffffff168273ffffffffffffffffffffffffffffffffffffffff160361141d5760006040517fec442f050000000000000000000000000000000000000000000000000000000081526004016114149190612732565b60405180910390fd5b611428838383611b32565b505050565b60007f000000000000000000000000000000000000000000000000000000000000000073ffffffffffffffffffffffffffffffffffffffff163073ffffffffffffffffffffffffffffffffffffffff161480156114a957507f000000000000000000000000000000000000000000000000000000000000000046145b156114d6577f000000000000000000000000000000000000000000000000000000000000000090506114e1565b6114de611b42565b90505b90565b6114ec61128b565b73ffffffffffffffffffffffffffffffffffffffff1661150a610d5e565b73ffffffffffffffffffffffffffffffffffffffff16146115695761152d61128b565b6040517f118cdaa70000000000000000000000000000000000000000000000000000000081526004016115609190612732565b60405180910390fd5b565b611573611bd8565b6000600560006101000a81548160ff0219169083151502179055507f5db9ee0a495bf2e6ff9c91a7834c1ba4fdd244a5e8aa4e537bd38aeae4b073aa6115b761128b565b6040516115c49190612732565b60405180910390a1565b600073ffffffffffffffffffffffffffffffffffffffff168273ffffffffffffffffffffffffffffffffffffffff16036116405760006040517fec442f050000000000000000000000000000000000000000000000000000000081526004016116379190612732565b60405180910390fd5b61164c60008383611b32565b5050565b600073ffffffffffffffffffffffffffffffffffffffff168273ffffffffffffffffffffffffffffffffffffffff16036116c25760006040517f96c6fd1e0000000000000000000000000000000000000000000000000000000081526004016116b99190612732565b60405180910390fd5b6116ce82600083611b32565b5050565b6000600560019054906101000a900473ffffffffffffffffffffffffffffffffffffffff16905081600560016101000a81548173ffffffffffffffffffffffffffffffffffffffff021916908373ffffffffffffffffffffffffffffffffffffffff1602179055508173ffffffffffffffffffffffffffffffffffffffff168173ffffffffffffffffffffffffffffffffffffffff167f8be0079c531659141344cd1fd0a4f28419497f9722a3daafe3b4186f6b6457e060405160405180910390a35050565b6000600860008373ffffffffffffffffffffffffffffffffffffffff1673ffffffffffffffffffffffffffffffffffffffff168152602001908152602001600020549050919050565b6117e9611c18565b6001600560006101000a81548160ff0219169083151502179055507f62e78cea01bee320cd4e420270b5ea74000d11b0c9f74754ebdbfc544b05a25861182d61128b565b60405161183a9190612732565b60405180910390a1565b606061187a60067f0000000000000000000000000000000000000000000000000000000000000000611c5990919063ffffffff16565b905090565b60606118b560077f0000000000000000000000000000000000000000000000000000000000000000611c5990919063ffffffff16565b905090565b6000600860008373ffffffffffffffffffffffffffffffffffffffff1673ffffffffffffffffffffffffffffffffffffffff1681526020019081526020016000206000815480929190600101919050559050919050565b600061192461191e61142d565b83611d09565b9050919050565b60008060008061193d88888888611d4a565b92509250925061194d8282611e3e565b829350505050949350505050565b600073ffffffffffffffffffffffffffffffffffffffff168473ffffffffffffffffffffffffffffffffffffffff16036119cd5760006040517fe602df050000000000000000000000000000000000000000000000000000000081526004016119c49190612732565b60405180910390fd5b600073ffffffffffffffffffffffffffffffffffffffff168373ffffffffffffffffffffffffffffffffffffffff1603611a3f5760006040517f94280d62000000000000000000000000000000000000000000000000000000008152600401611a369190612732565b60405180910390fd5b81600160008673ffffffffffffffffffffffffffffffffffffffff1673ffffffffffffffffffffffffffffffffffffffff16815260200190815260200160002060008573ffffffffffffffffffffffffffffffffffffffff1673ffffffffffffffffffffffffffffffffffffffff168152602001908152602001600020819055508015611b2c578273ffffffffffffffffffffffffffffffffffffffff168473ffffffffffffffffffffffffffffffffffffffff167f8c5be1e5ebec7d5bd14f71427d1e84f3dd0314c0f7b2291e5b200ac8c7c3b92584604051611b239190612473565b60405180910390a35b50505050565b611b3d838383611fa2565b505050565b60007f8b73c3c69bb8fe3d512ecc4cf759cc79239f7b179b0ffacaa9a75d522b39400f7f00000000000000000000000000000000000000000000000000000000000000007f00000000000000000000000000000000000000000000000000000000000000004630604051602001611bbd959493929190612c8a565b60405160208183030381529060405280519060200120905090565b611be06108de565b611c16576040517f8dfc202b00000000000000000000000000000000000000000000000000000000815260040160405180910390fd5b565b611c206108de565b15611c57576040517fd93c066500000000000000000000000000000000000000000000000000000000815260040160405180910390fd5b565b606060ff60001b8314611c7657611c6f83611fba565b9050611d03565b818054611c82906128b6565b80601f0160208091040260200160405190810160405280929190818152602001828054611cae906128b6565b8015611cfb5780601f10611cd057610100808354040283529160200191611cfb565b820191906000526020600020905b815481529060010190602001808311611cde57829003601f168201915b505050505090505b92915050565b60006040517f190100000000000000000000000000000000000000000000000000000000000081528360028201528260228201526042812091505092915050565b60008060007f7fffffffffffffffffffffffffffffff5d576e7357a4501ddfe92f46681b20a08460001c1115611d8a576000600385925092509250611e34565b600060018888888860405160008152602001604052604051611daf9493929190612cdd565b6020604051602081039080840390855afa158015611dd1573d6000803e3d6000fd5b505050602060405103519050600073ffffffffffffffffffffffffffffffffffffffff168173ffffffffffffffffffffffffffffffffffffffff1603611e2557600060016000801b93509350935050611e34565b8060008060001b935093509350505b9450945094915050565b60006003811115611e5257611e51612d22565b5b826003811115611e6557611e64612d22565b5b0315611f9e5760016003811115611e7f57611e7e612d22565b5b826003811115611e9257611e91612d22565b5b03611ec9576040517ff645eedf00000000000000000000000000000000000000000000000000000000815260040160405180910390fd5b60026003811115611edd57611edc612d22565b5b826003811115611ef057611eef612d22565b5b03611f35578060001c6040517ffce698f7000000000000000000000000000000000000000000000000000000008152600401611f2c9190612473565b60405180910390fd5b600380811115611f4857611f47612d22565b5b826003811115611f5b57611f5a612d22565b5b03611f9d57806040517fd78bce0c000000000000000000000000000000000000000000000000000000008152600401611f949190612531565b60405180910390fd5b5b5050565b611faa611c18565b611fb583838361202e565b505050565b60606000611fc783612253565b90506000602067ffffffffffffffff811115611fe657611fe5612ac2565b5b6040519080825280601f01601f1916602001820160405280156120185781602001600182028036833780820191505090505b5090508181528360208201528092505050919050565b600073ffffffffffffffffffffffffffffffffffffffff168373ffffffffffffffffffffffffffffffffffffffff16036120805780600260008282546120749190612982565b92505081905550612153565b60008060008573ffffffffffffffffffffffffffffffffffffffff1673ffffffffffffffffffffffffffffffffffffffff1681526020019081526020016000205490508181101561210c578381836040517fe450d38c00000000000000000000000000000000000000000000000000000000815260040161210393929190612c53565b60405180910390fd5b8181036000808673ffffffffffffffffffffffffffffffffffffffff1673ffffffffffffffffffffffffffffffffffffffff16815260200190815260200160002081905550505b600073ffffffffffffffffffffffffffffffffffffffff168273ffffffffffffffffffffffffffffffffffffffff160361219c57806002600082825403925050819055506121e9565b806000808473ffffffffffffffffffffffffffffffffffffffff1673ffffffffffffffffffffffffffffffffffffffff168152602001908152602001600020600082825401925050819055505b8173ffffffffffffffffffffffffffffffffffffffff168373ffffffffffffffffffffffffffffffffffffffff167fddf252ad1be2c89b69c2b068fc378daa952ba7f163c4a11628f55a4df523b3ef836040516122469190612473565b60405180910390a3505050565b60008060ff8360001c169050601f81111561229a576040517fb3512b0c00000000000000000000000000000000000000000000000000000000815260040160405180910390fd5b80915050919050565b600081519050919050565b600082825260208201905092915050565b60005b838110156122dd5780820151818401526020810190506122c2565b60008484015250505050565b6000601f19601f8301169050919050565b6000612305826122a3565b61230f81856122ae565b935061231f8185602086016122bf565b612328816122e9565b840191505092915050565b6000602082019050818103600083015261234d81846122fa565b905092915050565b600080fd5b600073ffffffffffffffffffffffffffffffffffffffff82169050919050565b60006123858261235a565b9050919050565b6123958161237a565b81146123a057600080fd5b50565b6000813590506123b28161238c565b92915050565b6000819050919050565b6123cb816123b8565b81146123d657600080fd5b50565b6000813590506123e8816123c2565b92915050565b6000806040838503121561240557612404612355565b5b6000612413858286016123a3565b9250506020612424858286016123d9565b9150509250929050565b60008115159050919050565b6124438161242e565b82525050565b600060208201905061245e600083018461243a565b92915050565b61246d816123b8565b82525050565b60006020820190506124886000830184612464565b92915050565b6000806000606084860312156124a7576124a6612355565b5b60006124b5868287016123a3565b93505060206124c6868287016123a3565b92505060406124d7868287016123d9565b9150509250925092565b600060ff82169050919050565b6124f7816124e1565b82525050565b600060208201905061251260008301846124ee565b92915050565b6000819050919050565b61252b81612518565b82525050565b60006020820190506125466000830184612522565b92915050565b60006020828403121561256257612561612355565b5b6000612570848285016123d9565b91505092915050565b60006020828403121561258f5761258e612355565b5b600061259d848285016123a3565b91505092915050565b60007fff0000000000000000000000000000000000000000000000000000000000000082169050919050565b6125db816125a6565b82525050565b6125ea8161237a565b82525050565b600081519050919050565b600082825260208201905092915050565b6000819050602082019050919050565b612625816123b8565b82525050565b6000612637838361261c565b60208301905092915050565b6000602082019050919050565b600061265b826125f0565b61266581856125fb565b93506126708361260c565b8060005b838110156126a1578151612688888261262b565b975061269383612643565b925050600181019050612674565b5085935050505092915050565b600060e0820190506126c3600083018a6125d2565b81810360208301526126d581896122fa565b905081810360408301526126e981886122fa565b90506126f86060830187612464565b61270560808301866125e1565b61271260a0830185612522565b81810360c08301526127248184612650565b905098975050505050505050565b600060208201905061274760008301846125e1565b92915050565b612756816124e1565b811461276157600080fd5b50565b6000813590506127738161274d565b92915050565b61278281612518565b811461278d57600080fd5b50565b60008135905061279f81612779565b92915050565b600080600080600080600060e0888a0312156127c4576127c3612355565b5b60006127d28a828b016123a3565b97505060206127e38a828b016123a3565b96505060406127f48a828b016123d9565b95505060606128058a828b016123d9565b94505060806128168a828b01612764565b93505060a06128278a828b01612790565b92505060c06128388a828b01612790565b91505092959891949750929550565b6000806040838503121561285e5761285d612355565b5b600061286c858286016123a3565b925050602061287d858286016123a3565b9150509250929050565b7f4e487b7100000000000000000000000000000000000000000000000000000000600052602260045260246000fd5b600060028204905060018216806128ce57607f821691505b6020821081036128e1576128e0612887565b5b50919050565b7f4f6e6c7920636f6e74726f6c6c6572732063616e206d696e7400000000000000600082015250565b600061291d6019836122ae565b9150612928826128e7565b602082019050919050565b6000602082019050818103600083015261294c81612910565b9050919050565b7f4e487b7100000000000000000000000000000000000000000000000000000000600052601160045260246000fd5b600061298d826123b8565b9150612998836123b8565b92508282019050808211156129b0576129af612953565b5b92915050565b7f4d6178696d756d20737570706c7920686173206265656e207265616368656400600082015250565b60006129ec601f836122ae565b91506129f7826129b6565b602082019050919050565b60006020820190508181036000830152612a1b816129df565b9050919050565b7f4f6e6c7920636f6e74726f6c6c6572732063616e206275726e00000000000000600082015250565b6000612a586019836122ae565b9150612a6382612a22565b602082019050919050565b60006020820190508181036000830152612a8781612a4b565b9050919050565b6000612a99826123b8565b9150612aa4836123b8565b9250828203905081811115612abc57612abb612953565b5b92915050565b7f4e487b7100000000000000000000000000000000000000000000000000000000600052604160045260246000fd5b7f6f776e657220616c726561647920636f6e74726f6c6c65720000000000000000600082015250565b6000612b276018836122ae565b9150612b3282612af1565b602082019050919050565b60006020820190508181036000830152612b5681612b1a565b9050919050565b600060c082019050612b726000830189612522565b612b7f60208301886125e1565b612b8c60408301876125e1565b612b996060830186612464565b612ba66080830185612464565b612bb360a0830184612464565b979650505050505050565b6000604082019050612bd360008301856125e1565b612be060208301846125e1565b9392505050565b7f6f776e65722063616e6f742072656d6f76657200000000000000000000000000600082015250565b6000612c1d6013836122ae565b9150612c2882612be7565b602082019050919050565b60006020820190508181036000830152612c4c81612c10565b9050919050565b6000606082019050612c6860008301866125e1565b612c756020830185612464565b612c826040830184612464565b949350505050565b600060a082019050612c9f6000830188612522565b612cac6020830187612522565b612cb96040830186612522565b612cc66060830185612464565b612cd360808301846125e1565b9695505050505050565b6000608082019050612cf26000830187612522565b612cff60208301866124ee565b612d0c6040830185612522565b612d196060830184612522565b95945050505050565b7f4e487b7100000000000000000000000000000000000000000000000000000000600052602160045260246000fdfea2646970667358221220afdff2e0fc29e1bcee188106ef095e03120261f7627a39b37cc1534e05243c2c64736f6c63430008180033",
  "linkReferences": {},
  "deployedLinkReferences": {}
}