{
  "_format": "hh-sol-artifact-1",
  "contractName": "BYBYNft",
  "sourceName": "contracts/BYBYNft.sol",
  "abi": [
    {
      "inputs": [],
      "stateMutability": "nonpayable",
      "type": "constructor"
    },
    {
      "inputs": [],
      "name": "ERC721EnumerableForbiddenBatchMint",
      "type": "error"
    },
    {
      "inputs": [
        {
          "internalType": "address",
          "name": "sender",
          "type": "address"
        },
        {
          "internalType": "uint256",
          "name": "tokenId",
          "type": "uint256"
        },
        {
          "internalType": "address",
          "name": "owner",
          "type": "address"
        }
      ],
      "name": "ERC721IncorrectOwner",
      "type": "error"
    },
    {
      "inputs": [
        {
          "internalType": "address",
          "name": "operator",
          "type": "address"
        },
        {
          "internalType": "uint256",
          "name": "tokenId",
          "type": "uint256"
        }
      ],
      "name": "ERC721InsufficientApproval",
      "type": "error"
    },
    {
      "inputs": [
        {
          "internalType": "address",
          "name": "approver",
          "type": "address"
        }
      ],
      "name": "ERC721InvalidApprover",
      "type": "error"
    },
    {
      "inputs": [
        {
          "internalType": "address",
          "name": "operator",
          "type": "address"
        }
      ],
      "name": "ERC721InvalidOperator",
      "type": "error"
    },
    {
      "inputs": [
        {
          "internalType": "address",
          "name": "owner",
          "type": "address"
        }
      ],
      "name": "ERC721InvalidOwner",
      "type": "error"
    },
    {
      "inputs": [
        {
          "internalType": "address",
          "name": "receiver",
          "type": "address"
        }
      ],
      "name": "ERC721InvalidReceiver",
      "type": "error"
    },
    {
      "inputs": [
        {
          "internalType": "address",
          "name": "sender",
          "type": "address"
        }
      ],
      "name": "ERC721InvalidSender",
      "type": "error"
    },
    {
      "inputs": [
        {
          "internalType": "uint256",
          "name": "tokenId",
          "type": "uint256"
        }
      ],
      "name": "ERC721NonexistentToken",
      "type": "error"
    },
    {
      "inputs": [
        {
          "internalType": "address",
          "name": "owner",
          "type": "address"
        },
        {
          "internalType": "uint256",
          "name": "index",
          "type": "uint256"
        }
      ],
      "name": "ERC721OutOfBoundsIndex",
      "type": "error"
    },
    {
      "inputs": [
        {
          "internalType": "address",
          "name": "owner",
          "type": "address"
        }
      ],
      "name": "OwnableInvalidOwner",
      "type": "error"
    },
    {
      "inputs": [
        {
          "internalType": "address",
          "name": "account",
          "type": "address"
        }
      ],
      "name": "OwnableUnauthorizedAccount",
      "type": "error"
    },
    {
      "anonymous": false,
      "inputs": [
        {
          "indexed": true,
          "internalType": "address",
          "name": "owner",
          "type": "address"
        },
        {
          "indexed": true,
          "internalType": "address",
          "name": "approved",
          "type": "address"
        },
        {
          "indexed": true,
          "internalType": "uint256",
          "name": "tokenId",
          "type": "uint256"
        }
      ],
      "name": "Approval",
      "type": "event"
    },
    {
      "anonymous": false,
      "inputs": [
        {
          "indexed": true,
          "internalType": "address",
          "name": "owner",
          "type": "address"
        },
        {
          "indexed": true,
          "internalType": "address",
          "name": "operator",
          "type": "address"
        },
        {
          "indexed": false,
          "internalType": "bool",
          "name": "approved",
          "type": "bool"
        }
      ],
      "name": "ApprovalForAll",
      "type": "event"
    },
    {
      "anonymous": false,
      "inputs": [
        {
          "indexed": false,
          "internalType": "uint256",
          "name": "_fromTokenId",
          "type": "uint256"
        },
        {
          "indexed": false,
          "internalType": "uint256",
          "name": "_toTokenId",
          "type": "uint256"
        }
      ],
      "name": "BatchMetadataUpdate",
      "type": "event"
    },
    {
      "anonymous": false,
      "inputs": [
        {
          "indexed": false,
          "internalType": "uint256",
          "name": "_tokenId",
          "type": "uint256"
        }
      ],
      "name": "MetadataUpdate",
      "type": "event"
    },
    {
      "anonymous": false,
      "inputs": [
        {
          "indexed": true,
          "internalType": "address",
          "name": "previousOwner",
          "type": "address"
        },
        {
          "indexed": true,
          "internalType": "address",
          "name": "newOwner",
          "type": "address"
        }
      ],
      "name": "OwnershipTransferred",
      "type": "event"
    },
    {
      "anonymous": false,
      "inputs": [
        {
          "indexed": true,
          "internalType": "address",
          "name": "from",
          "type": "address"
        },
        {
          "indexed": true,
          "internalType": "address",
          "name": "to",
          "type": "address"
        },
        {
          "indexed": true,
          "internalType": "uint256",
          "name": "tokenId",
          "type": "uint256"
        }
      ],
      "name": "Transfer",
      "type": "event"
    },
    {
      "inputs": [],
      "name": "MAXBYBY",
      "outputs": [
        {
          "internalType": "uint8",
          "name": "",
          "type": "uint8"
        }
      ],
      "stateMutability": "view",
      "type": "function"
    },
    {
      "inputs": [
        {
          "internalType": "address",
          "name": "to",
          "type": "address"
        },
        {
          "internalType": "uint256",
          "name": "tokenId",
          "type": "uint256"
        }
      ],
      "name": "approve",
      "outputs": [],
      "stateMutability": "nonpayable",
      "type": "function"
    },
    {
      "inputs": [
        {
          "internalType": "address",
          "name": "owner",
          "type": "address"
        }
      ],
      "name": "balanceOf",
      "outputs": [
        {
          "internalType": "uint256",
          "name": "",
          "type": "uint256"
        }
      ],
      "stateMutability": "view",
      "type": "function"
    },
    {
      "inputs": [
        {
          "internalType": "uint256",
          "name": "tokenId",
          "type": "uint256"
        }
      ],
      "name": "getApproved",
      "outputs": [
        {
          "internalType": "address",
          "name": "",
          "type": "address"
        }
      ],
      "stateMutability": "view",
      "type": "function"
    },
    {
      "inputs": [
        {
          "internalType": "address",
          "name": "owner",
          "type": "address"
        },
        {
          "internalType": "address",
          "name": "operator",
          "type": "address"
        }
      ],
      "name": "isApprovedForAll",
      "outputs": [
        {
          "internalType": "bool",
          "name": "",
          "type": "bool"
        }
      ],
      "stateMutability": "view",
      "type": "function"
    },
    {
      "inputs": [],
      "name": "maxPurchase",
      "outputs": [
        {
          "internalType": "uint256",
          "name": "",
          "type": "uint256"
        }
      ],
      "stateMutability": "view",
      "type": "function"
    },
    {
      "inputs": [
        {
          "internalType": "uint8",
          "name": "mintNum",
          "type": "uint8"
        }
      ],
      "name": "mintBYBY",
      "outputs": [],
      "stateMutability": "payable",
      "type": "function"
    },
    {
      "inputs": [],
      "name": "mintPrice",
      "outputs": [
        {
          "internalType": "uint256",
          "name": "",
          "type": "uint256"
        }
      ],
      "stateMutability": "view",
      "type": "function"
    },
    {
      "inputs": [],
      "name": "name",
      "outputs": [
        {
          "internalType": "string",
          "name": "",
          "type": "string"
        }
      ],
      "stateMutability": "view",
      "type": "function"
    },
    {
      "inputs": [],
      "name": "owner",
      "outputs": [
        {
          "internalType": "address",
          "name": "",
          "type": "address"
        }
      ],
      "stateMutability": "view",
      "type": "function"
    },
    {
      "inputs": [
        {
          "internalType": "uint256",
          "name": "tokenId",
          "type": "uint256"
        }
      ],
      "name": "ownerOf",
      "outputs": [
        {
          "internalType": "address",
          "name": "",
          "type": "address"
        }
      ],
      "stateMutability": "view",
      "type": "function"
    },
    {
      "inputs": [
        {
          "internalType": "bool",
          "name": "_state",
          "type": "bool"
        }
      ],
      "name": "pause",
      "outputs": [],
      "stateMutability": "nonpayable",
      "type": "function"
    },
    {
      "inputs": [],
      "name": "paused",
      "outputs": [
        {
          "internalType": "bool",
          "name": "",
          "type": "bool"
        }
      ],
      "stateMutability": "view",
      "type": "function"
    },
    {
      "inputs": [],
      "name": "renounceOwnership",
      "outputs": [],
      "stateMutability": "nonpayable",
      "type": "function"
    },
    {
      "inputs": [
        {
          "internalType": "address",
          "name": "from",
          "type": "address"
        },
        {
          "internalType": "address",
          "name": "to",
          "type": "address"
        },
        {
          "internalType": "uint256",
          "name": "tokenId",
          "type": "uint256"
        }
      ],
      "name": "safeTransferFrom",
      "outputs": [],
      "stateMutability": "nonpayable",
      "type": "function"
    },
    {
      "inputs": [
        {
          "internalType": "address",
          "name": "from",
          "type": "address"
        },
        {
          "internalType": "address",
          "name": "to",
          "type": "address"
        },
        {
          "internalType": "uint256",
          "name": "tokenId",
          "type": "uint256"
        },
        {
          "internalType": "bytes",
          "name": "data",
          "type": "bytes"
        }
      ],
      "name": "safeTransferFrom",
      "outputs": [],
      "stateMutability": "nonpayable",
      "type": "function"
    },
    {
      "inputs": [
        {
          "internalType": "address",
          "name": "operator",
          "type": "address"
        },
        {
          "internalType": "bool",
          "name": "approved",
          "type": "bool"
        }
      ],
      "name": "setApprovalForAll",
      "outputs": [],
      "stateMutability": "nonpayable",
      "type": "function"
    },
    {
      "inputs": [
        {
          "internalType": "bytes4",
          "name": "interfaceId",
          "type": "bytes4"
        }
      ],
      "name": "supportsInterface",
      "outputs": [
        {
          "internalType": "bool",
          "name": "",
          "type": "bool"
        }
      ],
      "stateMutability": "view",
      "type": "function"
    },
    {
      "inputs": [],
      "name": "symbol",
      "outputs": [
        {
          "internalType": "string",
          "name": "",
          "type": "string"
        }
      ],
      "stateMutability": "view",
      "type": "function"
    },
    {
      "inputs": [
        {
          "internalType": "uint256",
          "name": "index",
          "type": "uint256"
        }
      ],
      "name": "tokenByIndex",
      "outputs": [
        {
          "internalType": "uint256",
          "name": "",
          "type": "uint256"
        }
      ],
      "stateMutability": "view",
      "type": "function"
    },
    {
      "inputs": [
        {
          "internalType": "address",
          "name": "owner",
          "type": "address"
        },
        {
          "internalType": "uint256",
          "name": "index",
          "type": "uint256"
        }
      ],
      "name": "tokenOfOwnerByIndex",
      "outputs": [
        {
          "internalType": "uint256",
          "name": "",
          "type": "uint256"
        }
      ],
      "stateMutability": "view",
      "type": "function"
    },
    {
      "inputs": [
        {
          "internalType": "uint256",
          "name": "tokenId",
          "type": "uint256"
        }
      ],
      "name": "tokenURI",
      "outputs": [
        {
          "internalType": "string",
          "name": "",
          "type": "string"
        }
      ],
      "stateMutability": "view",
      "type": "function"
    },
    {
      "inputs": [],
      "name": "totalSupply",
      "outputs": [
        {
          "internalType": "uint256",
          "name": "",
          "type": "uint256"
        }
      ],
      "stateMutability": "view",
      "type": "function"
    },
    {
      "inputs": [
        {
          "internalType": "address",
          "name": "from",
          "type": "address"
        },
        {
          "internalType": "address",
          "name": "to",
          "type": "address"
        },
        {
          "internalType": "uint256",
          "name": "tokenId",
          "type": "uint256"
        }
      ],
      "name": "transferFrom",
      "outputs": [],
      "stateMutability": "nonpayable",
      "type": "function"
    },
    {
      "inputs": [
        {
          "internalType": "address",
          "name": "newOwner",
          "type": "address"
        }
      ],
      "name": "transferOwnership",
      "outputs": [],
      "stateMutability": "nonpayable",
      "type": "function"
    },
    {
      "inputs": [
        {
          "internalType": "address",
          "name": "_owner",
          "type": "address"
        }
      ],
      "name": "walletOfOwner",
      "outputs": [
        {
          "internalType": "uint256[]",
          "name": "",
          "type": "uint256[]"
        }
      ],
      "stateMutability": "view",
      "type": "function"
    },
    {
      "inputs": [],
      "name": "withDraw",
      "outputs": [],
      "stateMutability": "nonpayable",
      "type": "function"
    }
  ],
  "bytecode": "0x60806040526001600c556000600d60006101000a81548160ff0219169083151502179055503480156200003157600080fd5b50336040518060400160405280601381526020017f42594259204e465420436f6c6c656374696f6e000000000000000000000000008152506040518060400160405280600481526020017f42594259000000000000000000000000000000000000000000000000000000008152508160009081620000b0919062000492565b508060019081620000c2919062000492565b505050600073ffffffffffffffffffffffffffffffffffffffff168173ffffffffffffffffffffffffffffffffffffffff16036200013a5760006040517f1e4fbdf7000000000000000000000000000000000000000000000000000000008152600401620001319190620005be565b60405180910390fd5b6200014b816200015260201b60201c565b50620005db565b6000600b60009054906101000a900473ffffffffffffffffffffffffffffffffffffffff16905081600b60006101000a81548173ffffffffffffffffffffffffffffffffffffffff021916908373ffffffffffffffffffffffffffffffffffffffff1602179055508173ffffffffffffffffffffffffffffffffffffffff168173ffffffffffffffffffffffffffffffffffffffff167f8be0079c531659141344cd1fd0a4f28419497f9722a3daafe3b4186f6b6457e060405160405180910390a35050565b600081519050919050565b7f4e487b7100000000000000000000000000000000000000000000000000000000600052604160045260246000fd5b7f4e487b7100000000000000000000000000000000000000000000000000000000600052602260045260246000fd5b600060028204905060018216806200029a57607f821691505b602082108103620002b057620002af62000252565b5b50919050565b60008190508160005260206000209050919050565b60006020601f8301049050919050565b600082821b905092915050565b6000600883026200031a7fffffffffffffffffffffffffffffffffffffffffffffffffffffffffffffffff82620002db565b620003268683620002db565b95508019841693508086168417925050509392505050565b6000819050919050565b6000819050919050565b6000620003736200036d62000367846200033e565b62000348565b6200033e565b9050919050565b6000819050919050565b6200038f8362000352565b620003a76200039e826200037a565b848454620002e8565b825550505050565b600090565b620003be620003af565b620003cb81848462000384565b505050565b5b81811015620003f357620003e7600082620003b4565b600181019050620003d1565b5050565b601f82111562000442576200040c81620002b6565b6200041784620002cb565b8101602085101562000427578190505b6200043f6200043685620002cb565b830182620003d0565b50505b505050565b600082821c905092915050565b6000620004676000198460080262000447565b1980831691505092915050565b600062000482838362000454565b9150826002028217905092915050565b6200049d8262000218565b67ffffffffffffffff811115620004b957620004b862000223565b5b620004c5825462000281565b620004d2828285620003f7565b600060209050601f8311600181146200050a5760008415620004f5578287015190505b62000501858262000474565b86555062000571565b601f1984166200051a86620002b6565b60005b8281101562000544578489015182556001820191506020850194506020810190506200051d565b8683101562000564578489015162000560601f89168262000454565b8355505b6001600288020188555050505b505050505050565b600073ffffffffffffffffffffffffffffffffffffffff82169050919050565b6000620005a68262000579565b9050919050565b620005b88162000599565b82525050565b6000602082019050620005d56000830184620005ad565b92915050565b61366980620005eb6000396000f3fe60806040526004361061019c5760003560e01c80636352211e116100ec578063977b055b1161008a578063c87b56dd11610064578063c87b56dd146105b9578063d4a7dc09146105f6578063e985e9c514610621578063f2fde38b1461065e5761019c565b8063977b055b1461053c578063a22cb46514610567578063b88d4fde146105905761019c565b8063715018a6116100c6578063715018a6146104b35780637e79ea0a146104ca5780638da5cb5b146104e657806395d89b41146105115761019c565b80636352211e1461040e5780636817c76c1461044b57806370a08231146104765761019c565b806318160ddd1161015957806342842e0e1161013357806342842e0e14610340578063438b6300146103695780634f6ccce7146103a65780635c975abb146103e35761019c565b806318160ddd146102af57806323b872dd146102da5780632f745c59146103035761019c565b806301ffc9a7146101a157806302329a29146101de57806306fdde0314610207578063081812fc14610232578063095ea7b31461026f5780630fdb1c1014610298575b600080fd5b3480156101ad57600080fd5b506101c860048036038101906101c391906126d5565b610687565b6040516101d5919061271d565b60405180910390f35b3480156101ea57600080fd5b5061020560048036038101906102009190612764565b610699565b005b34801561021357600080fd5b5061021c6106be565b6040516102299190612821565b60405180910390f35b34801561023e57600080fd5b5061025960048036038101906102549190612879565b610750565b60405161026691906128e7565b60405180910390f35b34801561027b57600080fd5b506102966004803603810190610291919061292e565b61076c565b005b3480156102a457600080fd5b506102ad610782565b005b3480156102bb57600080fd5b506102c46107d9565b6040516102d1919061297d565b60405180910390f35b3480156102e657600080fd5b5061030160048036038101906102fc9190612998565b6107e6565b005b34801561030f57600080fd5b5061032a6004803603810190610325919061292e565b6108e8565b604051610337919061297d565b60405180910390f35b34801561034c57600080fd5b5061036760048036038101906103629190612998565b610991565b005b34801561037557600080fd5b50610390600480360381019061038b91906129eb565b6109b1565b60405161039d9190612ad6565b60405180910390f35b3480156103b257600080fd5b506103cd60048036038101906103c89190612879565b610a5a565b6040516103da919061297d565b60405180910390f35b3480156103ef57600080fd5b506103f8610ad0565b604051610405919061271d565b60405180910390f35b34801561041a57600080fd5b5061043560048036038101906104309190612879565b610ae3565b60405161044291906128e7565b60405180910390f35b34801561045757600080fd5b50610460610af5565b60405161046d919061297d565b60405180910390f35b34801561048257600080fd5b5061049d600480360381019061049891906129eb565b610b00565b6040516104aa919061297d565b60405180910390f35b3480156104bf57600080fd5b506104c8610bba565b005b6104e460048036038101906104df9190612b31565b610bce565b005b3480156104f257600080fd5b506104fb610d54565b60405161050891906128e7565b60405180910390f35b34801561051d57600080fd5b50610526610d7e565b6040516105339190612821565b60405180910390f35b34801561054857600080fd5b50610551610e10565b60405161055e919061297d565b60405180910390f35b34801561057357600080fd5b5061058e60048036038101906105899190612b5e565b610e15565b005b34801561059c57600080fd5b506105b760048036038101906105b29190612cd3565b610e2b565b005b3480156105c557600080fd5b506105e060048036038101906105db9190612879565b610e48565b6040516105ed9190612821565b60405180910390f35b34801561060257600080fd5b5061060b610e5a565b6040516106189190612d65565b60405180910390f35b34801561062d57600080fd5b5061064860048036038101906106439190612d80565b610e5f565b604051610655919061271d565b60405180910390f35b34801561066a57600080fd5b50610685600480360381019061068091906129eb565b610ef3565b005b600061069282610f79565b9050919050565b6106a1610ff3565b80600d60006101000a81548160ff02191690831515021790555050565b6060600080546106cd90612def565b80601f01602080910402602001604051908101604052809291908181526020018280546106f990612def565b80156107465780601f1061071b57610100808354040283529160200191610746565b820191906000526020600020905b81548152906001019060200180831161072957829003601f168201915b5050505050905090565b600061075b8261107a565b5061076582611102565b9050919050565b61077e828261077961113f565b611147565b5050565b61078a610ff3565b60004790503373ffffffffffffffffffffffffffffffffffffffff166108fc829081150290604051600060405180830381858888f193505050501580156107d5573d6000803e3d6000fd5b5050565b6000600980549050905090565b600073ffffffffffffffffffffffffffffffffffffffff168273ffffffffffffffffffffffffffffffffffffffff16036108585760006040517f64a0ae9200000000000000000000000000000000000000000000000000000000815260040161084f91906128e7565b60405180910390fd5b600061086c838361086761113f565b611159565b90508373ffffffffffffffffffffffffffffffffffffffff168173ffffffffffffffffffffffffffffffffffffffff16146108e2578382826040517f64283d7b0000000000000000000000000000000000000000000000000000000081526004016108d993929190612e20565b60405180910390fd5b50505050565b60006108f383610b00565b82106109385782826040517fa57d13dc00000000000000000000000000000000000000000000000000000000815260040161092f929190612e57565b60405180910390fd5b600760008473ffffffffffffffffffffffffffffffffffffffff1673ffffffffffffffffffffffffffffffffffffffff168152602001908152602001600020600083815260200190815260200160002054905092915050565b6109ac83838360405180602001604052806000815250610e2b565b505050565b606060006109be83610b00565b905060008167ffffffffffffffff8111156109dc576109db612ba8565b5b604051908082528060200260200182016040528015610a0a5781602001602082028036833780820191505090505b50905060005b8151811015610a4f57610a2385826108e8565b828281518110610a3657610a35612e80565b5b6020026020010181815250508080600101915050610a10565b508092505050919050565b6000610a646107d9565b8210610aaa576000826040517fa57d13dc000000000000000000000000000000000000000000000000000000008152600401610aa1929190612e57565b60405180910390fd5b60098281548110610abe57610abd612e80565b5b90600052602060002001549050919050565b600d60009054906101000a900460ff1681565b6000610aee8261107a565b9050919050565b6611c37937e0800081565b60008073ffffffffffffffffffffffffffffffffffffffff168273ffffffffffffffffffffffffffffffffffffffff1603610b735760006040517f89c62b64000000000000000000000000000000000000000000000000000000008152600401610b6a91906128e7565b60405180910390fd5b600360008373ffffffffffffffffffffffffffffffffffffffff1673ffffffffffffffffffffffffffffffffffffffff168152602001908152602001600020549050919050565b610bc2610ff3565b610bcc600061116f565b565b600d60009054906101000a900460ff16610c1d576040517f08c379a0000000000000000000000000000000000000000000000000000000008152600401610c1490612efb565b60405180910390fd5b60028160ff161115610c64576040517f08c379a0000000000000000000000000000000000000000000000000000000008152600401610c5b90612f67565b60405180910390fd5b348160ff166611c37937e08000610c7b9190612fb6565b1115610cbc576040517f08c379a0000000000000000000000000000000000000000000000000000000008152600401610cb390613044565b60405180910390fd5b601460ff168160ff16610ccd6107d9565b610cd79190613064565b1115610d18576040517f08c379a0000000000000000000000000000000000000000000000000000000008152600401610d0f906130e4565b60405180910390fd5b60005b8160ff16811015610d5057601460ff16610d336107d9565b1015610d4357610d4233611235565b5b8080600101915050610d1b565b5050565b6000600b60009054906101000a900473ffffffffffffffffffffffffffffffffffffffff16905090565b606060018054610d8d90612def565b80601f0160208091040260200160405190810160405280929190818152602001828054610db990612def565b8015610e065780601f10610ddb57610100808354040283529160200191610e06565b820191906000526020600020905b815481529060010190602001808311610de957829003601f168201915b5050505050905090565b600281565b610e27610e2061113f565b838361128f565b5050565b610e368484846107e6565b610e42848484846113fe565b50505050565b6060610e53826115b5565b9050919050565b601481565b6000600560008473ffffffffffffffffffffffffffffffffffffffff1673ffffffffffffffffffffffffffffffffffffffff16815260200190815260200160002060008373ffffffffffffffffffffffffffffffffffffffff1673ffffffffffffffffffffffffffffffffffffffff16815260200190815260200160002060009054906101000a900460ff16905092915050565b610efb610ff3565b600073ffffffffffffffffffffffffffffffffffffffff168173ffffffffffffffffffffffffffffffffffffffff1603610f6d5760006040517f1e4fbdf7000000000000000000000000000000000000000000000000000000008152600401610f6491906128e7565b60405180910390fd5b610f768161116f565b50565b60007f780e9d63000000000000000000000000000000000000000000000000000000007bffffffffffffffffffffffffffffffffffffffffffffffffffffffff1916827bffffffffffffffffffffffffffffffffffffffffffffffffffffffff19161480610fec5750610feb826116c8565b5b9050919050565b610ffb61113f565b73ffffffffffffffffffffffffffffffffffffffff16611019610d54565b73ffffffffffffffffffffffffffffffffffffffff16146110785761103c61113f565b6040517f118cdaa700000000000000000000000000000000000000000000000000000000815260040161106f91906128e7565b60405180910390fd5b565b60008061108683611729565b9050600073ffffffffffffffffffffffffffffffffffffffff168173ffffffffffffffffffffffffffffffffffffffff16036110f957826040517f7e2732890000000000000000000000000000000000000000000000000000000081526004016110f0919061297d565b60405180910390fd5b80915050919050565b60006004600083815260200190815260200160002060009054906101000a900473ffffffffffffffffffffffffffffffffffffffff169050919050565b600033905090565b6111548383836001611766565b505050565b600061116684848461192b565b90509392505050565b6000600b60009054906101000a900473ffffffffffffffffffffffffffffffffffffffff16905081600b60006101000a81548173ffffffffffffffffffffffffffffffffffffffff021916908373ffffffffffffffffffffffffffffffffffffffff1602179055508173ffffffffffffffffffffffffffffffffffffffff168173ffffffffffffffffffffffffffffffffffffffff167f8be0079c531659141344cd1fd0a4f28419497f9722a3daafe3b4186f6b6457e060405160405180910390a35050565b6000600c600081548092919061124a90613104565b91905055905061125a8282611a48565b61128b8161126783611a66565b60405160200161127791906131fa565b604051602081830303815290604052611b34565b5050565b600073ffffffffffffffffffffffffffffffffffffffff168273ffffffffffffffffffffffffffffffffffffffff160361130057816040517f5b08ba180000000000000000000000000000000000000000000000000000000081526004016112f791906128e7565b60405180910390fd5b80600560008573ffffffffffffffffffffffffffffffffffffffff1673ffffffffffffffffffffffffffffffffffffffff16815260200190815260200160002060008473ffffffffffffffffffffffffffffffffffffffff1673ffffffffffffffffffffffffffffffffffffffff16815260200190815260200160002060006101000a81548160ff0219169083151502179055508173ffffffffffffffffffffffffffffffffffffffff168373ffffffffffffffffffffffffffffffffffffffff167f17307eab39ab6107e8899845ad3d59bd9653f200f220920489ca2b5937696c31836040516113f1919061271d565b60405180910390a3505050565b60008373ffffffffffffffffffffffffffffffffffffffff163b11156115af578273ffffffffffffffffffffffffffffffffffffffff1663150b7a0261144261113f565b8685856040518563ffffffff1660e01b81526004016114649493929190613271565b6020604051808303816000875af19250505080156114a057506040513d601f19601f8201168201806040525081019061149d91906132d2565b60015b611524573d80600081146114d0576040519150601f19603f3d011682016040523d82523d6000602084013e6114d5565b606091505b50600081510361151c57836040517f64a0ae9200000000000000000000000000000000000000000000000000000000815260040161151391906128e7565b60405180910390fd5b805181602001fd5b63150b7a0260e01b7bffffffffffffffffffffffffffffffffffffffffffffffffffffffff1916817bffffffffffffffffffffffffffffffffffffffffffffffffffffffff1916146115ad57836040517f64a0ae920000000000000000000000000000000000000000000000000000000081526004016115a491906128e7565b60405180910390fd5b505b50505050565b60606115c08261107a565b5060006006600084815260200190815260200160002080546115e190612def565b80601f016020809104026020016040519081016040528092919081815260200182805461160d90612def565b801561165a5780601f1061162f5761010080835404028352916020019161165a565b820191906000526020600020905b81548152906001019060200180831161163d57829003601f168201915b50505050509050600061166b611b90565b905060008151036116805781925050506116c3565b6000825111156116b557808260405160200161169d9291906132ff565b604051602081830303815290604052925050506116c3565b6116be84611ba7565b925050505b919050565b6000634906490660e01b7bffffffffffffffffffffffffffffffffffffffffffffffffffffffff1916827bffffffffffffffffffffffffffffffffffffffffffffffffffffffff19161480611722575061172182611c10565b5b9050919050565b60006002600083815260200190815260200160002060009054906101000a900473ffffffffffffffffffffffffffffffffffffffff169050919050565b808061179f5750600073ffffffffffffffffffffffffffffffffffffffff168273ffffffffffffffffffffffffffffffffffffffff1614155b156118d35760006117af8461107a565b9050600073ffffffffffffffffffffffffffffffffffffffff168373ffffffffffffffffffffffffffffffffffffffff161415801561181a57508273ffffffffffffffffffffffffffffffffffffffff168173ffffffffffffffffffffffffffffffffffffffff1614155b801561182d575061182b8184610e5f565b155b1561186f57826040517fa9fbf51f00000000000000000000000000000000000000000000000000000000815260040161186691906128e7565b60405180910390fd5b81156118d157838573ffffffffffffffffffffffffffffffffffffffff168273ffffffffffffffffffffffffffffffffffffffff167f8c5be1e5ebec7d5bd14f71427d1e84f3dd0314c0f7b2291e5b200ac8c7c3b92560405160405180910390a45b505b836004600085815260200190815260200160002060006101000a81548173ffffffffffffffffffffffffffffffffffffffff021916908373ffffffffffffffffffffffffffffffffffffffff16021790555050505050565b600080611939858585611cf2565b9050600073ffffffffffffffffffffffffffffffffffffffff168173ffffffffffffffffffffffffffffffffffffffff160361197d5761197884611f0c565b6119bc565b8473ffffffffffffffffffffffffffffffffffffffff168173ffffffffffffffffffffffffffffffffffffffff16146119bb576119ba8185611f55565b5b5b600073ffffffffffffffffffffffffffffffffffffffff168573ffffffffffffffffffffffffffffffffffffffff16036119fe576119f9846120b6565b611a3d565b8473ffffffffffffffffffffffffffffffffffffffff168173ffffffffffffffffffffffffffffffffffffffff1614611a3c57611a3b8585612187565b5b5b809150509392505050565b611a62828260405180602001604052806000815250612212565b5050565b606060006001611a758461222e565b01905060008167ffffffffffffffff811115611a9457611a93612ba8565b5b6040519080825280601f01601f191660200182016040528015611ac65781602001600182028036833780820191505090505b509050600082602001820190505b600115611b29578080600190039150507f3031323334353637383961626364656600000000000000000000000000000000600a86061a8153600a8581611b1d57611b1c613323565b5b04945060008503611ad4575b819350505050919050565b80600660008481526020019081526020016000209081611b5491906134fe565b507ff8e1a15aba9398e019f0b49df1a4fde98ee17ae345cb5f6b5e2c27f5033e8ce782604051611b84919061297d565b60405180910390a15050565b606060405180602001604052806000815250905090565b6060611bb28261107a565b506000611bbd611b90565b90506000815111611bdd5760405180602001604052806000815250611c08565b80611be784611a66565b604051602001611bf89291906132ff565b6040516020818303038152906040525b915050919050565b60007f80ac58cd000000000000000000000000000000000000000000000000000000007bffffffffffffffffffffffffffffffffffffffffffffffffffffffff1916827bffffffffffffffffffffffffffffffffffffffffffffffffffffffff19161480611cdb57507f5b5e139f000000000000000000000000000000000000000000000000000000007bffffffffffffffffffffffffffffffffffffffffffffffffffffffff1916827bffffffffffffffffffffffffffffffffffffffffffffffffffffffff1916145b80611ceb5750611cea82612381565b5b9050919050565b600080611cfe84611729565b9050600073ffffffffffffffffffffffffffffffffffffffff168373ffffffffffffffffffffffffffffffffffffffff1614611d4057611d3f8184866123eb565b5b600073ffffffffffffffffffffffffffffffffffffffff168173ffffffffffffffffffffffffffffffffffffffff1614611dd157611d82600085600080611766565b6001600360008373ffffffffffffffffffffffffffffffffffffffff1673ffffffffffffffffffffffffffffffffffffffff168152602001908152602001600020600082825403925050819055505b600073ffffffffffffffffffffffffffffffffffffffff168573ffffffffffffffffffffffffffffffffffffffff1614611e54576001600360008773ffffffffffffffffffffffffffffffffffffffff1673ffffffffffffffffffffffffffffffffffffffff168152602001908152602001600020600082825401925050819055505b846002600086815260200190815260200160002060006101000a81548173ffffffffffffffffffffffffffffffffffffffff021916908373ffffffffffffffffffffffffffffffffffffffff160217905550838573ffffffffffffffffffffffffffffffffffffffff168273ffffffffffffffffffffffffffffffffffffffff167fddf252ad1be2c89b69c2b068fc378daa952ba7f163c4a11628f55a4df523b3ef60405160405180910390a4809150509392505050565b600980549050600a600083815260200190815260200160002081905550600981908060018154018082558091505060019003906000526020600020016000909190919091505550565b6000611f6083610b00565b9050600060086000848152602001908152602001600020549050818114612045576000600760008673ffffffffffffffffffffffffffffffffffffffff1673ffffffffffffffffffffffffffffffffffffffff168152602001908152602001600020600084815260200190815260200160002054905080600760008773ffffffffffffffffffffffffffffffffffffffff1673ffffffffffffffffffffffffffffffffffffffff168152602001908152602001600020600084815260200190815260200160002081905550816008600083815260200190815260200160002081905550505b6008600084815260200190815260200160002060009055600760008573ffffffffffffffffffffffffffffffffffffffff1673ffffffffffffffffffffffffffffffffffffffff16815260200190815260200160002060008381526020019081526020016000206000905550505050565b600060016009805490506120ca91906135d0565b90506000600a60008481526020019081526020016000205490506000600983815481106120fa576120f9612e80565b5b90600052602060002001549050806009838154811061211c5761211b612e80565b5b906000526020600020018190555081600a600083815260200190815260200160002081905550600a600085815260200190815260200160002060009055600980548061216b5761216a613604565b5b6001900381819060005260206000200160009055905550505050565b6000600161219484610b00565b61219e91906135d0565b905081600760008573ffffffffffffffffffffffffffffffffffffffff1673ffffffffffffffffffffffffffffffffffffffff168152602001908152602001600020600083815260200190815260200160002081905550806008600084815260200190815260200160002081905550505050565b61221c83836124af565b61222960008484846113fe565b505050565b600080600090507a184f03e93ff9f4daa797ed6e38ed64bf6a1f010000000000000000831061228c577a184f03e93ff9f4daa797ed6e38ed64bf6a1f010000000000000000838161228257612281613323565b5b0492506040810190505b6d04ee2d6d415b85acef810000000083106122c9576d04ee2d6d415b85acef810000000083816122bf576122be613323565b5b0492506020810190505b662386f26fc1000083106122f857662386f26fc1000083816122ee576122ed613323565b5b0492506010810190505b6305f5e1008310612321576305f5e100838161231757612316613323565b5b0492506008810190505b612710831061234657612710838161233c5761233b613323565b5b0492506004810190505b60648310612369576064838161235f5761235e613323565b5b0492506002810190505b600a8310612378576001810190505b80915050919050565b60007f01ffc9a7000000000000000000000000000000000000000000000000000000007bffffffffffffffffffffffffffffffffffffffffffffffffffffffff1916827bffffffffffffffffffffffffffffffffffffffffffffffffffffffff1916149050919050565b6123f68383836125a8565b6124aa57600073ffffffffffffffffffffffffffffffffffffffff168373ffffffffffffffffffffffffffffffffffffffff160361246b57806040517f7e273289000000000000000000000000000000000000000000000000000000008152600401612462919061297d565b60405180910390fd5b81816040517f177e802f0000000000000000000000000000000000000000000000000000000081526004016124a1929190612e57565b60405180910390fd5b505050565b600073ffffffffffffffffffffffffffffffffffffffff168273ffffffffffffffffffffffffffffffffffffffff16036125215760006040517f64a0ae9200000000000000000000000000000000000000000000000000000000815260040161251891906128e7565b60405180910390fd5b600061252f83836000611159565b9050600073ffffffffffffffffffffffffffffffffffffffff168173ffffffffffffffffffffffffffffffffffffffff16146125a35760006040517f73c6ac6e00000000000000000000000000000000000000000000000000000000815260040161259a91906128e7565b60405180910390fd5b505050565b60008073ffffffffffffffffffffffffffffffffffffffff168373ffffffffffffffffffffffffffffffffffffffff161415801561266057508273ffffffffffffffffffffffffffffffffffffffff168473ffffffffffffffffffffffffffffffffffffffff16148061262157506126208484610e5f565b5b8061265f57508273ffffffffffffffffffffffffffffffffffffffff1661264783611102565b73ffffffffffffffffffffffffffffffffffffffff16145b5b90509392505050565b6000604051905090565b600080fd5b600080fd5b60007fffffffff0000000000000000000000000000000000000000000000000000000082169050919050565b6126b28161267d565b81146126bd57600080fd5b50565b6000813590506126cf816126a9565b92915050565b6000602082840312156126eb576126ea612673565b5b60006126f9848285016126c0565b91505092915050565b60008115159050919050565b61271781612702565b82525050565b6000602082019050612732600083018461270e565b92915050565b61274181612702565b811461274c57600080fd5b50565b60008135905061275e81612738565b92915050565b60006020828403121561277a57612779612673565b5b60006127888482850161274f565b91505092915050565b600081519050919050565b600082825260208201905092915050565b60005b838110156127cb5780820151818401526020810190506127b0565b60008484015250505050565b6000601f19601f8301169050919050565b60006127f382612791565b6127fd818561279c565b935061280d8185602086016127ad565b612816816127d7565b840191505092915050565b6000602082019050818103600083015261283b81846127e8565b905092915050565b6000819050919050565b61285681612843565b811461286157600080fd5b50565b6000813590506128738161284d565b92915050565b60006020828403121561288f5761288e612673565b5b600061289d84828501612864565b91505092915050565b600073ffffffffffffffffffffffffffffffffffffffff82169050919050565b60006128d1826128a6565b9050919050565b6128e1816128c6565b82525050565b60006020820190506128fc60008301846128d8565b92915050565b61290b816128c6565b811461291657600080fd5b50565b60008135905061292881612902565b92915050565b6000806040838503121561294557612944612673565b5b600061295385828601612919565b925050602061296485828601612864565b9150509250929050565b61297781612843565b82525050565b6000602082019050612992600083018461296e565b92915050565b6000806000606084860312156129b1576129b0612673565b5b60006129bf86828701612919565b93505060206129d086828701612919565b92505060406129e186828701612864565b9150509250925092565b600060208284031215612a0157612a00612673565b5b6000612a0f84828501612919565b91505092915050565b600081519050919050565b600082825260208201905092915050565b6000819050602082019050919050565b612a4d81612843565b82525050565b6000612a5f8383612a44565b60208301905092915050565b6000602082019050919050565b6000612a8382612a18565b612a8d8185612a23565b9350612a9883612a34565b8060005b83811015612ac9578151612ab08882612a53565b9750612abb83612a6b565b925050600181019050612a9c565b5085935050505092915050565b60006020820190508181036000830152612af08184612a78565b905092915050565b600060ff82169050919050565b612b0e81612af8565b8114612b1957600080fd5b50565b600081359050612b2b81612b05565b92915050565b600060208284031215612b4757612b46612673565b5b6000612b5584828501612b1c565b91505092915050565b60008060408385031215612b7557612b74612673565b5b6000612b8385828601612919565b9250506020612b948582860161274f565b9150509250929050565b600080fd5b600080fd5b7f4e487b7100000000000000000000000000000000000000000000000000000000600052604160045260246000fd5b612be0826127d7565b810181811067ffffffffffffffff82111715612bff57612bfe612ba8565b5b80604052505050565b6000612c12612669565b9050612c1e8282612bd7565b919050565b600067ffffffffffffffff821115612c3e57612c3d612ba8565b5b612c47826127d7565b9050602081019050919050565b82818337600083830152505050565b6000612c76612c7184612c23565b612c08565b905082815260208101848484011115612c9257612c91612ba3565b5b612c9d848285612c54565b509392505050565b600082601f830112612cba57612cb9612b9e565b5b8135612cca848260208601612c63565b91505092915050565b60008060008060808587031215612ced57612cec612673565b5b6000612cfb87828801612919565b9450506020612d0c87828801612919565b9350506040612d1d87828801612864565b925050606085013567ffffffffffffffff811115612d3e57612d3d612678565b5b612d4a87828801612ca5565b91505092959194509250565b612d5f81612af8565b82525050565b6000602082019050612d7a6000830184612d56565b92915050565b60008060408385031215612d9757612d96612673565b5b6000612da585828601612919565b9250506020612db685828601612919565b9150509250929050565b7f4e487b7100000000000000000000000000000000000000000000000000000000600052602260045260246000fd5b60006002820490506001821680612e0757607f821691505b602082108103612e1a57612e19612dc0565b5b50919050565b6000606082019050612e3560008301866128d8565b612e42602083018561296e565b612e4f60408301846128d8565b949350505050565b6000604082019050612e6c60008301856128d8565b612e79602083018461296e565b9392505050565b7f4e487b7100000000000000000000000000000000000000000000000000000000600052603260045260246000fd5b7f746865206d696e74696e6720686173206e6f742079657420626567756e000000600082015250565b6000612ee5601d8361279c565b9150612ef082612eaf565b602082019050919050565b60006020820190508181036000830152612f1481612ed8565b9050919050565b7f43616e206f6e6c79206d696e74203220746f6b656e7320617420612074696d65600082015250565b6000612f5160208361279c565b9150612f5c82612f1b565b602082019050919050565b60006020820190508181036000830152612f8081612f44565b9050919050565b7f4e487b7100000000000000000000000000000000000000000000000000000000600052601160045260246000fd5b6000612fc182612843565b9150612fcc83612843565b9250828202612fda81612843565b91508282048414831517612ff157612ff0612f87565b5b5092915050565b7f45746865722076616c75652073656e74206973206e6f7420636f727265637400600082015250565b600061302e601f8361279c565b915061303982612ff8565b602082019050919050565b6000602082019050818103600083015261305d81613021565b9050919050565b600061306f82612843565b915061307a83612843565b925082820190508082111561309257613091612f87565b5b92915050565b7f507572636861736520776f756c6420657863656564206d617820737570706c79600082015250565b60006130ce60208361279c565b91506130d982613098565b602082019050919050565b600060208201905081810360008301526130fd816130c1565b9050919050565b600061310f82612843565b91507fffffffffffffffffffffffffffffffffffffffffffffffffffffffffffffffff820361314157613140612f87565b5b600182019050919050565b600081905092915050565b7f697066733a2f2f516d5341396f5a73694877616a5572485a7a5456487465653960008201527f396870436f394250375a7252764e6943376b784e332f00000000000000000000602082015250565b60006131b360368361314c565b91506131be82613157565b603682019050919050565b60006131d482612791565b6131de818561314c565b93506131ee8185602086016127ad565b80840191505092915050565b6000613205826131a6565b915061321182846131c9565b915081905092915050565b600081519050919050565b600082825260208201905092915050565b60006132438261321c565b61324d8185613227565b935061325d8185602086016127ad565b613266816127d7565b840191505092915050565b600060808201905061328660008301876128d8565b61329360208301866128d8565b6132a0604083018561296e565b81810360608301526132b28184613238565b905095945050505050565b6000815190506132cc816126a9565b92915050565b6000602082840312156132e8576132e7612673565b5b60006132f6848285016132bd565b91505092915050565b600061330b82856131c9565b915061331782846131c9565b91508190509392505050565b7f4e487b7100000000000000000000000000000000000000000000000000000000600052601260045260246000fd5b60008190508160005260206000209050919050565b60006020601f8301049050919050565b600082821b905092915050565b6000600883026133b47fffffffffffffffffffffffffffffffffffffffffffffffffffffffffffffffff82613377565b6133be8683613377565b95508019841693508086168417925050509392505050565b6000819050919050565b60006133fb6133f66133f184612843565b6133d6565b612843565b9050919050565b6000819050919050565b613415836133e0565b61342961342182613402565b848454613384565b825550505050565b600090565b61343e613431565b61344981848461340c565b505050565b5b8181101561346d57613462600082613436565b60018101905061344f565b5050565b601f8211156134b25761348381613352565b61348c84613367565b8101602085101561349b578190505b6134af6134a785613367565b83018261344e565b50505b505050565b600082821c905092915050565b60006134d5600019846008026134b7565b1980831691505092915050565b60006134ee83836134c4565b9150826002028217905092915050565b61350782612791565b67ffffffffffffffff8111156135205761351f612ba8565b5b61352a8254612def565b613535828285613471565b600060209050601f8311600181146135685760008415613556578287015190505b61356085826134e2565b8655506135c8565b601f19841661357686613352565b60005b8281101561359e57848901518255600182019150602085019450602081019050613579565b868310156135bb57848901516135b7601f8916826134c4565b8355505b6001600288020188555050505b505050505050565b60006135db82612843565b91506135e683612843565b92508282039050818111156135fe576135fd612f87565b5b92915050565b7f4e487b7100000000000000000000000000000000000000000000000000000000600052603160045260246000fdfea2646970667358221220ae879f8a1a02fba9ef1d26ba8ef472382289eaef00603f607ace511e2b64c18964736f6c63430008180033",
  "linkReferences": {},
  "deployedLinkReferences": {}
}