{
  "_format": "hh-sol-artifact-1",
  "contractName": "CreateNft",
  "sourceName": "contracts/CreateNft.sol",
  "abi": [
    {
      "inputs": [
        {
          "internalType": "address",
          "name": "marketContract",
          "type": "address"
        }
      ],
      "stateMutability": "nonpayable",
      "type": "constructor"
    },
    {
      "inputs": [
        {
          "internalType": "address",
          "name": "sender",
          "type": "address"
        },
        {
          "internalType": "uint256",
          "name": "tokenId",
          "type": "uint256"
        },
        {
          "internalType": "address",
          "name": "owner",
          "type": "address"
        }
      ],
      "name": "ERC721IncorrectOwner",
      "type": "error"
    },
    {
      "inputs": [
        {
          "internalType": "address",
          "name": "operator",
          "type": "address"
        },
        {
          "internalType": "uint256",
          "name": "tokenId",
          "type": "uint256"
        }
      ],
      "name": "ERC721InsufficientApproval",
      "type": "error"
    },
    {
      "inputs": [
        {
          "internalType": "address",
          "name": "approver",
          "type": "address"
        }
      ],
      "name": "ERC721InvalidApprover",
      "type": "error"
    },
    {
      "inputs": [
        {
          "internalType": "address",
          "name": "operator",
          "type": "address"
        }
      ],
      "name": "ERC721InvalidOperator",
      "type": "error"
    },
    {
      "inputs": [
        {
          "internalType": "address",
          "name": "owner",
          "type": "address"
        }
      ],
      "name": "ERC721InvalidOwner",
      "type": "error"
    },
    {
      "inputs": [
        {
          "internalType": "address",
          "name": "receiver",
          "type": "address"
        }
      ],
      "name": "ERC721InvalidReceiver",
      "type": "error"
    },
    {
      "inputs": [
        {
          "internalType": "address",
          "name": "sender",
          "type": "address"
        }
      ],
      "name": "ERC721InvalidSender",
      "type": "error"
    },
    {
      "inputs": [
        {
          "internalType": "uint256",
          "name": "tokenId",
          "type": "uint256"
        }
      ],
      "name": "ERC721NonexistentToken",
      "type": "error"
    },
    {
      "inputs": [
        {
          "internalType": "address",
          "name": "owner",
          "type": "address"
        }
      ],
      "name": "OwnableInvalidOwner",
      "type": "error"
    },
    {
      "inputs": [
        {
          "internalType": "address",
          "name": "account",
          "type": "address"
        }
      ],
      "name": "OwnableUnauthorizedAccount",
      "type": "error"
    },
    {
      "anonymous": false,
      "inputs": [
        {
          "indexed": true,
          "internalType": "address",
          "name": "owner",
          "type": "address"
        },
        {
          "indexed": true,
          "internalType": "address",
          "name": "approved",
          "type": "address"
        },
        {
          "indexed": true,
          "internalType": "uint256",
          "name": "tokenId",
          "type": "uint256"
        }
      ],
      "name": "Approval",
      "type": "event"
    },
    {
      "anonymous": false,
      "inputs": [
        {
          "indexed": true,
          "internalType": "address",
          "name": "owner",
          "type": "address"
        },
        {
          "indexed": true,
          "internalType": "address",
          "name": "operator",
          "type": "address"
        },
        {
          "indexed": false,
          "internalType": "bool",
          "name": "approved",
          "type": "bool"
        }
      ],
      "name": "ApprovalForAll",
      "type": "event"
    },
    {
      "anonymous": false,
      "inputs": [
        {
          "indexed": false,
          "internalType": "uint256",
          "name": "_fromTokenId",
          "type": "uint256"
        },
        {
          "indexed": false,
          "internalType": "uint256",
          "name": "_toTokenId",
          "type": "uint256"
        }
      ],
      "name": "BatchMetadataUpdate",
      "type": "event"
    },
    {
      "anonymous": false,
      "inputs": [
        {
          "indexed": false,
          "internalType": "uint256",
          "name": "_tokenId",
          "type": "uint256"
        }
      ],
      "name": "MetadataUpdate",
      "type": "event"
    },
    {
      "anonymous": false,
      "inputs": [
        {
          "indexed": true,
          "internalType": "address",
          "name": "previousOwner",
          "type": "address"
        },
        {
          "indexed": true,
          "internalType": "address",
          "name": "newOwner",
          "type": "address"
        }
      ],
      "name": "OwnershipTransferred",
      "type": "event"
    },
    {
      "anonymous": false,
      "inputs": [
        {
          "indexed": true,
          "internalType": "address",
          "name": "from",
          "type": "address"
        },
        {
          "indexed": true,
          "internalType": "address",
          "name": "to",
          "type": "address"
        },
        {
          "indexed": true,
          "internalType": "uint256",
          "name": "tokenId",
          "type": "uint256"
        }
      ],
      "name": "Transfer",
      "type": "event"
    },
    {
      "inputs": [
        {
          "internalType": "address",
          "name": "to",
          "type": "address"
        },
        {
          "internalType": "uint256",
          "name": "tokenId",
          "type": "uint256"
        }
      ],
      "name": "approve",
      "outputs": [],
      "stateMutability": "nonpayable",
      "type": "function"
    },
    {
      "inputs": [
        {
          "internalType": "address",
          "name": "owner",
          "type": "address"
        }
      ],
      "name": "balanceOf",
      "outputs": [
        {
          "internalType": "uint256",
          "name": "",
          "type": "uint256"
        }
      ],
      "stateMutability": "view",
      "type": "function"
    },
    {
      "inputs": [],
      "name": "cost",
      "outputs": [
        {
          "internalType": "uint256",
          "name": "",
          "type": "uint256"
        }
      ],
      "stateMutability": "view",
      "type": "function"
    },
    {
      "inputs": [
        {
          "internalType": "string",
          "name": "tokenURI",
          "type": "string"
        }
      ],
      "name": "createNFT",
      "outputs": [
        {
          "internalType": "uint256",
          "name": "",
          "type": "uint256"
        }
      ],
      "stateMutability": "nonpayable",
      "type": "function"
    },
    {
      "inputs": [
        {
          "internalType": "uint256",
          "name": "tokenId",
          "type": "uint256"
        }
      ],
      "name": "getApproved",
      "outputs": [
        {
          "internalType": "address",
          "name": "",
          "type": "address"
        }
      ],
      "stateMutability": "view",
      "type": "function"
    },
    {
      "inputs": [],
      "name": "getTotalSupply",
      "outputs": [
        {
          "internalType": "uint256",
          "name": "",
          "type": "uint256"
        }
      ],
      "stateMutability": "view",
      "type": "function"
    },
    {
      "inputs": [
        {
          "internalType": "address",
          "name": "owner",
          "type": "address"
        },
        {
          "internalType": "address",
          "name": "operator",
          "type": "address"
        }
      ],
      "name": "isApprovedForAll",
      "outputs": [
        {
          "internalType": "bool",
          "name": "",
          "type": "bool"
        }
      ],
      "stateMutability": "view",
      "type": "function"
    },
    {
      "inputs": [
        {
          "internalType": "string",
          "name": "tokenURI",
          "type": "string"
        }
      ],
      "name": "mintNFT",
      "outputs": [
        {
          "internalType": "uint256",
          "name": "",
          "type": "uint256"
        }
      ],
      "stateMutability": "payable",
      "type": "function"
    },
    {
      "inputs": [],
      "name": "name",
      "outputs": [
        {
          "internalType": "string",
          "name": "",
          "type": "string"
        }
      ],
      "stateMutability": "view",
      "type": "function"
    },
    {
      "inputs": [],
      "name": "owner",
      "outputs": [
        {
          "internalType": "address",
          "name": "",
          "type": "address"
        }
      ],
      "stateMutability": "view",
      "type": "function"
    },
    {
      "inputs": [
        {
          "internalType": "uint256",
          "name": "tokenId",
          "type": "uint256"
        }
      ],
      "name": "ownerOf",
      "outputs": [
        {
          "internalType": "address",
          "name": "",
          "type": "address"
        }
      ],
      "stateMutability": "view",
      "type": "function"
    },
    {
      "inputs": [],
      "name": "renounceOwnership",
      "outputs": [],
      "stateMutability": "nonpayable",
      "type": "function"
    },
    {
      "inputs": [
        {
          "internalType": "address",
          "name": "from",
          "type": "address"
        },
        {
          "internalType": "address",
          "name": "to",
          "type": "address"
        },
        {
          "internalType": "uint256",
          "name": "tokenId",
          "type": "uint256"
        }
      ],
      "name": "safeTransferFrom",
      "outputs": [],
      "stateMutability": "nonpayable",
      "type": "function"
    },
    {
      "inputs": [
        {
          "internalType": "address",
          "name": "from",
          "type": "address"
        },
        {
          "internalType": "address",
          "name": "to",
          "type": "address"
        },
        {
          "internalType": "uint256",
          "name": "tokenId",
          "type": "uint256"
        },
        {
          "internalType": "bytes",
          "name": "data",
          "type": "bytes"
        }
      ],
      "name": "safeTransferFrom",
      "outputs": [],
      "stateMutability": "nonpayable",
      "type": "function"
    },
    {
      "inputs": [
        {
          "internalType": "address",
          "name": "operator",
          "type": "address"
        },
        {
          "internalType": "bool",
          "name": "approved",
          "type": "bool"
        }
      ],
      "name": "setApprovalForAll",
      "outputs": [],
      "stateMutability": "nonpayable",
      "type": "function"
    },
    {
      "inputs": [
        {
          "internalType": "bytes4",
          "name": "interfaceId",
          "type": "bytes4"
        }
      ],
      "name": "supportsInterface",
      "outputs": [
        {
          "internalType": "bool",
          "name": "",
          "type": "bool"
        }
      ],
      "stateMutability": "view",
      "type": "function"
    },
    {
      "inputs": [],
      "name": "symbol",
      "outputs": [
        {
          "internalType": "string",
          "name": "",
          "type": "string"
        }
      ],
      "stateMutability": "view",
      "type": "function"
    },
    {
      "inputs": [
        {
          "internalType": "uint256",
          "name": "tokenId",
          "type": "uint256"
        }
      ],
      "name": "tokenURI",
      "outputs": [
        {
          "internalType": "string",
          "name": "",
          "type": "string"
        }
      ],
      "stateMutability": "view",
      "type": "function"
    },
    {
      "inputs": [
        {
          "internalType": "address",
          "name": "from",
          "type": "address"
        },
        {
          "internalType": "address",
          "name": "to",
          "type": "address"
        },
        {
          "internalType": "uint256",
          "name": "tokenId",
          "type": "uint256"
        }
      ],
      "name": "transferFrom",
      "outputs": [],
      "stateMutability": "nonpayable",
      "type": "function"
    },
    {
      "inputs": [
        {
          "internalType": "address",
          "name": "newOwner",
          "type": "address"
        }
      ],
      "name": "transferOwnership",
      "outputs": [],
      "stateMutability": "nonpayable",
      "type": "function"
    },
    {
      "inputs": [],
      "name": "withDraw",
      "outputs": [],
      "stateMutability": "payable",
      "type": "function"
    }
  ],
  "bytecode": "0x6080604052661aa535d3d0c0006009553480156200001c57600080fd5b5060405162003111380380620031118339818101604052810190620000429190620002d4565b336040518060400160405280600a81526020017f5a686f754d61726b6574000000000000000000000000000000000000000000008152506040518060400160405280600481526020017f5a484f55000000000000000000000000000000000000000000000000000000008152508160009081620000c0919062000580565b508060019081620000d2919062000580565b505050600073ffffffffffffffffffffffffffffffffffffffff168173ffffffffffffffffffffffffffffffffffffffff16036200014a5760006040517f1e4fbdf700000000000000000000000000000000000000000000000000000000815260040162000141919062000678565b60405180910390fd5b6200015b81620001a460201b60201c565b5080600a60006101000a81548173ffffffffffffffffffffffffffffffffffffffff021916908373ffffffffffffffffffffffffffffffffffffffff1602179055505062000695565b6000600760009054906101000a900473ffffffffffffffffffffffffffffffffffffffff16905081600760006101000a81548173ffffffffffffffffffffffffffffffffffffffff021916908373ffffffffffffffffffffffffffffffffffffffff1602179055508173ffffffffffffffffffffffffffffffffffffffff168173ffffffffffffffffffffffffffffffffffffffff167f8be0079c531659141344cd1fd0a4f28419497f9722a3daafe3b4186f6b6457e060405160405180910390a35050565b600080fd5b600073ffffffffffffffffffffffffffffffffffffffff82169050919050565b60006200029c826200026f565b9050919050565b620002ae816200028f565b8114620002ba57600080fd5b50565b600081519050620002ce81620002a3565b92915050565b600060208284031215620002ed57620002ec6200026a565b5b6000620002fd84828501620002bd565b91505092915050565b600081519050919050565b7f4e487b7100000000000000000000000000000000000000000000000000000000600052604160045260246000fd5b7f4e487b7100000000000000000000000000000000000000000000000000000000600052602260045260246000fd5b600060028204905060018216806200038857607f821691505b6020821081036200039e576200039d62000340565b5b50919050565b60008190508160005260206000209050919050565b60006020601f8301049050919050565b600082821b905092915050565b600060088302620004087fffffffffffffffffffffffffffffffffffffffffffffffffffffffffffffffff82620003c9565b620004148683620003c9565b95508019841693508086168417925050509392505050565b6000819050919050565b6000819050919050565b6000620004616200045b62000455846200042c565b62000436565b6200042c565b9050919050565b6000819050919050565b6200047d8362000440565b620004956200048c8262000468565b848454620003d6565b825550505050565b600090565b620004ac6200049d565b620004b981848462000472565b505050565b5b81811015620004e157620004d5600082620004a2565b600181019050620004bf565b5050565b601f8211156200053057620004fa81620003a4565b6200050584620003b9565b8101602085101562000515578190505b6200052d6200052485620003b9565b830182620004be565b50505b505050565b600082821c905092915050565b6000620005556000198460080262000535565b1980831691505092915050565b600062000570838362000542565b9150826002028217905092915050565b6200058b8262000306565b67ffffffffffffffff811115620005a757620005a662000311565b5b620005b382546200036f565b620005c0828285620004e5565b600060209050601f831160018114620005f85760008415620005e3578287015190505b620005ef858262000562565b8655506200065f565b601f1984166200060886620003a4565b60005b8281101562000632578489015182556001820191506020850194506020810190506200060b565b868310156200065257848901516200064e601f89168262000542565b8355505b6001600288020188555050505b505050505050565b62000672816200028f565b82525050565b60006020820190506200068f600083018462000667565b92915050565b612a6c80620006a56000396000f3fe60806040526004361061012a5760003560e01c8063715018a6116100ab578063c4e41b221161006f578063c4e41b22146103bd578063c87b56dd146103e8578063da2ed03e14610425578063e985e9c514610462578063f2fde38b1461049f578063fb37e883146104c85761012a565b8063715018a6146102fe5780638da5cb5b1461031557806395d89b4114610340578063a22cb4651461036b578063b88d4fde146103945761012a565b806313faede6116100f257806313faede61461020757806323b872dd1461023257806342842e0e1461025b5780636352211e1461028457806370a08231146102c15761012a565b806301ffc9a71461012f57806306fdde031461016c578063081812fc14610197578063095ea7b3146101d45780630fdb1c10146101fd575b600080fd5b34801561013b57600080fd5b5061015660048036038101906101519190611db9565b6104f8565b6040516101639190611e01565b60405180910390f35b34801561017857600080fd5b50610181610559565b60405161018e9190611eac565b60405180910390f35b3480156101a357600080fd5b506101be60048036038101906101b99190611f04565b6105eb565b6040516101cb9190611f72565b60405180910390f35b3480156101e057600080fd5b506101fb60048036038101906101f69190611fb9565b610607565b005b61020561061d565b005b34801561021357600080fd5b5061021c6106d4565b6040516102299190612008565b60405180910390f35b34801561023e57600080fd5b5061025960048036038101906102549190612023565b6106da565b005b34801561026757600080fd5b50610282600480360381019061027d9190612023565b6107dc565b005b34801561029057600080fd5b506102ab60048036038101906102a69190611f04565b6107fc565b6040516102b89190611f72565b60405180910390f35b3480156102cd57600080fd5b506102e860048036038101906102e39190612076565b61080e565b6040516102f59190612008565b60405180910390f35b34801561030a57600080fd5b506103136108c8565b005b34801561032157600080fd5b5061032a6108dc565b6040516103379190611f72565b60405180910390f35b34801561034c57600080fd5b50610355610906565b6040516103629190611eac565b60405180910390f35b34801561037757600080fd5b50610392600480360381019061038d91906120cf565b610998565b005b3480156103a057600080fd5b506103bb60048036038101906103b69190612244565b6109ae565b005b3480156103c957600080fd5b506103d26109cb565b6040516103df9190612008565b60405180910390f35b3480156103f457600080fd5b5061040f600480360381019061040a9190611f04565b6109d5565b60405161041c9190611eac565b60405180910390f35b34801561043157600080fd5b5061044c60048036038101906104479190612368565b610ae8565b6040516104599190612008565b60405180910390f35b34801561046e57600080fd5b50610489600480360381019061048491906123b1565b610b51565b6040516104969190611e01565b60405180910390f35b3480156104ab57600080fd5b506104c660048036038101906104c19190612076565b610be5565b005b6104e260048036038101906104dd9190612368565b610c6b565b6040516104ef9190612008565b60405180910390f35b6000634906490660e01b7bffffffffffffffffffffffffffffffffffffffffffffffffffffffff1916827bffffffffffffffffffffffffffffffffffffffffffffffffffffffff19161480610552575061055182610d18565b5b9050919050565b60606000805461056890612420565b80601f016020809104026020016040519081016040528092919081815260200182805461059490612420565b80156105e15780601f106105b6576101008083540402835291602001916105e1565b820191906000526020600020905b8154815290600101906020018083116105c457829003601f168201915b5050505050905090565b60006105f682610dfa565b5061060082610e82565b9050919050565b6106198282610614610ebf565b610ec7565b5050565b610625610ed9565b60003373ffffffffffffffffffffffffffffffffffffffff164760405161064b90612482565b60006040518083038185875af1925050503d8060008114610688576040519150601f19603f3d011682016040523d82523d6000602084013e61068d565b606091505b50509050806106d1576040517f08c379a00000000000000000000000000000000000000000000000000000000081526004016106c8906124e3565b60405180910390fd5b50565b60095481565b600073ffffffffffffffffffffffffffffffffffffffff168273ffffffffffffffffffffffffffffffffffffffff160361074c5760006040517f64a0ae920000000000000000000000000000000000000000000000000000000081526004016107439190611f72565b60405180910390fd5b6000610760838361075b610ebf565b610f60565b90508373ffffffffffffffffffffffffffffffffffffffff168173ffffffffffffffffffffffffffffffffffffffff16146107d6578382826040517f64283d7b0000000000000000000000000000000000000000000000000000000081526004016107cd93929190612503565b60405180910390fd5b50505050565b6107f7838383604051806020016040528060008152506109ae565b505050565b600061080782610dfa565b9050919050565b60008073ffffffffffffffffffffffffffffffffffffffff168273ffffffffffffffffffffffffffffffffffffffff16036108815760006040517f89c62b640000000000000000000000000000000000000000000000000000000081526004016108789190611f72565b60405180910390fd5b600360008373ffffffffffffffffffffffffffffffffffffffff1673ffffffffffffffffffffffffffffffffffffffff168152602001908152602001600020549050919050565b6108d0610ed9565b6108da600061117a565b565b6000600760009054906101000a900473ffffffffffffffffffffffffffffffffffffffff16905090565b60606001805461091590612420565b80601f016020809104026020016040519081016040528092919081815260200182805461094190612420565b801561098e5780601f106109635761010080835404028352916020019161098e565b820191906000526020600020905b81548152906001019060200180831161097157829003601f168201915b5050505050905090565b6109aa6109a3610ebf565b8383611240565b5050565b6109b98484846106da565b6109c5848484846113af565b50505050565b6000600854905090565b60606109e082610dfa565b506000600660008481526020019081526020016000208054610a0190612420565b80601f0160208091040260200160405190810160405280929190818152602001828054610a2d90612420565b8015610a7a5780601f10610a4f57610100808354040283529160200191610a7a565b820191906000526020600020905b815481529060010190602001808311610a5d57829003601f168201915b505050505090506000610a8b611566565b90506000815103610aa0578192505050610ae3565b600082511115610ad5578082604051602001610abd929190612576565b60405160208183030381529060405292505050610ae3565b610ade8461157d565b925050505b919050565b600060086000815480929190610afd906125c9565b9190505550610b0e336008546115e6565b610b1a600854836116df565b610b47600a60009054906101000a900473ffffffffffffffffffffffffffffffffffffffff166001610998565b6008549050919050565b6000600560008473ffffffffffffffffffffffffffffffffffffffff1673ffffffffffffffffffffffffffffffffffffffff16815260200190815260200160002060008373ffffffffffffffffffffffffffffffffffffffff1673ffffffffffffffffffffffffffffffffffffffff16815260200190815260200160002060009054906101000a900460ff16905092915050565b610bed610ed9565b600073ffffffffffffffffffffffffffffffffffffffff168173ffffffffffffffffffffffffffffffffffffffff1603610c5f5760006040517f1e4fbdf7000000000000000000000000000000000000000000000000000000008152600401610c569190611f72565b60405180910390fd5b610c688161117a565b50565b60006009543414610cb1576040517f08c379a0000000000000000000000000000000000000000000000000000000008152600401610ca89061265d565b60405180910390fd5b60086000815480929190610cc4906125c9565b9190505550610cd5336008546115e6565b610ce1600854836116df565b610d0e600a60009054906101000a900473ffffffffffffffffffffffffffffffffffffffff166001610998565b6008549050919050565b60007f80ac58cd000000000000000000000000000000000000000000000000000000007bffffffffffffffffffffffffffffffffffffffffffffffffffffffff1916827bffffffffffffffffffffffffffffffffffffffffffffffffffffffff19161480610de357507f5b5e139f000000000000000000000000000000000000000000000000000000007bffffffffffffffffffffffffffffffffffffffffffffffffffffffff1916827bffffffffffffffffffffffffffffffffffffffffffffffffffffffff1916145b80610df35750610df28261173b565b5b9050919050565b600080610e06836117a5565b9050600073ffffffffffffffffffffffffffffffffffffffff168173ffffffffffffffffffffffffffffffffffffffff1603610e7957826040517f7e273289000000000000000000000000000000000000000000000000000000008152600401610e709190612008565b60405180910390fd5b80915050919050565b60006004600083815260200190815260200160002060009054906101000a900473ffffffffffffffffffffffffffffffffffffffff169050919050565b600033905090565b610ed483838360016117e2565b505050565b610ee1610ebf565b73ffffffffffffffffffffffffffffffffffffffff16610eff6108dc565b73ffffffffffffffffffffffffffffffffffffffff1614610f5e57610f22610ebf565b6040517f118cdaa7000000000000000000000000000000000000000000000000000000008152600401610f559190611f72565b60405180910390fd5b565b600080610f6c846117a5565b9050600073ffffffffffffffffffffffffffffffffffffffff168373ffffffffffffffffffffffffffffffffffffffff1614610fae57610fad8184866119a7565b5b600073ffffffffffffffffffffffffffffffffffffffff168173ffffffffffffffffffffffffffffffffffffffff161461103f57610ff06000856000806117e2565b6001600360008373ffffffffffffffffffffffffffffffffffffffff1673ffffffffffffffffffffffffffffffffffffffff168152602001908152602001600020600082825403925050819055505b600073ffffffffffffffffffffffffffffffffffffffff168573ffffffffffffffffffffffffffffffffffffffff16146110c2576001600360008773ffffffffffffffffffffffffffffffffffffffff1673ffffffffffffffffffffffffffffffffffffffff168152602001908152602001600020600082825401925050819055505b846002600086815260200190815260200160002060006101000a81548173ffffffffffffffffffffffffffffffffffffffff021916908373ffffffffffffffffffffffffffffffffffffffff160217905550838573ffffffffffffffffffffffffffffffffffffffff168273ffffffffffffffffffffffffffffffffffffffff167fddf252ad1be2c89b69c2b068fc378daa952ba7f163c4a11628f55a4df523b3ef60405160405180910390a4809150509392505050565b6000600760009054906101000a900473ffffffffffffffffffffffffffffffffffffffff16905081600760006101000a81548173ffffffffffffffffffffffffffffffffffffffff021916908373ffffffffffffffffffffffffffffffffffffffff1602179055508173ffffffffffffffffffffffffffffffffffffffff168173ffffffffffffffffffffffffffffffffffffffff167f8be0079c531659141344cd1fd0a4f28419497f9722a3daafe3b4186f6b6457e060405160405180910390a35050565b600073ffffffffffffffffffffffffffffffffffffffff168273ffffffffffffffffffffffffffffffffffffffff16036112b157816040517f5b08ba180000000000000000000000000000000000000000000000000000000081526004016112a89190611f72565b60405180910390fd5b80600560008573ffffffffffffffffffffffffffffffffffffffff1673ffffffffffffffffffffffffffffffffffffffff16815260200190815260200160002060008473ffffffffffffffffffffffffffffffffffffffff1673ffffffffffffffffffffffffffffffffffffffff16815260200190815260200160002060006101000a81548160ff0219169083151502179055508173ffffffffffffffffffffffffffffffffffffffff168373ffffffffffffffffffffffffffffffffffffffff167f17307eab39ab6107e8899845ad3d59bd9653f200f220920489ca2b5937696c31836040516113a29190611e01565b60405180910390a3505050565b60008373ffffffffffffffffffffffffffffffffffffffff163b1115611560578273ffffffffffffffffffffffffffffffffffffffff1663150b7a026113f3610ebf565b8685856040518563ffffffff1660e01b815260040161141594939291906126d2565b6020604051808303816000875af192505050801561145157506040513d601f19601f8201168201806040525081019061144e9190612733565b60015b6114d5573d8060008114611481576040519150601f19603f3d011682016040523d82523d6000602084013e611486565b606091505b5060008151036114cd57836040517f64a0ae920000000000000000000000000000000000000000000000000000000081526004016114c49190611f72565b60405180910390fd5b805181602001fd5b63150b7a0260e01b7bffffffffffffffffffffffffffffffffffffffffffffffffffffffff1916817bffffffffffffffffffffffffffffffffffffffffffffffffffffffff19161461155e57836040517f64a0ae920000000000000000000000000000000000000000000000000000000081526004016115559190611f72565b60405180910390fd5b505b50505050565b606060405180602001604052806000815250905090565b606061158882610dfa565b506000611593611566565b905060008151116115b357604051806020016040528060008152506115de565b806115bd84611a6b565b6040516020016115ce929190612576565b6040516020818303038152906040525b915050919050565b600073ffffffffffffffffffffffffffffffffffffffff168273ffffffffffffffffffffffffffffffffffffffff16036116585760006040517f64a0ae9200000000000000000000000000000000000000000000000000000000815260040161164f9190611f72565b60405180910390fd5b600061166683836000610f60565b9050600073ffffffffffffffffffffffffffffffffffffffff168173ffffffffffffffffffffffffffffffffffffffff16146116da5760006040517f73c6ac6e0000000000000000000000000000000000000000000000000000000081526004016116d19190611f72565b60405180910390fd5b505050565b806006600084815260200190815260200160002090816116ff919061290c565b507ff8e1a15aba9398e019f0b49df1a4fde98ee17ae345cb5f6b5e2c27f5033e8ce78260405161172f9190612008565b60405180910390a15050565b60007f01ffc9a7000000000000000000000000000000000000000000000000000000007bffffffffffffffffffffffffffffffffffffffffffffffffffffffff1916827bffffffffffffffffffffffffffffffffffffffffffffffffffffffff1916149050919050565b60006002600083815260200190815260200160002060009054906101000a900473ffffffffffffffffffffffffffffffffffffffff169050919050565b808061181b5750600073ffffffffffffffffffffffffffffffffffffffff168273ffffffffffffffffffffffffffffffffffffffff1614155b1561194f57600061182b84610dfa565b9050600073ffffffffffffffffffffffffffffffffffffffff168373ffffffffffffffffffffffffffffffffffffffff161415801561189657508273ffffffffffffffffffffffffffffffffffffffff168173ffffffffffffffffffffffffffffffffffffffff1614155b80156118a957506118a78184610b51565b155b156118eb57826040517fa9fbf51f0000000000000000000000000000000000000000000000000000000081526004016118e29190611f72565b60405180910390fd5b811561194d57838573ffffffffffffffffffffffffffffffffffffffff168273ffffffffffffffffffffffffffffffffffffffff167f8c5be1e5ebec7d5bd14f71427d1e84f3dd0314c0f7b2291e5b200ac8c7c3b92560405160405180910390a45b505b836004600085815260200190815260200160002060006101000a81548173ffffffffffffffffffffffffffffffffffffffff021916908373ffffffffffffffffffffffffffffffffffffffff16021790555050505050565b6119b2838383611b39565b611a6657600073ffffffffffffffffffffffffffffffffffffffff168373ffffffffffffffffffffffffffffffffffffffff1603611a2757806040517f7e273289000000000000000000000000000000000000000000000000000000008152600401611a1e9190612008565b60405180910390fd5b81816040517f177e802f000000000000000000000000000000000000000000000000000000008152600401611a5d9291906129de565b60405180910390fd5b505050565b606060006001611a7a84611bfa565b01905060008167ffffffffffffffff811115611a9957611a98612119565b5b6040519080825280601f01601f191660200182016040528015611acb5781602001600182028036833780820191505090505b509050600082602001820190505b600115611b2e578080600190039150507f3031323334353637383961626364656600000000000000000000000000000000600a86061a8153600a8581611b2257611b21612a07565b5b04945060008503611ad9575b819350505050919050565b60008073ffffffffffffffffffffffffffffffffffffffff168373ffffffffffffffffffffffffffffffffffffffff1614158015611bf157508273ffffffffffffffffffffffffffffffffffffffff168473ffffffffffffffffffffffffffffffffffffffff161480611bb25750611bb18484610b51565b5b80611bf057508273ffffffffffffffffffffffffffffffffffffffff16611bd883610e82565b73ffffffffffffffffffffffffffffffffffffffff16145b5b90509392505050565b600080600090507a184f03e93ff9f4daa797ed6e38ed64bf6a1f0100000000000000008310611c58577a184f03e93ff9f4daa797ed6e38ed64bf6a1f0100000000000000008381611c4e57611c4d612a07565b5b0492506040810190505b6d04ee2d6d415b85acef81000000008310611c95576d04ee2d6d415b85acef81000000008381611c8b57611c8a612a07565b5b0492506020810190505b662386f26fc100008310611cc457662386f26fc100008381611cba57611cb9612a07565b5b0492506010810190505b6305f5e1008310611ced576305f5e1008381611ce357611ce2612a07565b5b0492506008810190505b6127108310611d12576127108381611d0857611d07612a07565b5b0492506004810190505b60648310611d355760648381611d2b57611d2a612a07565b5b0492506002810190505b600a8310611d44576001810190505b80915050919050565b6000604051905090565b600080fd5b600080fd5b60007fffffffff0000000000000000000000000000000000000000000000000000000082169050919050565b611d9681611d61565b8114611da157600080fd5b50565b600081359050611db381611d8d565b92915050565b600060208284031215611dcf57611dce611d57565b5b6000611ddd84828501611da4565b91505092915050565b60008115159050919050565b611dfb81611de6565b82525050565b6000602082019050611e166000830184611df2565b92915050565b600081519050919050565b600082825260208201905092915050565b60005b83811015611e56578082015181840152602081019050611e3b565b60008484015250505050565b6000601f19601f8301169050919050565b6000611e7e82611e1c565b611e888185611e27565b9350611e98818560208601611e38565b611ea181611e62565b840191505092915050565b60006020820190508181036000830152611ec68184611e73565b905092915050565b6000819050919050565b611ee181611ece565b8114611eec57600080fd5b50565b600081359050611efe81611ed8565b92915050565b600060208284031215611f1a57611f19611d57565b5b6000611f2884828501611eef565b91505092915050565b600073ffffffffffffffffffffffffffffffffffffffff82169050919050565b6000611f5c82611f31565b9050919050565b611f6c81611f51565b82525050565b6000602082019050611f876000830184611f63565b92915050565b611f9681611f51565b8114611fa157600080fd5b50565b600081359050611fb381611f8d565b92915050565b60008060408385031215611fd057611fcf611d57565b5b6000611fde85828601611fa4565b9250506020611fef85828601611eef565b9150509250929050565b61200281611ece565b82525050565b600060208201905061201d6000830184611ff9565b92915050565b60008060006060848603121561203c5761203b611d57565b5b600061204a86828701611fa4565b935050602061205b86828701611fa4565b925050604061206c86828701611eef565b9150509250925092565b60006020828403121561208c5761208b611d57565b5b600061209a84828501611fa4565b91505092915050565b6120ac81611de6565b81146120b757600080fd5b50565b6000813590506120c9816120a3565b92915050565b600080604083850312156120e6576120e5611d57565b5b60006120f485828601611fa4565b9250506020612105858286016120ba565b9150509250929050565b600080fd5b600080fd5b7f4e487b7100000000000000000000000000000000000000000000000000000000600052604160045260246000fd5b61215182611e62565b810181811067ffffffffffffffff821117156121705761216f612119565b5b80604052505050565b6000612183611d4d565b905061218f8282612148565b919050565b600067ffffffffffffffff8211156121af576121ae612119565b5b6121b882611e62565b9050602081019050919050565b82818337600083830152505050565b60006121e76121e284612194565b612179565b90508281526020810184848401111561220357612202612114565b5b61220e8482856121c5565b509392505050565b600082601f83011261222b5761222a61210f565b5b813561223b8482602086016121d4565b91505092915050565b6000806000806080858703121561225e5761225d611d57565b5b600061226c87828801611fa4565b945050602061227d87828801611fa4565b935050604061228e87828801611eef565b925050606085013567ffffffffffffffff8111156122af576122ae611d5c565b5b6122bb87828801612216565b91505092959194509250565b600067ffffffffffffffff8211156122e2576122e1612119565b5b6122eb82611e62565b9050602081019050919050565b600061230b612306846122c7565b612179565b90508281526020810184848401111561232757612326612114565b5b6123328482856121c5565b509392505050565b600082601f83011261234f5761234e61210f565b5b813561235f8482602086016122f8565b91505092915050565b60006020828403121561237e5761237d611d57565b5b600082013567ffffffffffffffff81111561239c5761239b611d5c565b5b6123a88482850161233a565b91505092915050565b600080604083850312156123c8576123c7611d57565b5b60006123d685828601611fa4565b92505060206123e785828601611fa4565b9150509250929050565b7f4e487b7100000000000000000000000000000000000000000000000000000000600052602260045260246000fd5b6000600282049050600182168061243857607f821691505b60208210810361244b5761244a6123f1565b5b50919050565b600081905092915050565b50565b600061246c600083612451565b91506124778261245c565b600082019050919050565b600061248d8261245f565b9150819050919050565b7f7769746844726177206661696c65640000000000000000000000000000000000600082015250565b60006124cd600f83611e27565b91506124d882612497565b602082019050919050565b600060208201905081810360008301526124fc816124c0565b9050919050565b60006060820190506125186000830186611f63565b6125256020830185611ff9565b6125326040830184611f63565b949350505050565b600081905092915050565b600061255082611e1c565b61255a818561253a565b935061256a818560208601611e38565b80840191505092915050565b60006125828285612545565b915061258e8284612545565b91508190509392505050565b7f4e487b7100000000000000000000000000000000000000000000000000000000600052601160045260246000fd5b60006125d482611ece565b91507fffffffffffffffffffffffffffffffffffffffffffffffffffffffffffffffff82036126065761260561259a565b5b600182019050919050565b7f6d696e67206e6674206e65656420302e30303735204554480000000000000000600082015250565b6000612647601883611e27565b915061265282612611565b602082019050919050565b600060208201905081810360008301526126768161263a565b9050919050565b600081519050919050565b600082825260208201905092915050565b60006126a48261267d565b6126ae8185612688565b93506126be818560208601611e38565b6126c781611e62565b840191505092915050565b60006080820190506126e76000830187611f63565b6126f46020830186611f63565b6127016040830185611ff9565b81810360608301526127138184612699565b905095945050505050565b60008151905061272d81611d8d565b92915050565b60006020828403121561274957612748611d57565b5b60006127578482850161271e565b91505092915050565b60008190508160005260206000209050919050565b60006020601f8301049050919050565b600082821b905092915050565b6000600883026127c27fffffffffffffffffffffffffffffffffffffffffffffffffffffffffffffffff82612785565b6127cc8683612785565b95508019841693508086168417925050509392505050565b6000819050919050565b60006128096128046127ff84611ece565b6127e4565b611ece565b9050919050565b6000819050919050565b612823836127ee565b61283761282f82612810565b848454612792565b825550505050565b600090565b61284c61283f565b61285781848461281a565b505050565b5b8181101561287b57612870600082612844565b60018101905061285d565b5050565b601f8211156128c05761289181612760565b61289a84612775565b810160208510156128a9578190505b6128bd6128b585612775565b83018261285c565b50505b505050565b600082821c905092915050565b60006128e3600019846008026128c5565b1980831691505092915050565b60006128fc83836128d2565b9150826002028217905092915050565b61291582611e1c565b67ffffffffffffffff81111561292e5761292d612119565b5b6129388254612420565b61294382828561287f565b600060209050601f8311600181146129765760008415612964578287015190505b61296e85826128f0565b8655506129d6565b601f19841661298486612760565b60005b828110156129ac57848901518255600182019150602085019450602081019050612987565b868310156129c957848901516129c5601f8916826128d2565b8355505b6001600288020188555050505b505050505050565b60006040820190506129f36000830185611f63565b612a006020830184611ff9565b9392505050565b7f4e487b7100000000000000000000000000000000000000000000000000000000600052601260045260246000fdfea2646970667358221220e0042fc8f9309562273e89a353c79e5ec909943b7141d3f024f0390a9e69565564736f6c63430008180033",
  "linkReferences": {},
  "deployedLinkReferences": {}
}