{
  "_format": "hh-sol-artifact-1",
  "contractName": "MarketToken",
  "sourceName": "contracts/MarketToken.sol",
  "abi": [
    {
      "inputs": [],
      "stateMutability": "nonpayable",
      "type": "constructor"
    },
    {
      "inputs": [],
      "name": "ECDSAInvalidSignature",
      "type": "error"
    },
    {
      "inputs": [
        {
          "internalType": "uint256",
          "name": "length",
          "type": "uint256"
        }
      ],
      "name": "ECDSAInvalidSignatureLength",
      "type": "error"
    },
    {
      "inputs": [
        {
          "internalType": "bytes32",
          "name": "s",
          "type": "bytes32"
        }
      ],
      "name": "ECDSAInvalidSignatureS",
      "type": "error"
    },
    {
      "inputs": [
        {
          "internalType": "address",
          "name": "spender",
          "type": "address"
        },
        {
          "internalType": "uint256",
          "name": "allowance",
          "type": "uint256"
        },
        {
          "internalType": "uint256",
          "name": "needed",
          "type": "uint256"
        }
      ],
      "name": "ERC20InsufficientAllowance",
      "type": "error"
    },
    {
      "inputs": [
        {
          "internalType": "address",
          "name": "sender",
          "type": "address"
        },
        {
          "internalType": "uint256",
          "name": "balance",
          "type": "uint256"
        },
        {
          "internalType": "uint256",
          "name": "needed",
          "type": "uint256"
        }
      ],
      "name": "ERC20InsufficientBalance",
      "type": "error"
    },
    {
      "inputs": [
        {
          "internalType": "address",
          "name": "approver",
          "type": "address"
        }
      ],
      "name": "ERC20InvalidApprover",
      "type": "error"
    },
    {
      "inputs": [
        {
          "internalType": "address",
          "name": "receiver",
          "type": "address"
        }
      ],
      "name": "ERC20InvalidReceiver",
      "type": "error"
    },
    {
      "inputs": [
        {
          "internalType": "address",
          "name": "sender",
          "type": "address"
        }
      ],
      "name": "ERC20InvalidSender",
      "type": "error"
    },
    {
      "inputs": [
        {
          "internalType": "address",
          "name": "spender",
          "type": "address"
        }
      ],
      "name": "ERC20InvalidSpender",
      "type": "error"
    },
    {
      "inputs": [
        {
          "internalType": "uint256",
          "name": "deadline",
          "type": "uint256"
        }
      ],
      "name": "ERC2612ExpiredSignature",
      "type": "error"
    },
    {
      "inputs": [
        {
          "internalType": "address",
          "name": "signer",
          "type": "address"
        },
        {
          "internalType": "address",
          "name": "owner",
          "type": "address"
        }
      ],
      "name": "ERC2612InvalidSigner",
      "type": "error"
    },
    {
      "inputs": [],
      "name": "EnforcedPause",
      "type": "error"
    },
    {
      "inputs": [],
      "name": "ExpectedPause",
      "type": "error"
    },
    {
      "inputs": [
        {
          "internalType": "address",
          "name": "account",
          "type": "address"
        },
        {
          "internalType": "uint256",
          "name": "currentNonce",
          "type": "uint256"
        }
      ],
      "name": "InvalidAccountNonce",
      "type": "error"
    },
    {
      "inputs": [],
      "name": "InvalidShortString",
      "type": "error"
    },
    {
      "inputs": [
        {
          "internalType": "address",
          "name": "owner",
          "type": "address"
        }
      ],
      "name": "OwnableInvalidOwner",
      "type": "error"
    },
    {
      "inputs": [
        {
          "internalType": "address",
          "name": "account",
          "type": "address"
        }
      ],
      "name": "OwnableUnauthorizedAccount",
      "type": "error"
    },
    {
      "inputs": [
        {
          "internalType": "string",
          "name": "str",
          "type": "string"
        }
      ],
      "name": "StringTooLong",
      "type": "error"
    },
    {
      "anonymous": false,
      "inputs": [
        {
          "indexed": true,
          "internalType": "address",
          "name": "owner",
          "type": "address"
        },
        {
          "indexed": true,
          "internalType": "address",
          "name": "spender",
          "type": "address"
        },
        {
          "indexed": false,
          "internalType": "uint256",
          "name": "value",
          "type": "uint256"
        }
      ],
      "name": "Approval",
      "type": "event"
    },
    {
      "anonymous": false,
      "inputs": [],
      "name": "EIP712DomainChanged",
      "type": "event"
    },
    {
      "anonymous": false,
      "inputs": [
        {
          "indexed": true,
          "internalType": "address",
          "name": "previousOwner",
          "type": "address"
        },
        {
          "indexed": true,
          "internalType": "address",
          "name": "newOwner",
          "type": "address"
        }
      ],
      "name": "OwnershipTransferred",
      "type": "event"
    },
    {
      "anonymous": false,
      "inputs": [
        {
          "indexed": false,
          "internalType": "address",
          "name": "account",
          "type": "address"
        }
      ],
      "name": "Paused",
      "type": "event"
    },
    {
      "anonymous": false,
      "inputs": [
        {
          "indexed": true,
          "internalType": "address",
          "name": "from",
          "type": "address"
        },
        {
          "indexed": true,
          "internalType": "address",
          "name": "to",
          "type": "address"
        },
        {
          "indexed": false,
          "internalType": "uint256",
          "name": "value",
          "type": "uint256"
        }
      ],
      "name": "Transfer",
      "type": "event"
    },
    {
      "anonymous": false,
      "inputs": [
        {
          "indexed": false,
          "internalType": "address",
          "name": "account",
          "type": "address"
        }
      ],
      "name": "Unpaused",
      "type": "event"
    },
    {
      "inputs": [],
      "name": "DOMAIN_SEPARATOR",
      "outputs": [
        {
          "internalType": "bytes32",
          "name": "",
          "type": "bytes32"
        }
      ],
      "stateMutability": "view",
      "type": "function"
    },
    {
      "inputs": [
        {
          "internalType": "address",
          "name": "controller",
          "type": "address"
        }
      ],
      "name": "addController",
      "outputs": [],
      "stateMutability": "nonpayable",
      "type": "function"
    },
    {
      "inputs": [
        {
          "internalType": "address",
          "name": "owner",
          "type": "address"
        },
        {
          "internalType": "address",
          "name": "spender",
          "type": "address"
        }
      ],
      "name": "allowance",
      "outputs": [
        {
          "internalType": "uint256",
          "name": "",
          "type": "uint256"
        }
      ],
      "stateMutability": "view",
      "type": "function"
    },
    {
      "inputs": [
        {
          "internalType": "address",
          "name": "spender",
          "type": "address"
        },
        {
          "internalType": "uint256",
          "name": "value",
          "type": "uint256"
        }
      ],
      "name": "approve",
      "outputs": [
        {
          "internalType": "bool",
          "name": "",
          "type": "bool"
        }
      ],
      "stateMutability": "nonpayable",
      "type": "function"
    },
    {
      "inputs": [
        {
          "internalType": "address",
          "name": "account",
          "type": "address"
        }
      ],
      "name": "balanceOf",
      "outputs": [
        {
          "internalType": "uint256",
          "name": "",
          "type": "uint256"
        }
      ],
      "stateMutability": "view",
      "type": "function"
    },
    {
      "inputs": [
        {
          "internalType": "uint256",
          "name": "value",
          "type": "uint256"
        }
      ],
      "name": "burn",
      "outputs": [],
      "stateMutability": "nonpayable",
      "type": "function"
    },
    {
      "inputs": [
        {
          "internalType": "address",
          "name": "account",
          "type": "address"
        },
        {
          "internalType": "uint256",
          "name": "value",
          "type": "uint256"
        }
      ],
      "name": "burnFrom",
      "outputs": [],
      "stateMutability": "nonpayable",
      "type": "function"
    },
    {
      "inputs": [],
      "name": "decimals",
      "outputs": [
        {
          "internalType": "uint8",
          "name": "",
          "type": "uint8"
        }
      ],
      "stateMutability": "view",
      "type": "function"
    },
    {
      "inputs": [],
      "name": "eip712Domain",
      "outputs": [
        {
          "internalType": "bytes1",
          "name": "fields",
          "type": "bytes1"
        },
        {
          "internalType": "string",
          "name": "name",
          "type": "string"
        },
        {
          "internalType": "string",
          "name": "version",
          "type": "string"
        },
        {
          "internalType": "uint256",
          "name": "chainId",
          "type": "uint256"
        },
        {
          "internalType": "address",
          "name": "verifyingContract",
          "type": "address"
        },
        {
          "internalType": "bytes32",
          "name": "salt",
          "type": "bytes32"
        },
        {
          "internalType": "uint256[]",
          "name": "extensions",
          "type": "uint256[]"
        }
      ],
      "stateMutability": "view",
      "type": "function"
    },
    {
      "inputs": [],
      "name": "maxSupply",
      "outputs": [
        {
          "internalType": "uint256",
          "name": "",
          "type": "uint256"
        }
      ],
      "stateMutability": "pure",
      "type": "function"
    },
    {
      "inputs": [
        {
          "internalType": "address",
          "name": "to",
          "type": "address"
        },
        {
          "internalType": "uint256",
          "name": "amount",
          "type": "uint256"
        }
      ],
      "name": "mint",
      "outputs": [],
      "stateMutability": "nonpayable",
      "type": "function"
    },
    {
      "inputs": [],
      "name": "name",
      "outputs": [
        {
          "internalType": "string",
          "name": "",
          "type": "string"
        }
      ],
      "stateMutability": "view",
      "type": "function"
    },
    {
      "inputs": [
        {
          "internalType": "address",
          "name": "owner",
          "type": "address"
        }
      ],
      "name": "nonces",
      "outputs": [
        {
          "internalType": "uint256",
          "name": "",
          "type": "uint256"
        }
      ],
      "stateMutability": "view",
      "type": "function"
    },
    {
      "inputs": [],
      "name": "owner",
      "outputs": [
        {
          "internalType": "address",
          "name": "",
          "type": "address"
        }
      ],
      "stateMutability": "view",
      "type": "function"
    },
    {
      "inputs": [],
      "name": "pause",
      "outputs": [],
      "stateMutability": "nonpayable",
      "type": "function"
    },
    {
      "inputs": [],
      "name": "paused",
      "outputs": [
        {
          "internalType": "bool",
          "name": "",
          "type": "bool"
        }
      ],
      "stateMutability": "view",
      "type": "function"
    },
    {
      "inputs": [
        {
          "internalType": "address",
          "name": "owner",
          "type": "address"
        },
        {
          "internalType": "address",
          "name": "spender",
          "type": "address"
        },
        {
          "internalType": "uint256",
          "name": "value",
          "type": "uint256"
        },
        {
          "internalType": "uint256",
          "name": "deadline",
          "type": "uint256"
        },
        {
          "internalType": "uint8",
          "name": "v",
          "type": "uint8"
        },
        {
          "internalType": "bytes32",
          "name": "r",
          "type": "bytes32"
        },
        {
          "internalType": "bytes32",
          "name": "s",
          "type": "bytes32"
        }
      ],
      "name": "permit",
      "outputs": [],
      "stateMutability": "nonpayable",
      "type": "function"
    },
    {
      "inputs": [
        {
          "internalType": "address",
          "name": "controller",
          "type": "address"
        }
      ],
      "name": "removeController",
      "outputs": [],
      "stateMutability": "nonpayable",
      "type": "function"
    },
    {
      "inputs": [],
      "name": "renounceOwnership",
      "outputs": [],
      "stateMutability": "nonpayable",
      "type": "function"
    },
    {
      "inputs": [],
      "name": "symbol",
      "outputs": [
        {
          "internalType": "string",
          "name": "",
          "type": "string"
        }
      ],
      "stateMutability": "view",
      "type": "function"
    },
    {
      "inputs": [],
      "name": "totalSupply",
      "outputs": [
        {
          "internalType": "uint256",
          "name": "",
          "type": "uint256"
        }
      ],
      "stateMutability": "view",
      "type": "function"
    },
    {
      "inputs": [
        {
          "internalType": "address",
          "name": "to",
          "type": "address"
        },
        {
          "internalType": "uint256",
          "name": "value",
          "type": "uint256"
        }
      ],
      "name": "transfer",
      "outputs": [
        {
          "internalType": "bool",
          "name": "",
          "type": "bool"
        }
      ],
      "stateMutability": "nonpayable",
      "type": "function"
    },
    {
      "inputs": [
        {
          "internalType": "address",
          "name": "from",
          "type": "address"
        },
        {
          "internalType": "address",
          "name": "to",
          "type": "address"
        },
        {
          "internalType": "uint256",
          "name": "value",
          "type": "uint256"
        }
      ],
      "name": "transferFrom",
      "outputs": [
        {
          "internalType": "bool",
          "name": "",
          "type": "bool"
        }
      ],
      "stateMutability": "nonpayable",
      "type": "function"
    },
    {
      "inputs": [
        {
          "internalType": "address",
          "name": "newOwner",
          "type": "address"
        }
      ],
      "name": "transferOwnership",
      "outputs": [],
      "stateMutability": "nonpayable",
      "type": "function"
    },
    {
      "inputs": [],
      "name": "unpause",
      "outputs": [],
      "stateMutability": "nonpayable",
      "type": "function"
    }
  ],
  "bytecode": "0x6101606040523480156200001257600080fd5b506040518060400160405280600b81526020017f4d61726b6574546f6b656e000000000000000000000000000000000000000000815250806040518060400160405280600181526020017f3100000000000000000000000000000000000000000000000000000000000000815250336040518060400160405280600b81526020017f4d61726b6574546f6b656e0000000000000000000000000000000000000000008152506040518060400160405280600281526020017f4d540000000000000000000000000000000000000000000000000000000000008152508160039081620000fe919062000771565b50806004908162000110919062000771565b5050506000600560006101000a81548160ff021916908315150217905550600073ffffffffffffffffffffffffffffffffffffffff168173ffffffffffffffffffffffffffffffffffffffff1603620001a35760006040517f1e4fbdf70000000000000000000000000000000000000000000000000000000081526004016200019a91906200089d565b60405180910390fd5b620001b4816200030560201b60201c565b50620001cb600683620003cb60201b90919060201c565b6101208181525050620001e9600782620003cb60201b90919060201c565b6101408181525050818051906020012060e08181525050808051906020012061010081815250504660a08181525050620002286200042360201b60201c565b608081815250503073ffffffffffffffffffffffffffffffffffffffff1660c08173ffffffffffffffffffffffffffffffffffffffff168152505050505033600b60006101000a81548173ffffffffffffffffffffffffffffffffffffffff021916908373ffffffffffffffffffffffffffffffffffffffff1602179055506001600960003373ffffffffffffffffffffffffffffffffffffffff1673ffffffffffffffffffffffffffffffffffffffff16815260200190815260200160002060006101000a81548160ff02191690831515021790555062000a98565b6000600560019054906101000a900473ffffffffffffffffffffffffffffffffffffffff16905081600560016101000a81548173ffffffffffffffffffffffffffffffffffffffff021916908373ffffffffffffffffffffffffffffffffffffffff1602179055508173ffffffffffffffffffffffffffffffffffffffff168173ffffffffffffffffffffffffffffffffffffffff167f8be0079c531659141344cd1fd0a4f28419497f9722a3daafe3b4186f6b6457e060405160405180910390a35050565b6000602083511015620003f157620003e9836200048060201b60201c565b90506200041d565b826200040383620004ed60201b60201c565b600001908162000414919062000771565b5060ff60001b90505b92915050565b60007f8b73c3c69bb8fe3d512ecc4cf759cc79239f7b179b0ffacaa9a75d522b39400f60e05161010051463060405160200162000465959493929190620008e6565b60405160208183030381529060405280519060200120905090565b600080829050601f81511115620004d057826040517f305a27a9000000000000000000000000000000000000000000000000000000008152600401620004c79190620009d2565b60405180910390fd5b805181620004de9062000a28565b60001c1760001b915050919050565b6000819050919050565b600081519050919050565b7f4e487b7100000000000000000000000000000000000000000000000000000000600052604160045260246000fd5b7f4e487b7100000000000000000000000000000000000000000000000000000000600052602260045260246000fd5b600060028204905060018216806200057957607f821691505b6020821081036200058f576200058e62000531565b5b50919050565b60008190508160005260206000209050919050565b60006020601f8301049050919050565b600082821b905092915050565b600060088302620005f97fffffffffffffffffffffffffffffffffffffffffffffffffffffffffffffffff82620005ba565b620006058683620005ba565b95508019841693508086168417925050509392505050565b6000819050919050565b6000819050919050565b6000620006526200064c62000646846200061d565b62000627565b6200061d565b9050919050565b6000819050919050565b6200066e8362000631565b620006866200067d8262000659565b848454620005c7565b825550505050565b600090565b6200069d6200068e565b620006aa81848462000663565b505050565b5b81811015620006d257620006c660008262000693565b600181019050620006b0565b5050565b601f8211156200072157620006eb8162000595565b620006f684620005aa565b8101602085101562000706578190505b6200071e6200071585620005aa565b830182620006af565b50505b505050565b600082821c905092915050565b6000620007466000198460080262000726565b1980831691505092915050565b600062000761838362000733565b9150826002028217905092915050565b6200077c82620004f7565b67ffffffffffffffff81111562000798576200079762000502565b5b620007a4825462000560565b620007b1828285620006d6565b600060209050601f831160018114620007e95760008415620007d4578287015190505b620007e0858262000753565b86555062000850565b601f198416620007f98662000595565b60005b828110156200082357848901518255600182019150602085019450602081019050620007fc565b868310156200084357848901516200083f601f89168262000733565b8355505b6001600288020188555050505b505050505050565b600073ffffffffffffffffffffffffffffffffffffffff82169050919050565b6000620008858262000858565b9050919050565b620008978162000878565b82525050565b6000602082019050620008b460008301846200088c565b92915050565b6000819050919050565b620008cf81620008ba565b82525050565b620008e0816200061d565b82525050565b600060a082019050620008fd6000830188620008c4565b6200090c6020830187620008c4565b6200091b6040830186620008c4565b6200092a6060830185620008d5565b6200093960808301846200088c565b9695505050505050565b600082825260208201905092915050565b60005b838110156200097457808201518184015260208101905062000957565b60008484015250505050565b6000601f19601f8301169050919050565b60006200099e82620004f7565b620009aa818562000943565b9350620009bc81856020860162000954565b620009c78162000980565b840191505092915050565b60006020820190508181036000830152620009ee818462000991565b905092915050565b600081519050919050565b6000819050602082019050919050565b600062000a1f8251620008ba565b80915050919050565b600062000a3582620009f6565b8262000a418462000a01565b905062000a4e8162000a11565b9250602082101562000a915762000a8c7fffffffffffffffffffffffffffffffffffffffffffffffffffffffffffffffff83602003600802620005ba565b831692505b5050919050565b60805160a05160c05160e051610100516101205161014051612b7b62000af3600039600061167c015260006116410152600061197c0152600061195b015260006112250152600061127b015260006112a40152612b7b6000f3fe608060405234801561001057600080fd5b50600436106101735760003560e01c806379cc6790116100de578063a7fc7a0711610097578063d5abeb0111610071578063d5abeb0114610408578063dd62ed3e14610426578063f2fde38b14610456578063f6a74ed71461047257610173565b8063a7fc7a07146103a0578063a9059cbb146103bc578063d505accf146103ec57610173565b806379cc6790146102ea5780637ecebe00146103065780638456cb591461033657806384b0196e146103405780638da5cb5b1461036457806395d89b411461038257610173565b80633f4ba83a116101305780633f4ba83a1461025057806340c10f191461025a57806342966c68146102765780635c975abb1461029257806370a08231146102b0578063715018a6146102e057610173565b806306fdde0314610178578063095ea7b31461019657806318160ddd146101c657806323b872dd146101e4578063313ce567146102145780633644e51514610232575b600080fd5b61018061048e565b60405161018d9190612127565b60405180910390f35b6101b060048036038101906101ab91906121e2565b610520565b6040516101bd919061223d565b60405180910390f35b6101ce610543565b6040516101db9190612267565b60405180910390f35b6101fe60048036038101906101f99190612282565b61054d565b60405161020b919061223d565b60405180910390f35b61021c61057c565b60405161022991906122f1565b60405180910390f35b61023a610585565b6040516102479190612325565b60405180910390f35b610258610594565b005b610274600480360381019061026f91906121e2565b6105a6565b005b610290600480360381019061028b9190612340565b610751565b005b61029a6108a7565b6040516102a7919061223d565b60405180910390f35b6102ca60048036038101906102c5919061236d565b6108be565b6040516102d79190612267565b60405180910390f35b6102e8610906565b005b61030460048036038101906102ff91906121e2565b61091a565b005b610320600480360381019061031b919061236d565b610a84565b60405161032d9190612267565b60405180910390f35b61033e610a96565b005b610348610aa8565b60405161035b97969594939291906124a2565b60405180910390f35b61036c610b52565b6040516103799190612526565b60405180910390f35b61038a610b7c565b6040516103979190612127565b60405180910390f35b6103ba60048036038101906103b5919061236d565b610c0e565b005b6103d660048036038101906103d191906121e2565b610d01565b6040516103e3919061223d565b60405180910390f35b61040660048036038101906104019190612599565b610d24565b005b610410610e6c565b60405161041d9190612267565b60405180910390f35b610440600480360381019061043b919061263b565b610e7f565b60405161044d9190612267565b60405180910390f35b610470600480360381019061046b919061236d565b610f06565b005b61048c6004803603810190610487919061236d565b610f8c565b005b60606003805461049d906126aa565b80601f01602080910402602001604051908101604052809291908181526020018280546104c9906126aa565b80156105165780601f106104eb57610100808354040283529160200191610516565b820191906000526020600020905b8154815290600101906020018083116104f957829003601f168201915b5050505050905090565b60008061052b61107f565b9050610538818585611087565b600191505092915050565b6000600c54905090565b60008061055861107f565b9050610565858285611099565b61057085858561112d565b60019150509392505050565b60006012905090565b600061058f611221565b905090565b61059c6112d8565b6105a461135f565b565b600960003373ffffffffffffffffffffffffffffffffffffffff1673ffffffffffffffffffffffffffffffffffffffff16815260200190815260200160002060009054906101000a900460ff16610632576040517f08c379a000000000000000000000000000000000000000000000000000000000815260040161062990612727565b60405180910390fd5b6a115eec47f6cf7e3500000081600d5461064c9190612776565b111561068d576040517f08c379a0000000000000000000000000000000000000000000000000000000008152600401610684906127f6565b60405180910390fd5b80600c5461069b9190612776565b600c8190555080600d546106af9190612776565b600d8190555080600a60008473ffffffffffffffffffffffffffffffffffffffff1673ffffffffffffffffffffffffffffffffffffffff168152602001908152602001600020546107009190612776565b600a60008473ffffffffffffffffffffffffffffffffffffffff1673ffffffffffffffffffffffffffffffffffffffff1681526020019081526020016000208190555061074d82826113c2565b5050565b600960003373ffffffffffffffffffffffffffffffffffffffff1673ffffffffffffffffffffffffffffffffffffffff16815260200190815260200160002060009054906101000a900460ff166107dd576040517f08c379a00000000000000000000000000000000000000000000000000000000081526004016107d490612862565b60405180910390fd5b80600c546107eb9190612882565b600c8190555080600d546107ff9190612882565b600d8190555080600a60003373ffffffffffffffffffffffffffffffffffffffff1673ffffffffffffffffffffffffffffffffffffffff168152602001908152602001600020546108509190612882565b600a60003373ffffffffffffffffffffffffffffffffffffffff1673ffffffffffffffffffffffffffffffffffffffff168152602001908152602001600020819055506108a461089e61107f565b82611444565b50565b6000600560009054906101000a900460ff16905090565b60008060008373ffffffffffffffffffffffffffffffffffffffff1673ffffffffffffffffffffffffffffffffffffffff168152602001908152602001600020549050919050565b61090e6112d8565b61091860006114c6565b565b6109226112d8565b600960003373ffffffffffffffffffffffffffffffffffffffff1673ffffffffffffffffffffffffffffffffffffffff16815260200190815260200160002060009054906101000a900460ff166109ae576040517f08c379a00000000000000000000000000000000000000000000000000000000081526004016109a590612862565b60405180910390fd5b6109c0826109ba61107f565b83611099565b80600c546109ce9190612882565b600c8190555080600d546109e29190612882565b600d8190555080600a60008473ffffffffffffffffffffffffffffffffffffffff1673ffffffffffffffffffffffffffffffffffffffff16815260200190815260200160002054610a339190612882565b600a60008473ffffffffffffffffffffffffffffffffffffffff1673ffffffffffffffffffffffffffffffffffffffff16815260200190815260200160002081905550610a808282611444565b5050565b6000610a8f8261158c565b9050919050565b610a9e6112d8565b610aa66115d5565b565b600060608060008060006060610abc611638565b610ac4611673565b46306000801b600067ffffffffffffffff811115610ae557610ae46128b6565b5b604051908082528060200260200182016040528015610b135781602001602082028036833780820191505090505b507f0f00000000000000000000000000000000000000000000000000000000000000959493929190965096509650965096509650965090919293949596565b6000600560019054906101000a900473ffffffffffffffffffffffffffffffffffffffff16905090565b606060048054610b8b906126aa565b80601f0160208091040260200160405190810160405280929190818152602001828054610bb7906126aa565b8015610c045780601f10610bd957610100808354040283529160200191610c04565b820191906000526020600020905b815481529060010190602001808311610be757829003601f168201915b5050505050905090565b610c166112d8565b600b60009054906101000a900473ffffffffffffffffffffffffffffffffffffffff1673ffffffffffffffffffffffffffffffffffffffff168173ffffffffffffffffffffffffffffffffffffffff1603610ca6576040517f08c379a0000000000000000000000000000000000000000000000000000000008152600401610c9d90612931565b60405180910390fd5b6001600960008373ffffffffffffffffffffffffffffffffffffffff1673ffffffffffffffffffffffffffffffffffffffff16815260200190815260200160002060006101000a81548160ff02191690831515021790555050565b600080610d0c61107f565b9050610d1981858561112d565b600191505092915050565b83421115610d6957836040517f62791302000000000000000000000000000000000000000000000000000000008152600401610d609190612267565b60405180910390fd5b60007f6e71edae12b1b97f4d1f60370fef10105fa2faae0126114a169c64845d6126c9888888610d988c6116ae565b89604051602001610dae96959493929190612951565b6040516020818303038152906040528051906020012090506000610dd182611705565b90506000610de18287878761171f565b90508973ffffffffffffffffffffffffffffffffffffffff168173ffffffffffffffffffffffffffffffffffffffff1614610e5557808a6040517f4b800e46000000000000000000000000000000000000000000000000000000008152600401610e4c9291906129b2565b60405180910390fd5b610e608a8a8a611087565b50505050505050505050565b60006a115eec47f6cf7e35000000905090565b6000600160008473ffffffffffffffffffffffffffffffffffffffff1673ffffffffffffffffffffffffffffffffffffffff16815260200190815260200160002060008373ffffffffffffffffffffffffffffffffffffffff1673ffffffffffffffffffffffffffffffffffffffff16815260200190815260200160002054905092915050565b610f0e6112d8565b600073ffffffffffffffffffffffffffffffffffffffff168173ffffffffffffffffffffffffffffffffffffffff1603610f805760006040517f1e4fbdf7000000000000000000000000000000000000000000000000000000008152600401610f779190612526565b60405180910390fd5b610f89816114c6565b50565b610f946112d8565b600b60009054906101000a900473ffffffffffffffffffffffffffffffffffffffff1673ffffffffffffffffffffffffffffffffffffffff168173ffffffffffffffffffffffffffffffffffffffff1603611024576040517f08c379a000000000000000000000000000000000000000000000000000000000815260040161101b90612a27565b60405180910390fd5b6000600960008373ffffffffffffffffffffffffffffffffffffffff1673ffffffffffffffffffffffffffffffffffffffff16815260200190815260200160002060006101000a81548160ff02191690831515021790555050565b600033905090565b611094838383600161174f565b505050565b60006110a58484610e7f565b90507fffffffffffffffffffffffffffffffffffffffffffffffffffffffffffffffff81146111275781811015611117578281836040517ffb8f41b200000000000000000000000000000000000000000000000000000000815260040161110e93929190612a47565b60405180910390fd5b6111268484848403600061174f565b5b50505050565b600073ffffffffffffffffffffffffffffffffffffffff168373ffffffffffffffffffffffffffffffffffffffff160361119f5760006040517f96c6fd1e0000000000000000000000000000000000000000000000000000000081526004016111969190612526565b60405180910390fd5b600073ffffffffffffffffffffffffffffffffffffffff168273ffffffffffffffffffffffffffffffffffffffff16036112115760006040517fec442f050000000000000000000000000000000000000000000000000000000081526004016112089190612526565b60405180910390fd5b61121c838383611926565b505050565b60007f000000000000000000000000000000000000000000000000000000000000000073ffffffffffffffffffffffffffffffffffffffff163073ffffffffffffffffffffffffffffffffffffffff1614801561129d57507f000000000000000000000000000000000000000000000000000000000000000046145b156112ca577f000000000000000000000000000000000000000000000000000000000000000090506112d5565b6112d2611936565b90505b90565b6112e061107f565b73ffffffffffffffffffffffffffffffffffffffff166112fe610b52565b73ffffffffffffffffffffffffffffffffffffffff161461135d5761132161107f565b6040517f118cdaa70000000000000000000000000000000000000000000000000000000081526004016113549190612526565b60405180910390fd5b565b6113676119cc565b6000600560006101000a81548160ff0219169083151502179055507f5db9ee0a495bf2e6ff9c91a7834c1ba4fdd244a5e8aa4e537bd38aeae4b073aa6113ab61107f565b6040516113b89190612526565b60405180910390a1565b600073ffffffffffffffffffffffffffffffffffffffff168273ffffffffffffffffffffffffffffffffffffffff16036114345760006040517fec442f0500000000000000000000000000000000000000000000000000000000815260040161142b9190612526565b60405180910390fd5b61144060008383611926565b5050565b600073ffffffffffffffffffffffffffffffffffffffff168273ffffffffffffffffffffffffffffffffffffffff16036114b65760006040517f96c6fd1e0000000000000000000000000000000000000000000000000000000081526004016114ad9190612526565b60405180910390fd5b6114c282600083611926565b5050565b6000600560019054906101000a900473ffffffffffffffffffffffffffffffffffffffff16905081600560016101000a81548173ffffffffffffffffffffffffffffffffffffffff021916908373ffffffffffffffffffffffffffffffffffffffff1602179055508173ffffffffffffffffffffffffffffffffffffffff168173ffffffffffffffffffffffffffffffffffffffff167f8be0079c531659141344cd1fd0a4f28419497f9722a3daafe3b4186f6b6457e060405160405180910390a35050565b6000600860008373ffffffffffffffffffffffffffffffffffffffff1673ffffffffffffffffffffffffffffffffffffffff168152602001908152602001600020549050919050565b6115dd611a0c565b6001600560006101000a81548160ff0219169083151502179055507f62e78cea01bee320cd4e420270b5ea74000d11b0c9f74754ebdbfc544b05a25861162161107f565b60405161162e9190612526565b60405180910390a1565b606061166e60067f0000000000000000000000000000000000000000000000000000000000000000611a4d90919063ffffffff16565b905090565b60606116a960077f0000000000000000000000000000000000000000000000000000000000000000611a4d90919063ffffffff16565b905090565b6000600860008373ffffffffffffffffffffffffffffffffffffffff1673ffffffffffffffffffffffffffffffffffffffff1681526020019081526020016000206000815480929190600101919050559050919050565b6000611718611712611221565b83611afd565b9050919050565b60008060008061173188888888611b3e565b9250925092506117418282611c32565b829350505050949350505050565b600073ffffffffffffffffffffffffffffffffffffffff168473ffffffffffffffffffffffffffffffffffffffff16036117c15760006040517fe602df050000000000000000000000000000000000000000000000000000000081526004016117b89190612526565b60405180910390fd5b600073ffffffffffffffffffffffffffffffffffffffff168373ffffffffffffffffffffffffffffffffffffffff16036118335760006040517f94280d6200000000000000000000000000000000000000000000000000000000815260040161182a9190612526565b60405180910390fd5b81600160008673ffffffffffffffffffffffffffffffffffffffff1673ffffffffffffffffffffffffffffffffffffffff16815260200190815260200160002060008573ffffffffffffffffffffffffffffffffffffffff1673ffffffffffffffffffffffffffffffffffffffff168152602001908152602001600020819055508015611920578273ffffffffffffffffffffffffffffffffffffffff168473ffffffffffffffffffffffffffffffffffffffff167f8c5be1e5ebec7d5bd14f71427d1e84f3dd0314c0f7b2291e5b200ac8c7c3b925846040516119179190612267565b60405180910390a35b50505050565b611931838383611d96565b505050565b60007f8b73c3c69bb8fe3d512ecc4cf759cc79239f7b179b0ffacaa9a75d522b39400f7f00000000000000000000000000000000000000000000000000000000000000007f000000000000000000000000000000000000000000000000000000000000000046306040516020016119b1959493929190612a7e565b60405160208183030381529060405280519060200120905090565b6119d46108a7565b611a0a576040517f8dfc202b00000000000000000000000000000000000000000000000000000000815260040160405180910390fd5b565b611a146108a7565b15611a4b576040517fd93c066500000000000000000000000000000000000000000000000000000000815260040160405180910390fd5b565b606060ff60001b8314611a6a57611a6383611dae565b9050611af7565b818054611a76906126aa565b80601f0160208091040260200160405190810160405280929190818152602001828054611aa2906126aa565b8015611aef5780601f10611ac457610100808354040283529160200191611aef565b820191906000526020600020905b815481529060010190602001808311611ad257829003601f168201915b505050505090505b92915050565b60006040517f190100000000000000000000000000000000000000000000000000000000000081528360028201528260228201526042812091505092915050565b60008060007f7fffffffffffffffffffffffffffffff5d576e7357a4501ddfe92f46681b20a08460001c1115611b7e576000600385925092509250611c28565b600060018888888860405160008152602001604052604051611ba39493929190612ad1565b6020604051602081039080840390855afa158015611bc5573d6000803e3d6000fd5b505050602060405103519050600073ffffffffffffffffffffffffffffffffffffffff168173ffffffffffffffffffffffffffffffffffffffff1603611c1957600060016000801b93509350935050611c28565b8060008060001b935093509350505b9450945094915050565b60006003811115611c4657611c45612b16565b5b826003811115611c5957611c58612b16565b5b0315611d925760016003811115611c7357611c72612b16565b5b826003811115611c8657611c85612b16565b5b03611cbd576040517ff645eedf00000000000000000000000000000000000000000000000000000000815260040160405180910390fd5b60026003811115611cd157611cd0612b16565b5b826003811115611ce457611ce3612b16565b5b03611d29578060001c6040517ffce698f7000000000000000000000000000000000000000000000000000000008152600401611d209190612267565b60405180910390fd5b600380811115611d3c57611d3b612b16565b5b826003811115611d4f57611d4e612b16565b5b03611d9157806040517fd78bce0c000000000000000000000000000000000000000000000000000000008152600401611d889190612325565b60405180910390fd5b5b5050565b611d9e611a0c565b611da9838383611e22565b505050565b60606000611dbb83612047565b90506000602067ffffffffffffffff811115611dda57611dd96128b6565b5b6040519080825280601f01601f191660200182016040528015611e0c5781602001600182028036833780820191505090505b5090508181528360208201528092505050919050565b600073ffffffffffffffffffffffffffffffffffffffff168373ffffffffffffffffffffffffffffffffffffffff1603611e74578060026000828254611e689190612776565b92505081905550611f47565b60008060008573ffffffffffffffffffffffffffffffffffffffff1673ffffffffffffffffffffffffffffffffffffffff16815260200190815260200160002054905081811015611f00578381836040517fe450d38c000000000000000000000000000000000000000000000000000000008152600401611ef793929190612a47565b60405180910390fd5b8181036000808673ffffffffffffffffffffffffffffffffffffffff1673ffffffffffffffffffffffffffffffffffffffff16815260200190815260200160002081905550505b600073ffffffffffffffffffffffffffffffffffffffff168273ffffffffffffffffffffffffffffffffffffffff1603611f905780600260008282540392505081905550611fdd565b806000808473ffffffffffffffffffffffffffffffffffffffff1673ffffffffffffffffffffffffffffffffffffffff168152602001908152602001600020600082825401925050819055505b8173ffffffffffffffffffffffffffffffffffffffff168373ffffffffffffffffffffffffffffffffffffffff167fddf252ad1be2c89b69c2b068fc378daa952ba7f163c4a11628f55a4df523b3ef8360405161203a9190612267565b60405180910390a3505050565b60008060ff8360001c169050601f81111561208e576040517fb3512b0c00000000000000000000000000000000000000000000000000000000815260040160405180910390fd5b80915050919050565b600081519050919050565b600082825260208201905092915050565b60005b838110156120d15780820151818401526020810190506120b6565b60008484015250505050565b6000601f19601f8301169050919050565b60006120f982612097565b61210381856120a2565b93506121138185602086016120b3565b61211c816120dd565b840191505092915050565b6000602082019050818103600083015261214181846120ee565b905092915050565b600080fd5b600073ffffffffffffffffffffffffffffffffffffffff82169050919050565b60006121798261214e565b9050919050565b6121898161216e565b811461219457600080fd5b50565b6000813590506121a681612180565b92915050565b6000819050919050565b6121bf816121ac565b81146121ca57600080fd5b50565b6000813590506121dc816121b6565b92915050565b600080604083850312156121f9576121f8612149565b5b600061220785828601612197565b9250506020612218858286016121cd565b9150509250929050565b60008115159050919050565b61223781612222565b82525050565b6000602082019050612252600083018461222e565b92915050565b612261816121ac565b82525050565b600060208201905061227c6000830184612258565b92915050565b60008060006060848603121561229b5761229a612149565b5b60006122a986828701612197565b93505060206122ba86828701612197565b92505060406122cb868287016121cd565b9150509250925092565b600060ff82169050919050565b6122eb816122d5565b82525050565b600060208201905061230660008301846122e2565b92915050565b6000819050919050565b61231f8161230c565b82525050565b600060208201905061233a6000830184612316565b92915050565b60006020828403121561235657612355612149565b5b6000612364848285016121cd565b91505092915050565b60006020828403121561238357612382612149565b5b600061239184828501612197565b91505092915050565b60007fff0000000000000000000000000000000000000000000000000000000000000082169050919050565b6123cf8161239a565b82525050565b6123de8161216e565b82525050565b600081519050919050565b600082825260208201905092915050565b6000819050602082019050919050565b612419816121ac565b82525050565b600061242b8383612410565b60208301905092915050565b6000602082019050919050565b600061244f826123e4565b61245981856123ef565b935061246483612400565b8060005b8381101561249557815161247c888261241f565b975061248783612437565b925050600181019050612468565b5085935050505092915050565b600060e0820190506124b7600083018a6123c6565b81810360208301526124c981896120ee565b905081810360408301526124dd81886120ee565b90506124ec6060830187612258565b6124f960808301866123d5565b61250660a0830185612316565b81810360c08301526125188184612444565b905098975050505050505050565b600060208201905061253b60008301846123d5565b92915050565b61254a816122d5565b811461255557600080fd5b50565b60008135905061256781612541565b92915050565b6125768161230c565b811461258157600080fd5b50565b6000813590506125938161256d565b92915050565b600080600080600080600060e0888a0312156125b8576125b7612149565b5b60006125c68a828b01612197565b97505060206125d78a828b01612197565b96505060406125e88a828b016121cd565b95505060606125f98a828b016121cd565b945050608061260a8a828b01612558565b93505060a061261b8a828b01612584565b92505060c061262c8a828b01612584565b91505092959891949750929550565b6000806040838503121561265257612651612149565b5b600061266085828601612197565b925050602061267185828601612197565b9150509250929050565b7f4e487b7100000000000000000000000000000000000000000000000000000000600052602260045260246000fd5b600060028204905060018216806126c257607f821691505b6020821081036126d5576126d461267b565b5b50919050565b7f4f6e6c7920636f6e74726f6c6c6572732063616e206d696e7400000000000000600082015250565b60006127116019836120a2565b915061271c826126db565b602082019050919050565b6000602082019050818103600083015261274081612704565b9050919050565b7f4e487b7100000000000000000000000000000000000000000000000000000000600052601160045260246000fd5b6000612781826121ac565b915061278c836121ac565b92508282019050808211156127a4576127a3612747565b5b92915050565b7f4d6178696d756d20737570706c7920686173206265656e207265616368656400600082015250565b60006127e0601f836120a2565b91506127eb826127aa565b602082019050919050565b6000602082019050818103600083015261280f816127d3565b9050919050565b7f4f6e6c7920636f6e74726f6c6c6572732063616e206275726e00000000000000600082015250565b600061284c6019836120a2565b915061285782612816565b602082019050919050565b6000602082019050818103600083015261287b8161283f565b9050919050565b600061288d826121ac565b9150612898836121ac565b92508282039050818111156128b0576128af612747565b5b92915050565b7f4e487b7100000000000000000000000000000000000000000000000000000000600052604160045260246000fd5b7f6f776e657220616c726561647920636f6e74726f6c6c65720000000000000000600082015250565b600061291b6018836120a2565b9150612926826128e5565b602082019050919050565b6000602082019050818103600083015261294a8161290e565b9050919050565b600060c0820190506129666000830189612316565b61297360208301886123d5565b61298060408301876123d5565b61298d6060830186612258565b61299a6080830185612258565b6129a760a0830184612258565b979650505050505050565b60006040820190506129c760008301856123d5565b6129d460208301846123d5565b9392505050565b7f6f776e65722063616e6f742072656d6f76657200000000000000000000000000600082015250565b6000612a116013836120a2565b9150612a1c826129db565b602082019050919050565b60006020820190508181036000830152612a4081612a04565b9050919050565b6000606082019050612a5c60008301866123d5565b612a696020830185612258565b612a766040830184612258565b949350505050565b600060a082019050612a936000830188612316565b612aa06020830187612316565b612aad6040830186612316565b612aba6060830185612258565b612ac760808301846123d5565b9695505050505050565b6000608082019050612ae66000830187612316565b612af360208301866122e2565b612b006040830185612316565b612b0d6060830184612316565b95945050505050565b7f4e487b7100000000000000000000000000000000000000000000000000000000600052602160045260246000fdfea2646970667358221220e591e8943a0c23d04d9c3ac142c87f0f9a9c59cad662194522e45c3752f3f54564736f6c63430008180033",
  "linkReferences": {},
  "deployedLinkReferences": {}
}