{
  "_format": "hh-sol-artifact-1",
  "contractName": "Market",
  "sourceName": "contracts/Market.sol",
  "abi": [
    {
      "inputs": [],
      "stateMutability": "nonpayable",
      "type": "constructor"
    },
    {
      "inputs": [
        {
          "internalType": "address",
          "name": "owner",
          "type": "address"
        }
      ],
      "name": "OwnableInvalidOwner",
      "type": "error"
    },
    {
      "inputs": [
        {
          "internalType": "address",
          "name": "account",
          "type": "address"
        }
      ],
      "name": "OwnableUnauthorizedAccount",
      "type": "error"
    },
    {
      "inputs": [],
      "name": "ReentrancyGuardReentrantCall",
      "type": "error"
    },
    {
      "anonymous": false,
      "inputs": [
        {
          "indexed": true,
          "internalType": "address",
          "name": "previousOwner",
          "type": "address"
        },
        {
          "indexed": true,
          "internalType": "address",
          "name": "newOwner",
          "type": "address"
        }
      ],
      "name": "OwnershipTransferred",
      "type": "event"
    },
    {
      "anonymous": false,
      "inputs": [
        {
          "indexed": true,
          "internalType": "uint256",
          "name": "itemId",
          "type": "uint256"
        },
        {
          "indexed": true,
          "internalType": "address",
          "name": "nftContract",
          "type": "address"
        },
        {
          "indexed": true,
          "internalType": "uint256",
          "name": "tokenId",
          "type": "uint256"
        },
        {
          "indexed": false,
          "internalType": "address",
          "name": "seller",
          "type": "address"
        },
        {
          "indexed": false,
          "internalType": "address",
          "name": "holder",
          "type": "address"
        },
        {
          "indexed": false,
          "internalType": "uint256",
          "name": "price",
          "type": "uint256"
        },
        {
          "indexed": false,
          "internalType": "bool",
          "name": "sold",
          "type": "bool"
        }
      ],
      "name": "ValutItemCreate",
      "type": "event"
    },
    {
      "inputs": [
        {
          "internalType": "address",
          "name": "nftContract",
          "type": "address"
        },
        {
          "internalType": "uint256",
          "name": "tokenId",
          "type": "uint256"
        },
        {
          "internalType": "uint256",
          "name": "price",
          "type": "uint256"
        }
      ],
      "name": "createValutItem",
      "outputs": [],
      "stateMutability": "payable",
      "type": "function"
    },
    {
      "inputs": [],
      "name": "getAvailableNft",
      "outputs": [
        {
          "components": [
            {
              "internalType": "uint256",
              "name": "itemId",
              "type": "uint256"
            },
            {
              "internalType": "address",
              "name": "nftContract",
              "type": "address"
            },
            {
              "internalType": "uint256",
              "name": "tokenId",
              "type": "uint256"
            },
            {
              "internalType": "address payable",
              "name": "seller",
              "type": "address"
            },
            {
              "internalType": "address payable",
              "name": "holder",
              "type": "address"
            },
            {
              "internalType": "uint256",
              "name": "price",
              "type": "uint256"
            },
            {
              "internalType": "bool",
              "name": "sold",
              "type": "bool"
            }
          ],
          "internalType": "struct Market.ValutItem[]",
          "name": "",
          "type": "tuple[]"
        }
      ],
      "stateMutability": "view",
      "type": "function"
    },
    {
      "inputs": [],
      "name": "getListFee",
      "outputs": [
        {
          "internalType": "uint256",
          "name": "",
          "type": "uint256"
        }
      ],
      "stateMutability": "view",
      "type": "function"
    },
    {
      "inputs": [
        {
          "internalType": "address",
          "name": "adr",
          "type": "address"
        }
      ],
      "name": "getMyMarketNfts",
      "outputs": [
        {
          "components": [
            {
              "internalType": "uint256",
              "name": "itemId",
              "type": "uint256"
            },
            {
              "internalType": "address",
              "name": "nftContract",
              "type": "address"
            },
            {
              "internalType": "uint256",
              "name": "tokenId",
              "type": "uint256"
            },
            {
              "internalType": "address payable",
              "name": "seller",
              "type": "address"
            },
            {
              "internalType": "address payable",
              "name": "holder",
              "type": "address"
            },
            {
              "internalType": "uint256",
              "name": "price",
              "type": "uint256"
            },
            {
              "internalType": "bool",
              "name": "sold",
              "type": "bool"
            }
          ],
          "internalType": "struct Market.ValutItem[]",
          "name": "",
          "type": "tuple[]"
        }
      ],
      "stateMutability": "view",
      "type": "function"
    },
    {
      "inputs": [
        {
          "internalType": "address",
          "name": "adr",
          "type": "address"
        }
      ],
      "name": "getMyNfts",
      "outputs": [
        {
          "components": [
            {
              "internalType": "uint256",
              "name": "itemId",
              "type": "uint256"
            },
            {
              "internalType": "address",
              "name": "nftContract",
              "type": "address"
            },
            {
              "internalType": "uint256",
              "name": "tokenId",
              "type": "uint256"
            },
            {
              "internalType": "address payable",
              "name": "seller",
              "type": "address"
            },
            {
              "internalType": "address payable",
              "name": "holder",
              "type": "address"
            },
            {
              "internalType": "uint256",
              "name": "price",
              "type": "uint256"
            },
            {
              "internalType": "bool",
              "name": "sold",
              "type": "bool"
            }
          ],
          "internalType": "struct Market.ValutItem[]",
          "name": "",
          "type": "tuple[]"
        }
      ],
      "stateMutability": "view",
      "type": "function"
    },
    {
      "inputs": [
        {
          "internalType": "address",
          "name": "nftAddr",
          "type": "address"
        },
        {
          "internalType": "uint256",
          "name": "tokenId",
          "type": "uint256"
        }
      ],
      "name": "getNftInfoByTokenId",
      "outputs": [
        {
          "components": [
            {
              "internalType": "uint256",
              "name": "itemId",
              "type": "uint256"
            },
            {
              "internalType": "address",
              "name": "nftContract",
              "type": "address"
            },
            {
              "internalType": "uint256",
              "name": "tokenId",
              "type": "uint256"
            },
            {
              "internalType": "address payable",
              "name": "seller",
              "type": "address"
            },
            {
              "internalType": "address payable",
              "name": "holder",
              "type": "address"
            },
            {
              "internalType": "uint256",
              "name": "price",
              "type": "uint256"
            },
            {
              "internalType": "bool",
              "name": "sold",
              "type": "bool"
            }
          ],
          "internalType": "struct Market.ValutItem",
          "name": "",
          "type": "tuple"
        }
      ],
      "stateMutability": "view",
      "type": "function"
    },
    {
      "inputs": [
        {
          "internalType": "address",
          "name": "nftContract",
          "type": "address"
        },
        {
          "internalType": "uint256",
          "name": "itemId",
          "type": "uint256"
        }
      ],
      "name": "marketSale",
      "outputs": [],
      "stateMutability": "payable",
      "type": "function"
    },
    {
      "inputs": [],
      "name": "owner",
      "outputs": [
        {
          "internalType": "address",
          "name": "",
          "type": "address"
        }
      ],
      "stateMutability": "view",
      "type": "function"
    },
    {
      "inputs": [],
      "name": "renounceOwnership",
      "outputs": [],
      "stateMutability": "nonpayable",
      "type": "function"
    },
    {
      "inputs": [
        {
          "internalType": "address",
          "name": "newOwner",
          "type": "address"
        }
      ],
      "name": "transferOwnership",
      "outputs": [],
      "stateMutability": "nonpayable",
      "type": "function"
    },
    {
      "inputs": [],
      "name": "withDraw",
      "outputs": [],
      "stateMutability": "payable",
      "type": "function"
    }
  ],
  "bytecode": "0x60806040526608e1bc9bf04000600555661aa535d3d0c0006006553480156200002757600080fd5b5033600073ffffffffffffffffffffffffffffffffffffffff168173ffffffffffffffffffffffffffffffffffffffff16036200009e5760006040517f1e4fbdf700000000000000000000000000000000000000000000000000000000815260040162000095919062000207565b60405180910390fd5b620000af81620000fe60201b60201c565b506001808190555033600460006101000a81548173ffffffffffffffffffffffffffffffffffffffff021916908373ffffffffffffffffffffffffffffffffffffffff16021790555062000224565b60008060009054906101000a900473ffffffffffffffffffffffffffffffffffffffff169050816000806101000a81548173ffffffffffffffffffffffffffffffffffffffff021916908373ffffffffffffffffffffffffffffffffffffffff1602179055508173ffffffffffffffffffffffffffffffffffffffff168173ffffffffffffffffffffffffffffffffffffffff167f8be0079c531659141344cd1fd0a4f28419497f9722a3daafe3b4186f6b6457e060405160405180910390a35050565b600073ffffffffffffffffffffffffffffffffffffffff82169050919050565b6000620001ef82620001c2565b9050919050565b6200020181620001e2565b82525050565b60006020820190506200021e6000830184620001f6565b92915050565b611ff180620002346000396000f3fe60806040526004361061009c5760003560e01c80638da5cb5b116100645780638da5cb5b1461015857806393cc496914610183578063d438b9861461019f578063f2fde38b146101ca578063f6c1b77a146101f3578063fb513492146102305761009c565b80630fdb1c10146100a1578063372658ea146100ab5780633b749671146100e8578063715018a6146101045780638be3a0a11461011b575b600080fd5b6100a961025b565b005b3480156100b757600080fd5b506100d260048036038101906100cd9190611876565b610322565b6040516100df919061199e565b60405180910390f35b61010260048036038101906100fd9190611876565b610562565b005b34801561011057600080fd5b506101196107e3565b005b34801561012757600080fd5b50610142600480360381019061013d91906119b9565b6107f7565b60405161014f9190611b23565b60405180910390f35b34801561016457600080fd5b5061016d610c15565b60405161017a9190611b54565b60405180910390f35b61019d60048036038101906101989190611b6f565b610c3e565b005b3480156101ab57600080fd5b506101b4610f5f565b6040516101c19190611b23565b60405180910390f35b3480156101d657600080fd5b506101f160048036038101906101ec91906119b9565b611200565b005b3480156101ff57600080fd5b5061021a600480360381019061021591906119b9565b611286565b6040516102279190611b23565b60405180910390f35b34801561023c57600080fd5b506102456115b0565b6040516102529190611bd1565b60405180910390f35b6102636115ba565b61026b611641565b60003373ffffffffffffffffffffffffffffffffffffffff164760405161029190611c1d565b60006040518083038185875af1925050503d80600081146102ce576040519150601f19603f3d011682016040523d82523d6000602084013e6102d3565b606091505b5050905080610317576040517f08c379a000000000000000000000000000000000000000000000000000000000815260040161030e90611c8f565b60405180910390fd5b50610320611687565b565b61032a61175c565b61033261175c565b60005b600254811015610557578473ffffffffffffffffffffffffffffffffffffffff16600760006001846103679190611cde565b815260200190815260200160002060010160009054906101000a900473ffffffffffffffffffffffffffffffffffffffff1673ffffffffffffffffffffffffffffffffffffffff161480156103dd575083600760006001846103c99190611cde565b815260200190815260200160002060020154145b1561054a57600760006001836103f39190611cde565b81526020019081526020016000206040518060e0016040529081600082015481526020016001820160009054906101000a900473ffffffffffffffffffffffffffffffffffffffff1673ffffffffffffffffffffffffffffffffffffffff1673ffffffffffffffffffffffffffffffffffffffff168152602001600282015481526020016003820160009054906101000a900473ffffffffffffffffffffffffffffffffffffffff1673ffffffffffffffffffffffffffffffffffffffff1673ffffffffffffffffffffffffffffffffffffffff1681526020016004820160009054906101000a900473ffffffffffffffffffffffffffffffffffffffff1673ffffffffffffffffffffffffffffffffffffffff1673ffffffffffffffffffffffffffffffffffffffff168152602001600582015481526020016006820160009054906101000a900460ff16151515158152505091505b8080600101915050610335565b508091505092915050565b61056a611641565b6000600760008381526020019081526020016000206005015490506000600760008481526020019081526020016000206002015490508134146105e2576040517f08c379a00000000000000000000000000000000000000000000000000000000081526004016105d990611d5e565b60405180910390fd5b6007600084815260200190815260200160002060030160009054906101000a900473ffffffffffffffffffffffffffffffffffffffff1673ffffffffffffffffffffffffffffffffffffffff166108fc349081150290604051600060405180830381858888f1935050505015801561065e573d6000803e3d6000fd5b508373ffffffffffffffffffffffffffffffffffffffff166323b872dd3033846040518463ffffffff1660e01b815260040161069c93929190611d7e565b600060405180830381600087803b1580156106b657600080fd5b505af11580156106ca573d6000803e3d6000fd5b5050505060016007600085815260200190815260200160002060060160006101000a81548160ff021916908315150217905550336007600085815260200190815260200160002060040160006101000a81548173ffffffffffffffffffffffffffffffffffffffff021916908373ffffffffffffffffffffffffffffffffffffffff1602179055506003600081548092919061076590611db5565b9190505550600460009054906101000a900473ffffffffffffffffffffffffffffffffffffffff1673ffffffffffffffffffffffffffffffffffffffff166108fc6005549081150290604051600060405180830381858888f193505050501580156107d4573d6000803e3d6000fd5b5050506107df611687565b5050565b6107eb6115ba565b6107f56000611690565b565b60606000805b600254811015610913578373ffffffffffffffffffffffffffffffffffffffff166007600060018461082f9190611cde565b815260200190815260200160002060030160009054906101000a900473ffffffffffffffffffffffffffffffffffffffff1673ffffffffffffffffffffffffffffffffffffffff161480156108f157503073ffffffffffffffffffffffffffffffffffffffff16600760006001846108a79190611cde565b815260200190815260200160002060040160009054906101000a900473ffffffffffffffffffffffffffffffffffffffff1673ffffffffffffffffffffffffffffffffffffffff16145b15610906576001826109039190611cde565b91505b80806001019150506107fd565b506000808267ffffffffffffffff81111561093157610930611dfd565b5b60405190808252806020026020018201604052801561096a57816020015b61095761175c565b81526020019060019003908161094f5790505b50905060005b600254811015610c09578573ffffffffffffffffffffffffffffffffffffffff16600760006001846109a29190611cde565b815260200190815260200160002060030160009054906101000a900473ffffffffffffffffffffffffffffffffffffffff1673ffffffffffffffffffffffffffffffffffffffff16148015610a6457503073ffffffffffffffffffffffffffffffffffffffff1660076000600184610a1a9190611cde565b815260200190815260200160002060040160009054906101000a900473ffffffffffffffffffffffffffffffffffffffff1673ffffffffffffffffffffffffffffffffffffffff16145b15610bfc5760076000600183610a7a9190611cde565b81526020019081526020016000206040518060e0016040529081600082015481526020016001820160009054906101000a900473ffffffffffffffffffffffffffffffffffffffff1673ffffffffffffffffffffffffffffffffffffffff1673ffffffffffffffffffffffffffffffffffffffff168152602001600282015481526020016003820160009054906101000a900473ffffffffffffffffffffffffffffffffffffffff1673ffffffffffffffffffffffffffffffffffffffff1673ffffffffffffffffffffffffffffffffffffffff1681526020016004820160009054906101000a900473ffffffffffffffffffffffffffffffffffffffff1673ffffffffffffffffffffffffffffffffffffffff1673ffffffffffffffffffffffffffffffffffffffff168152602001600582015481526020016006820160009054906101000a900460ff161515151581525050828481518110610be157610be0611e2c565b5b6020026020010181905250600183610bf99190611cde565b92505b8080600101915050610970565b50809350505050919050565b60008060009054906101000a900473ffffffffffffffffffffffffffffffffffffffff16905090565b610c46611641565b60008111610c89576040517f08c379a0000000000000000000000000000000000000000000000000000000008152600401610c8090611ea7565b60405180910390fd5b6005543414610ccd576040517f08c379a0000000000000000000000000000000000000000000000000000000008152600401610cc490611f13565b60405180910390fd5b60026000815480929190610ce090611db5565b91905055506040518060e0016040528060025481526020018473ffffffffffffffffffffffffffffffffffffffff1681526020018381526020013373ffffffffffffffffffffffffffffffffffffffff1681526020013073ffffffffffffffffffffffffffffffffffffffff168152602001828152602001600015158152506007600060025481526020019081526020016000206000820151816000015560208201518160010160006101000a81548173ffffffffffffffffffffffffffffffffffffffff021916908373ffffffffffffffffffffffffffffffffffffffff1602179055506040820151816002015560608201518160030160006101000a81548173ffffffffffffffffffffffffffffffffffffffff021916908373ffffffffffffffffffffffffffffffffffffffff16021790555060808201518160040160006101000a81548173ffffffffffffffffffffffffffffffffffffffff021916908373ffffffffffffffffffffffffffffffffffffffff16021790555060a0820151816005015560c08201518160060160006101000a81548160ff0219169083151502179055509050508273ffffffffffffffffffffffffffffffffffffffff166323b872dd3330856040518463ffffffff1660e01b8152600401610ec793929190611d7e565b600060405180830381600087803b158015610ee157600080fd5b505af1158015610ef5573d6000803e3d6000fd5b50505050818373ffffffffffffffffffffffffffffffffffffffff166002547fb879ed59fa0056d094d43a771ca408fb7d4dd3f794e9f55ded09a38dd5d3429a3330866000604051610f4a9493929190611f42565b60405180910390a4610f5a611687565b505050565b6060600080600354600254610f749190611f87565b905060008167ffffffffffffffff811115610f9257610f91611dfd565b5b604051908082528060200260200182016040528015610fcb57816020015b610fb861175c565b815260200190600190039081610fb05790505b50905060005b6002548110156111f6573073ffffffffffffffffffffffffffffffffffffffff16600760006001846110039190611cde565b815260200190815260200160002060040160009054906101000a900473ffffffffffffffffffffffffffffffffffffffff1673ffffffffffffffffffffffffffffffffffffffff16036111e9576000600760006001846110639190611cde565b81526020019081526020016000209050806040518060e0016040529081600082015481526020016001820160009054906101000a900473ffffffffffffffffffffffffffffffffffffffff1673ffffffffffffffffffffffffffffffffffffffff1673ffffffffffffffffffffffffffffffffffffffff168152602001600282015481526020016003820160009054906101000a900473ffffffffffffffffffffffffffffffffffffffff1673ffffffffffffffffffffffffffffffffffffffff1673ffffffffffffffffffffffffffffffffffffffff1681526020016004820160009054906101000a900473ffffffffffffffffffffffffffffffffffffffff1673ffffffffffffffffffffffffffffffffffffffff1673ffffffffffffffffffffffffffffffffffffffff168152602001600582015481526020016006820160009054906101000a900460ff1615151515815250508386815181106111cd576111cc611e2c565b5b60200260200101819052506001856111e59190611cde565b9450505b8080600101915050610fd1565b5080935050505090565b6112086115ba565b600073ffffffffffffffffffffffffffffffffffffffff168173ffffffffffffffffffffffffffffffffffffffff160361127a5760006040517f1e4fbdf70000000000000000000000000000000000000000000000000000000081526004016112719190611b54565b60405180910390fd5b61128381611690565b50565b60606000805b600254811015611328578373ffffffffffffffffffffffffffffffffffffffff16600760006001846112be9190611cde565b815260200190815260200160002060040160009054906101000a900473ffffffffffffffffffffffffffffffffffffffff1673ffffffffffffffffffffffffffffffffffffffff160361131b576001826113189190611cde565b91505b808060010191505061128c565b5060008167ffffffffffffffff81111561134557611344611dfd565b5b60405190808252806020026020018201604052801561137e57816020015b61136b61175c565b8152602001906001900390816113635790505b5090506000805b6002548110156115a4578573ffffffffffffffffffffffffffffffffffffffff16600760006001846113b79190611cde565b815260200190815260200160002060040160009054906101000a900473ffffffffffffffffffffffffffffffffffffffff1673ffffffffffffffffffffffffffffffffffffffff160361159757600760006001836114159190611cde565b81526020019081526020016000206040518060e0016040529081600082015481526020016001820160009054906101000a900473ffffffffffffffffffffffffffffffffffffffff1673ffffffffffffffffffffffffffffffffffffffff1673ffffffffffffffffffffffffffffffffffffffff168152602001600282015481526020016003820160009054906101000a900473ffffffffffffffffffffffffffffffffffffffff1673ffffffffffffffffffffffffffffffffffffffff1673ffffffffffffffffffffffffffffffffffffffff1681526020016004820160009054906101000a900473ffffffffffffffffffffffffffffffffffffffff1673ffffffffffffffffffffffffffffffffffffffff1673ffffffffffffffffffffffffffffffffffffffff168152602001600582015481526020016006820160009054906101000a900460ff16151515158152505083838151811061157c5761157b611e2c565b5b60200260200101819052506001826115949190611cde565b91505b8080600101915050611385565b50819350505050919050565b6000600554905090565b6115c2611754565b73ffffffffffffffffffffffffffffffffffffffff166115e0610c15565b73ffffffffffffffffffffffffffffffffffffffff161461163f57611603611754565b6040517f118cdaa70000000000000000000000000000000000000000000000000000000081526004016116369190611b54565b60405180910390fd5b565b60026001540361167d576040517f3ee5aeb500000000000000000000000000000000000000000000000000000000815260040160405180910390fd5b6002600181905550565b60018081905550565b60008060009054906101000a900473ffffffffffffffffffffffffffffffffffffffff169050816000806101000a81548173ffffffffffffffffffffffffffffffffffffffff021916908373ffffffffffffffffffffffffffffffffffffffff1602179055508173ffffffffffffffffffffffffffffffffffffffff168173ffffffffffffffffffffffffffffffffffffffff167f8be0079c531659141344cd1fd0a4f28419497f9722a3daafe3b4186f6b6457e060405160405180910390a35050565b600033905090565b6040518060e0016040528060008152602001600073ffffffffffffffffffffffffffffffffffffffff16815260200160008152602001600073ffffffffffffffffffffffffffffffffffffffff168152602001600073ffffffffffffffffffffffffffffffffffffffff168152602001600081526020016000151581525090565b600080fd5b600073ffffffffffffffffffffffffffffffffffffffff82169050919050565b600061180d826117e2565b9050919050565b61181d81611802565b811461182857600080fd5b50565b60008135905061183a81611814565b92915050565b6000819050919050565b61185381611840565b811461185e57600080fd5b50565b6000813590506118708161184a565b92915050565b6000806040838503121561188d5761188c6117dd565b5b600061189b8582860161182b565b92505060206118ac85828601611861565b9150509250929050565b6118bf81611840565b82525050565b6118ce81611802565b82525050565b60006118df826117e2565b9050919050565b6118ef816118d4565b82525050565b60008115159050919050565b61190a816118f5565b82525050565b60e08201600082015161192660008501826118b6565b50602082015161193960208501826118c5565b50604082015161194c60408501826118b6565b50606082015161195f60608501826118e6565b50608082015161197260808501826118e6565b5060a082015161198560a08501826118b6565b5060c082015161199860c0850182611901565b50505050565b600060e0820190506119b36000830184611910565b92915050565b6000602082840312156119cf576119ce6117dd565b5b60006119dd8482850161182b565b91505092915050565b600081519050919050565b600082825260208201905092915050565b6000819050602082019050919050565b60e082016000820151611a2860008501826118b6565b506020820151611a3b60208501826118c5565b506040820151611a4e60408501826118b6565b506060820151611a6160608501826118e6565b506080820151611a7460808501826118e6565b5060a0820151611a8760a08501826118b6565b5060c0820151611a9a60c0850182611901565b50505050565b6000611aac8383611a12565b60e08301905092915050565b6000602082019050919050565b6000611ad0826119e6565b611ada81856119f1565b9350611ae583611a02565b8060005b83811015611b16578151611afd8882611aa0565b9750611b0883611ab8565b925050600181019050611ae9565b5085935050505092915050565b60006020820190508181036000830152611b3d8184611ac5565b905092915050565b611b4e81611802565b82525050565b6000602082019050611b696000830184611b45565b92915050565b600080600060608486031215611b8857611b876117dd565b5b6000611b968682870161182b565b9350506020611ba786828701611861565b9250506040611bb886828701611861565b9150509250925092565b611bcb81611840565b82525050565b6000602082019050611be66000830184611bc2565b92915050565b600081905092915050565b50565b6000611c07600083611bec565b9150611c1282611bf7565b600082019050919050565b6000611c2882611bfa565b9150819050919050565b600082825260208201905092915050565b7f7769746844726177206661696c64000000000000000000000000000000000000600082015250565b6000611c79600e83611c32565b9150611c8482611c43565b602082019050919050565b60006020820190508181036000830152611ca881611c6c565b9050919050565b7f4e487b7100000000000000000000000000000000000000000000000000000000600052601160045260246000fd5b6000611ce982611840565b9150611cf483611840565b9250828201905080821115611d0c57611d0b611caf565b5b92915050565b7f616d6f756e7420696e20656e6f75676874000000000000000000000000000000600082015250565b6000611d48601183611c32565b9150611d5382611d12565b602082019050919050565b60006020820190508181036000830152611d7781611d3b565b9050919050565b6000606082019050611d936000830186611b45565b611da06020830185611b45565b611dad6040830184611bc2565b949350505050565b6000611dc082611840565b91507fffffffffffffffffffffffffffffffffffffffffffffffffffffffffffffffff8203611df257611df1611caf565b5b600182019050919050565b7f4e487b7100000000000000000000000000000000000000000000000000000000600052604160045260246000fd5b7f4e487b7100000000000000000000000000000000000000000000000000000000600052603260045260246000fd5b7f7072697665206e6f74206973207a65726f000000000000000000000000000000600082015250565b6000611e91601183611c32565b9150611e9c82611e5b565b602082019050919050565b60006020820190508181036000830152611ec081611e84565b9050919050565b7f70726976652063616e6e6f74206265206c697374696e67206665650000000000600082015250565b6000611efd601b83611c32565b9150611f0882611ec7565b602082019050919050565b60006020820190508181036000830152611f2c81611ef0565b9050919050565b611f3c816118f5565b82525050565b6000608082019050611f576000830187611b45565b611f646020830186611b45565b611f716040830185611bc2565b611f7e6060830184611f33565b95945050505050565b6000611f9282611840565b9150611f9d83611840565b9250828203905081811115611fb557611fb4611caf565b5b9291505056fea2646970667358221220e2016c2f84d67f07cf503a0bd6547bf783bf9fc718ebf53278933adb3b574dc864736f6c63430008180033",
  "linkReferences": {},
  "deployedLinkReferences": {}
}