{
  "_format": "hh-sol-artifact-1",
  "contractName": "MarketStake",
  "sourceName": "contracts/MarketStake.sol",
  "abi": [
    {
      "inputs": [
        {
          "internalType": "contract CreateNft",
          "name": "_nft",
          "type": "address"
        },
        {
          "internalType": "contract MarketToken",
          "name": "_token",
          "type": "address"
        }
      ],
      "stateMutability": "nonpayable",
      "type": "constructor"
    },
    {
      "inputs": [
        {
          "internalType": "address",
          "name": "owner",
          "type": "address"
        }
      ],
      "name": "OwnableInvalidOwner",
      "type": "error"
    },
    {
      "inputs": [
        {
          "internalType": "address",
          "name": "account",
          "type": "address"
        }
      ],
      "name": "OwnableUnauthorizedAccount",
      "type": "error"
    },
    {
      "anonymous": false,
      "inputs": [
        {
          "indexed": false,
          "internalType": "address",
          "name": "owner",
          "type": "address"
        },
        {
          "indexed": false,
          "internalType": "uint256",
          "name": "amount",
          "type": "uint256"
        }
      ],
      "name": "Claimed",
      "type": "event"
    },
    {
      "anonymous": false,
      "inputs": [
        {
          "indexed": false,
          "internalType": "address",
          "name": "owner",
          "type": "address"
        },
        {
          "indexed": false,
          "internalType": "uint256",
          "name": "tokenId",
          "type": "uint256"
        },
        {
          "indexed": false,
          "internalType": "uint256",
          "name": "timestamp",
          "type": "uint256"
        }
      ],
      "name": "NFTStaked",
      "type": "event"
    },
    {
      "anonymous": false,
      "inputs": [
        {
          "indexed": false,
          "internalType": "address",
          "name": "owner",
          "type": "address"
        },
        {
          "indexed": false,
          "internalType": "uint256",
          "name": "tokenId",
          "type": "uint256"
        },
        {
          "indexed": false,
          "internalType": "uint256",
          "name": "timestamp",
          "type": "uint256"
        }
      ],
      "name": "NFTUnstaked",
      "type": "event"
    },
    {
      "anonymous": false,
      "inputs": [
        {
          "indexed": true,
          "internalType": "address",
          "name": "previousOwner",
          "type": "address"
        },
        {
          "indexed": true,
          "internalType": "address",
          "name": "newOwner",
          "type": "address"
        }
      ],
      "name": "OwnershipTransferred",
      "type": "event"
    },
    {
      "inputs": [
        {
          "internalType": "address",
          "name": "account",
          "type": "address"
        }
      ],
      "name": "balanceOf",
      "outputs": [
        {
          "internalType": "uint256",
          "name": "",
          "type": "uint256"
        }
      ],
      "stateMutability": "view",
      "type": "function"
    },
    {
      "inputs": [
        {
          "internalType": "uint256[]",
          "name": "tokenIds",
          "type": "uint256[]"
        }
      ],
      "name": "claim",
      "outputs": [],
      "stateMutability": "nonpayable",
      "type": "function"
    },
    {
      "inputs": [
        {
          "internalType": "address",
          "name": "account",
          "type": "address"
        },
        {
          "internalType": "uint256[]",
          "name": "tokenIds",
          "type": "uint256[]"
        }
      ],
      "name": "claimForAddress",
      "outputs": [],
      "stateMutability": "nonpayable",
      "type": "function"
    },
    {
      "inputs": [
        {
          "internalType": "uint256[]",
          "name": "tokenIds",
          "type": "uint256[]"
        }
      ],
      "name": "earningInfo",
      "outputs": [
        {
          "internalType": "uint256[2]",
          "name": "info",
          "type": "uint256[2]"
        }
      ],
      "stateMutability": "view",
      "type": "function"
    },
    {
      "inputs": [
        {
          "internalType": "address",
          "name": "account",
          "type": "address"
        }
      ],
      "name": "nftOfOwner",
      "outputs": [
        {
          "internalType": "uint256[]",
          "name": "ownerTokens",
          "type": "uint256[]"
        }
      ],
      "stateMutability": "view",
      "type": "function"
    },
    {
      "inputs": [
        {
          "internalType": "address",
          "name": "",
          "type": "address"
        },
        {
          "internalType": "address",
          "name": "",
          "type": "address"
        },
        {
          "internalType": "uint256",
          "name": "",
          "type": "uint256"
        },
        {
          "internalType": "bytes",
          "name": "",
          "type": "bytes"
        }
      ],
      "name": "onERC721Received",
      "outputs": [
        {
          "internalType": "bytes4",
          "name": "",
          "type": "bytes4"
        }
      ],
      "stateMutability": "pure",
      "type": "function"
    },
    {
      "inputs": [],
      "name": "owner",
      "outputs": [
        {
          "internalType": "address",
          "name": "",
          "type": "address"
        }
      ],
      "stateMutability": "view",
      "type": "function"
    },
    {
      "inputs": [],
      "name": "renounceOwnership",
      "outputs": [],
      "stateMutability": "nonpayable",
      "type": "function"
    },
    {
      "inputs": [
        {
          "internalType": "uint256[]",
          "name": "tokenIds",
          "type": "uint256[]"
        }
      ],
      "name": "stake",
      "outputs": [],
      "stateMutability": "nonpayable",
      "type": "function"
    },
    {
      "inputs": [],
      "name": "totalStaked",
      "outputs": [
        {
          "internalType": "uint256",
          "name": "",
          "type": "uint256"
        }
      ],
      "stateMutability": "view",
      "type": "function"
    },
    {
      "inputs": [
        {
          "internalType": "address",
          "name": "newOwner",
          "type": "address"
        }
      ],
      "name": "transferOwnership",
      "outputs": [],
      "stateMutability": "nonpayable",
      "type": "function"
    },
    {
      "inputs": [
        {
          "internalType": "uint256[]",
          "name": "tokenIds",
          "type": "uint256[]"
        }
      ],
      "name": "unstake",
      "outputs": [],
      "stateMutability": "nonpayable",
      "type": "function"
    },
    {
      "inputs": [
        {
          "internalType": "uint256",
          "name": "",
          "type": "uint256"
        }
      ],
      "name": "vault",
      "outputs": [
        {
          "internalType": "uint24",
          "name": "tokenId",
          "type": "uint24"
        },
        {
          "internalType": "uint48",
          "name": "timestamp",
          "type": "uint48"
        },
        {
          "internalType": "address",
          "name": "owner",
          "type": "address"
        }
      ],
      "stateMutability": "view",
      "type": "function"
    }
  ],
  "bytecode": "0x60806040523480156200001157600080fd5b50604051620021bd380380620021bd8339818101604052810190620000379190620002d0565b33600073ffffffffffffffffffffffffffffffffffffffff168173ffffffffffffffffffffffffffffffffffffffff1603620000ad5760006040517f1e4fbdf7000000000000000000000000000000000000000000000000000000008152600401620000a4919062000328565b60405180910390fd5b620000be816200014960201b60201c565b5081600160006101000a81548173ffffffffffffffffffffffffffffffffffffffff021916908373ffffffffffffffffffffffffffffffffffffffff16021790555080600260006101000a81548173ffffffffffffffffffffffffffffffffffffffff021916908373ffffffffffffffffffffffffffffffffffffffff160217905550505062000345565b60008060009054906101000a900473ffffffffffffffffffffffffffffffffffffffff169050816000806101000a81548173ffffffffffffffffffffffffffffffffffffffff021916908373ffffffffffffffffffffffffffffffffffffffff1602179055508173ffffffffffffffffffffffffffffffffffffffff168173ffffffffffffffffffffffffffffffffffffffff167f8be0079c531659141344cd1fd0a4f28419497f9722a3daafe3b4186f6b6457e060405160405180910390a35050565b600080fd5b600073ffffffffffffffffffffffffffffffffffffffff82169050919050565b60006200023f8262000212565b9050919050565b6000620002538262000232565b9050919050565b620002658162000246565b81146200027157600080fd5b50565b60008151905062000285816200025a565b92915050565b6000620002988262000232565b9050919050565b620002aa816200028b565b8114620002b657600080fd5b50565b600081519050620002ca816200029f565b92915050565b60008060408385031215620002ea57620002e96200020d565b5b6000620002fa8582860162000274565b92505060206200030d85828601620002b9565b9150509250929050565b620003228162000232565b82525050565b60006020820190506200033f600083018462000317565b92915050565b611e6880620003556000396000f3fe608060405234801561001057600080fd5b50600436106100cf5760003560e01c8063817b1cd21161008c5780639250fa0b116100665780639250fa0b14610214578063c36be35714610244578063e449f34114610260578063f2fde38b1461027c576100cf565b8063817b1cd2146101a657806381a36fb6146101c45780638da5cb5b146101f6576100cf565b80630fbf0a93146100d4578063150b7a02146100f05780633562b086146101205780636ba4c1381461015057806370a082311461016c578063715018a61461019c575b600080fd5b6100ee60048036038101906100e991906114cb565b610298565b005b61010a60048036038101906101059190611602565b610620565b60405161011791906116c5565b60405180910390f35b61013a600480360381019061013591906114cb565b610635565b604051610147919061178b565b60405180910390f35b61016a600480360381019061016591906114cb565b6107aa565b005b610186600480360381019061018191906117a6565b6107bb565b60405161019391906117e2565b60405180910390f35b6101a4610865565b005b6101ae610879565b6040516101bb91906117e2565b60405180910390f35b6101de60048036038101906101d991906117fd565b61087f565b6040516101ed93929190611878565b60405180910390f35b6101fe6108ea565b60405161020b91906118af565b60405180910390f35b61022e600480360381019061022991906117a6565b610913565b60405161023b9190611961565b60405180910390f35b61025e60048036038101906102599190611983565b610b8a565b005b61027a600480360381019061027591906114cb565b610b9c565b005b610296600480360381019061029191906117a6565b610bad565b005b600082829050600360008282546102af9190611a12565b9250508190555060005b8383905081101561061a578383828181106102d7576102d6611a46565b5b9050602002013591503373ffffffffffffffffffffffffffffffffffffffff16600160009054906101000a900473ffffffffffffffffffffffffffffffffffffffff1673ffffffffffffffffffffffffffffffffffffffff16636352211e846040518263ffffffff1660e01b815260040161035291906117e2565b602060405180830381865afa15801561036f573d6000803e3d6000fd5b505050506040513d601f19601f820116820180604052508101906103939190611a8a565b73ffffffffffffffffffffffffffffffffffffffff16146103e9576040517f08c379a00000000000000000000000000000000000000000000000000000000081526004016103e090611b14565b60405180910390fd5b60006004600084815260200190815260200160002060000160009054906101000a900462ffffff1662ffffff1614610456576040517f08c379a000000000000000000000000000000000000000000000000000000000815260040161044d90611b80565b60405180910390fd5b600160009054906101000a900473ffffffffffffffffffffffffffffffffffffffff1673ffffffffffffffffffffffffffffffffffffffff166342842e0e3330856040518463ffffffff1660e01b81526004016104b593929190611ba0565b600060405180830381600087803b1580156104cf57600080fd5b505af11580156104e3573d6000803e3d6000fd5b505050507f36b3725f1783bad4ff05b7f4c077c3aa68eeb23a4d054ba189db4d01ac278d3933834260405161051a93929190611bd7565b60405180910390a160405180606001604052808362ffffff1681526020014265ffffffffffff1681526020013373ffffffffffffffffffffffffffffffffffffffff168152506004600084815260200190815260200160002060008201518160000160006101000a81548162ffffff021916908362ffffff16021790555060208201518160000160036101000a81548165ffffffffffff021916908365ffffffffffff16021790555060408201518160000160096101000a81548173ffffffffffffffffffffffffffffffffffffffff021916908373ffffffffffffffffffffffffffffffffffffffff16021790555090505080806001019150506102b9565b50505050565b600063150b7a0260e01b905095945050505050565b61063d61143a565b600080600090506000655af3107a4000905060005b86869050811015610789578686828181106106705761066f611a46565b5b9050602002013593506000600460008681526020019081526020016000206040518060600160405290816000820160009054906101000a900462ffffff1662ffffff1662ffffff1681526020016000820160039054906101000a900465ffffffffffff1665ffffffffffff1665ffffffffffff1681526020016000820160099054906101000a900473ffffffffffffffffffffffffffffffffffffffff1673ffffffffffffffffffffffffffffffffffffffff1673ffffffffffffffffffffffffffffffffffffffff168152505090506000816020015165ffffffffffff16905064174876e80081426107639190611c0e565b61076d9190611c42565b856107789190611a12565b945050508080600101915050610652565b50604051806040016040528083815260200182815250935050505092915050565b6107b73383836000610c33565b5050565b600080600160009054906101000a900473ffffffffffffffffffffffffffffffffffffffff1673ffffffffffffffffffffffffffffffffffffffff166370a08231846040518263ffffffff1660e01b815260040161081991906118af565b602060405180830381865afa158015610836573d6000803e3d6000fd5b505050506040513d601f19601f8201168201806040525081019061085a9190611c99565b905080915050919050565b61086d610fcd565b6108776000611054565b565b60035481565b60046020528060005260406000206000915090508060000160009054906101000a900462ffffff16908060000160039054906101000a900465ffffffffffff16908060000160099054906101000a900473ffffffffffffffffffffffffffffffffffffffff16905083565b60008060009054906101000a900473ffffffffffffffffffffffffffffffffffffffff16905090565b60606000600160009054906101000a900473ffffffffffffffffffffffffffffffffffffffff1673ffffffffffffffffffffffffffffffffffffffff1663c4e41b226040518163ffffffff1660e01b8152600401602060405180830381865afa158015610984573d6000803e3d6000fd5b505050506040513d601f19601f820116820180604052508101906109a89190611c99565b905060008167ffffffffffffffff8111156109c6576109c5611cc6565b5b6040519080825280602002602001820160405280156109f45781602001602082028036833780820191505090505b509050600080600190505b838111610adc578573ffffffffffffffffffffffffffffffffffffffff166004600083815260200190815260200160002060000160099054906101000a900473ffffffffffffffffffffffffffffffffffffffff1673ffffffffffffffffffffffffffffffffffffffff1603610ac9576004600082815260200190815260200160002060000160009054906101000a900462ffffff1662ffffff16838381518110610aad57610aac611a46565b5b602002602001018181525050600182610ac69190611a12565b91505b8080610ad490611cf5565b9150506109ff565b5060008167ffffffffffffffff811115610af957610af8611cc6565b5b604051908082528060200260200182016040528015610b275781602001602082028036833780820191505090505b50905060005b8151811015610b7d57838181518110610b4957610b48611a46565b5b6020026020010151828281518110610b6457610b63611a46565b5b6020026020010181815250508080600101915050610b2d565b5080945050505050919050565b610b978383836000610c33565b505050565b610ba93383836001610c33565b5050565b610bb5610fcd565b600073ffffffffffffffffffffffffffffffffffffffff168173ffffffffffffffffffffffffffffffffffffffff1603610c275760006040517f1e4fbdf7000000000000000000000000000000000000000000000000000000008152600401610c1e91906118af565b60405180910390fd5b610c3081611054565b50565b6000806000905060005b85859050811015610ed157858582818110610c5b57610c5a611a46565b5b9050602002013592506000600460008581526020019081526020016000206040518060600160405290816000820160009054906101000a900462ffffff1662ffffff1662ffffff1681526020016000820160039054906101000a900465ffffffffffff1665ffffffffffff1665ffffffffffff1681526020016000820160099054906101000a900473ffffffffffffffffffffffffffffffffffffffff1673ffffffffffffffffffffffffffffffffffffffff1673ffffffffffffffffffffffffffffffffffffffff168152505090508773ffffffffffffffffffffffffffffffffffffffff16816040015173ffffffffffffffffffffffffffffffffffffffff1614610d9d576040517f08c379a0000000000000000000000000000000000000000000000000000000008152600401610d9490611b14565b60405180910390fd5b6000816020015165ffffffffffff16905064174876e8008142610dc09190611c0e565b610dca9190611c42565b84610dd59190611a12565b935060405180606001604052808662ffffff1681526020014265ffffffffffff1681526020018a73ffffffffffffffffffffffffffffffffffffffff168152506004600087815260200190815260200160002060008201518160000160006101000a81548162ffffff021916908362ffffff16021790555060208201518160000160036101000a81548165ffffffffffff021916908365ffffffffffff16021790555060408201518160000160096101000a81548173ffffffffffffffffffffffffffffffffffffffff021916908373ffffffffffffffffffffffffffffffffffffffff16021790555090505050508080600101915050610c3d565b50600a811115610f7a57600a81610ee89190611d6c565b9050600260009054906101000a900473ffffffffffffffffffffffffffffffffffffffff1673ffffffffffffffffffffffffffffffffffffffff166340c10f1987836040518363ffffffff1660e01b8152600401610f47929190611d9d565b600060405180830381600087803b158015610f6157600080fd5b505af1158015610f75573d6000803e3d6000fd5b505050505b8215610f8c57610f8b868686611118565b5b7fd8138f8a3f377c5259ca548e70e4c2de94f129f5a11036a15b69513cba2b426a8682604051610fbd929190611d9d565b60405180910390a1505050505050565b610fd5611432565b73ffffffffffffffffffffffffffffffffffffffff16610ff36108ea565b73ffffffffffffffffffffffffffffffffffffffff161461105257611016611432565b6040517f118cdaa700000000000000000000000000000000000000000000000000000000815260040161104991906118af565b60405180910390fd5b565b60008060009054906101000a900473ffffffffffffffffffffffffffffffffffffffff169050816000806101000a81548173ffffffffffffffffffffffffffffffffffffffff021916908373ffffffffffffffffffffffffffffffffffffffff1602179055508173ffffffffffffffffffffffffffffffffffffffff168173ffffffffffffffffffffffffffffffffffffffff167f8be0079c531659141344cd1fd0a4f28419497f9722a3daafe3b4186f6b6457e060405160405180910390a35050565b6000828290506003600082825461112f9190611c0e565b9250508190555060005b8383905081101561142b5783838281811061115757611156611a46565b5b9050602002013591506000600460008481526020019081526020016000206040518060600160405290816000820160009054906101000a900462ffffff1662ffffff1662ffffff1681526020016000820160039054906101000a900465ffffffffffff1665ffffffffffff1665ffffffffffff1681526020016000820160099054906101000a900473ffffffffffffffffffffffffffffffffffffffff1673ffffffffffffffffffffffffffffffffffffffff1673ffffffffffffffffffffffffffffffffffffffff168152505090503373ffffffffffffffffffffffffffffffffffffffff16816040015173ffffffffffffffffffffffffffffffffffffffff1614611299576040517f08c379a000000000000000000000000000000000000000000000000000000000815260040161129090611b14565b60405180910390fd5b6000816000015162ffffff16036112e5576040517f08c379a00000000000000000000000000000000000000000000000000000000081526004016112dc90611e12565b60405180910390fd5b60046000848152602001908152602001600020600080820160006101000a81549062ffffff02191690556000820160036101000a81549065ffffffffffff02191690556000820160096101000a81549073ffffffffffffffffffffffffffffffffffffffff021916905550507fc486b9458a8637650d84d262414833a5a457bc91ae86b7da110386c8c3fa255b86844260405161138493929190611bd7565b60405180910390a1600160009054906101000a900473ffffffffffffffffffffffffffffffffffffffff1673ffffffffffffffffffffffffffffffffffffffff166342842e0e3088866040518463ffffffff1660e01b81526004016113eb93929190611ba0565b600060405180830381600087803b15801561140557600080fd5b505af1158015611419573d6000803e3d6000fd5b50505050508080600101915050611139565b5050505050565b600033905090565b6040518060400160405280600290602082028036833780820191505090505090565b600080fd5b600080fd5b600080fd5b600080fd5b600080fd5b60008083601f84011261148b5761148a611466565b5b8235905067ffffffffffffffff8111156114a8576114a761146b565b5b6020830191508360208202830111156114c4576114c3611470565b5b9250929050565b600080602083850312156114e2576114e161145c565b5b600083013567ffffffffffffffff811115611500576114ff611461565b5b61150c85828601611475565b92509250509250929050565b600073ffffffffffffffffffffffffffffffffffffffff82169050919050565b600061154382611518565b9050919050565b61155381611538565b811461155e57600080fd5b50565b6000813590506115708161154a565b92915050565b6000819050919050565b61158981611576565b811461159457600080fd5b50565b6000813590506115a681611580565b92915050565b60008083601f8401126115c2576115c1611466565b5b8235905067ffffffffffffffff8111156115df576115de61146b565b5b6020830191508360018202830111156115fb576115fa611470565b5b9250929050565b60008060008060006080868803121561161e5761161d61145c565b5b600061162c88828901611561565b955050602061163d88828901611561565b945050604061164e88828901611597565b935050606086013567ffffffffffffffff81111561166f5761166e611461565b5b61167b888289016115ac565b92509250509295509295909350565b60007fffffffff0000000000000000000000000000000000000000000000000000000082169050919050565b6116bf8161168a565b82525050565b60006020820190506116da60008301846116b6565b92915050565b600060029050919050565b600081905092915050565b6000819050919050565b61170981611576565b82525050565b600061171b8383611700565b60208301905092915050565b6000602082019050919050565b61173d816116e0565b61174781846116eb565b9250611752826116f6565b8060005b8381101561178357815161176a878261170f565b965061177583611727565b925050600181019050611756565b505050505050565b60006040820190506117a06000830184611734565b92915050565b6000602082840312156117bc576117bb61145c565b5b60006117ca84828501611561565b91505092915050565b6117dc81611576565b82525050565b60006020820190506117f760008301846117d3565b92915050565b6000602082840312156118135761181261145c565b5b600061182184828501611597565b91505092915050565b600062ffffff82169050919050565b6118428161182a565b82525050565b600065ffffffffffff82169050919050565b61186381611848565b82525050565b61187281611538565b82525050565b600060608201905061188d6000830186611839565b61189a602083018561185a565b6118a76040830184611869565b949350505050565b60006020820190506118c46000830184611869565b92915050565b600081519050919050565b600082825260208201905092915050565b6000819050602082019050919050565b6000602082019050919050565b600061190e826118ca565b61191881856118d5565b9350611923836118e6565b8060005b8381101561195457815161193b888261170f565b9750611946836118f6565b925050600181019050611927565b5085935050505092915050565b6000602082019050818103600083015261197b8184611903565b905092915050565b60008060006040848603121561199c5761199b61145c565b5b60006119aa86828701611561565b935050602084013567ffffffffffffffff8111156119cb576119ca611461565b5b6119d786828701611475565b92509250509250925092565b7f4e487b7100000000000000000000000000000000000000000000000000000000600052601160045260246000fd5b6000611a1d82611576565b9150611a2883611576565b9250828201905080821115611a4057611a3f6119e3565b5b92915050565b7f4e487b7100000000000000000000000000000000000000000000000000000000600052603260045260246000fd5b600081519050611a848161154a565b92915050565b600060208284031215611aa057611a9f61145c565b5b6000611aae84828501611a75565b91505092915050565b600082825260208201905092915050565b7f6e6f7420796f7572206e66740000000000000000000000000000000000000000600082015250565b6000611afe600c83611ab7565b9150611b0982611ac8565b602082019050919050565b60006020820190508181036000830152611b2d81611af1565b9050919050565b7f616c7265616479207374616b6564000000000000000000000000000000000000600082015250565b6000611b6a600e83611ab7565b9150611b7582611b34565b602082019050919050565b60006020820190508181036000830152611b9981611b5d565b9050919050565b6000606082019050611bb56000830186611869565b611bc26020830185611869565b611bcf60408301846117d3565b949350505050565b6000606082019050611bec6000830186611869565b611bf960208301856117d3565b611c0660408301846117d3565b949350505050565b6000611c1982611576565b9150611c2483611576565b9250828203905081811115611c3c57611c3b6119e3565b5b92915050565b6000611c4d82611576565b9150611c5883611576565b9250828202611c6681611576565b91508282048414831517611c7d57611c7c6119e3565b5b5092915050565b600081519050611c9381611580565b92915050565b600060208284031215611caf57611cae61145c565b5b6000611cbd84828501611c84565b91505092915050565b7f4e487b7100000000000000000000000000000000000000000000000000000000600052604160045260246000fd5b6000611d0082611576565b91507fffffffffffffffffffffffffffffffffffffffffffffffffffffffffffffffff8203611d3257611d316119e3565b5b600182019050919050565b7f4e487b7100000000000000000000000000000000000000000000000000000000600052601260045260246000fd5b6000611d7782611576565b9150611d8283611576565b925082611d9257611d91611d3d565b5b828204905092915050565b6000604082019050611db26000830185611869565b611dbf60208301846117d3565b9392505050565b7f6e6f7420616c7265616479207374616b65640000000000000000000000000000600082015250565b6000611dfc601283611ab7565b9150611e0782611dc6565b602082019050919050565b60006020820190508181036000830152611e2b81611def565b905091905056fea2646970667358221220260e147ba570dd80d8e533a21146723f6586f278d3d06b98d759f389dd6871a564736f6c63430008180033",
  "linkReferences": {},
  "deployedLinkReferences": {}
}