{
  "_format": "hh-sol-artifact-1",
  "contractName": "Market",
  "sourceName": "contracts/Market.sol",
  "abi": [
    {
      "inputs": [
        {
          "internalType": "contract ERC721Enumerable",
          "name": "_nft",
          "type": "address"
        }
      ],
      "stateMutability": "nonpayable",
      "type": "constructor"
    },
    {
      "inputs": [
        {
          "internalType": "address",
          "name": "owner",
          "type": "address"
        }
      ],
      "name": "OwnableInvalidOwner",
      "type": "error"
    },
    {
      "inputs": [
        {
          "internalType": "address",
          "name": "account",
          "type": "address"
        }
      ],
      "name": "OwnableUnauthorizedAccount",
      "type": "error"
    },
    {
      "inputs": [],
      "name": "ReentrancyGuardReentrantCall",
      "type": "error"
    },
    {
      "anonymous": false,
      "inputs": [
        {
          "indexed": true,
          "internalType": "uint256",
          "name": "tokenId",
          "type": "uint256"
        },
        {
          "indexed": false,
          "internalType": "address",
          "name": "seller",
          "type": "address"
        },
        {
          "indexed": false,
          "internalType": "address",
          "name": "holder",
          "type": "address"
        },
        {
          "indexed": false,
          "internalType": "uint256",
          "name": "price",
          "type": "uint256"
        },
        {
          "indexed": false,
          "internalType": "bool",
          "name": "sold",
          "type": "bool"
        }
      ],
      "name": "NFTListCreated",
      "type": "event"
    },
    {
      "anonymous": false,
      "inputs": [
        {
          "indexed": true,
          "internalType": "address",
          "name": "previousOwner",
          "type": "address"
        },
        {
          "indexed": true,
          "internalType": "address",
          "name": "newOwner",
          "type": "address"
        }
      ],
      "name": "OwnershipTransferred",
      "type": "event"
    },
    {
      "inputs": [
        {
          "internalType": "uint256",
          "name": "tokenId",
          "type": "uint256"
        }
      ],
      "name": "buyNft",
      "outputs": [],
      "stateMutability": "payable",
      "type": "function"
    },
    {
      "inputs": [
        {
          "internalType": "uint256",
          "name": "tokenId",
          "type": "uint256"
        }
      ],
      "name": "cancelSale",
      "outputs": [],
      "stateMutability": "nonpayable",
      "type": "function"
    },
    {
      "inputs": [],
      "name": "getListingFee",
      "outputs": [
        {
          "internalType": "uint256",
          "name": "",
          "type": "uint256"
        }
      ],
      "stateMutability": "view",
      "type": "function"
    },
    {
      "inputs": [
        {
          "internalType": "uint256",
          "name": "tokenId",
          "type": "uint256"
        },
        {
          "internalType": "uint256",
          "name": "price",
          "type": "uint256"
        }
      ],
      "name": "listSale",
      "outputs": [],
      "stateMutability": "payable",
      "type": "function"
    },
    {
      "inputs": [
        {
          "internalType": "address",
          "name": "",
          "type": "address"
        },
        {
          "internalType": "address",
          "name": "",
          "type": "address"
        },
        {
          "internalType": "uint256",
          "name": "",
          "type": "uint256"
        },
        {
          "internalType": "bytes",
          "name": "",
          "type": "bytes"
        }
      ],
      "name": "onERC721Received",
      "outputs": [
        {
          "internalType": "bytes4",
          "name": "",
          "type": "bytes4"
        }
      ],
      "stateMutability": "pure",
      "type": "function"
    },
    {
      "inputs": [],
      "name": "owner",
      "outputs": [
        {
          "internalType": "address",
          "name": "",
          "type": "address"
        }
      ],
      "stateMutability": "view",
      "type": "function"
    },
    {
      "inputs": [],
      "name": "renounceOwnership",
      "outputs": [],
      "stateMutability": "nonpayable",
      "type": "function"
    },
    {
      "inputs": [
        {
          "internalType": "address",
          "name": "newOwner",
          "type": "address"
        }
      ],
      "name": "transferOwnership",
      "outputs": [],
      "stateMutability": "nonpayable",
      "type": "function"
    },
    {
      "inputs": [
        {
          "internalType": "uint256",
          "name": "",
          "type": "uint256"
        }
      ],
      "name": "vaultItems",
      "outputs": [
        {
          "internalType": "uint256",
          "name": "tokenId",
          "type": "uint256"
        },
        {
          "internalType": "address payable",
          "name": "seller",
          "type": "address"
        },
        {
          "internalType": "address payable",
          "name": "holder",
          "type": "address"
        },
        {
          "internalType": "uint256",
          "name": "price",
          "type": "uint256"
        },
        {
          "internalType": "bool",
          "name": "sold",
          "type": "bool"
        }
      ],
      "stateMutability": "view",
      "type": "function"
    }
  ],
  "bytecode": "0x608060405265e35fa931a0006003553480156200001b57600080fd5b50604051620017243803806200172483398181016040528101906200004191906200029b565b33600073ffffffffffffffffffffffffffffffffffffffff168173ffffffffffffffffffffffffffffffffffffffff1603620000b75760006040517f1e4fbdf7000000000000000000000000000000000000000000000000000000008152600401620000ae9190620002de565b60405180910390fd5b620000c8816200015960201b60201c565b506001808190555080600560006101000a81548173ffffffffffffffffffffffffffffffffffffffff021916908373ffffffffffffffffffffffffffffffffffffffff16021790555033600260006101000a81548173ffffffffffffffffffffffffffffffffffffffff021916908373ffffffffffffffffffffffffffffffffffffffff16021790555050620002fb565b60008060009054906101000a900473ffffffffffffffffffffffffffffffffffffffff169050816000806101000a81548173ffffffffffffffffffffffffffffffffffffffff021916908373ffffffffffffffffffffffffffffffffffffffff1602179055508173ffffffffffffffffffffffffffffffffffffffff168173ffffffffffffffffffffffffffffffffffffffff167f8be0079c531659141344cd1fd0a4f28419497f9722a3daafe3b4186f6b6457e060405160405180910390a35050565b600080fd5b600073ffffffffffffffffffffffffffffffffffffffff82169050919050565b60006200024f8262000222565b9050919050565b6000620002638262000242565b9050919050565b620002758162000256565b81146200028157600080fd5b50565b60008151905062000295816200026a565b92915050565b600060208284031215620002b457620002b36200021d565b5b6000620002c48482850162000284565b91505092915050565b620002d88162000242565b82525050565b6000602082019050620002f56000830184620002cd565b92915050565b611419806200030b6000396000f3fe6080604052600436106100865760003560e01c8063715018a611610059578063715018a6146101415780638da5cb5b14610158578063b8fe6abe14610183578063bd94b005146101ae578063f2fde38b146101d757610086565b8063150b7a021461008b5780631dfb091b146100c8578063243adbdd1461010957806365699c9d14610125575b600080fd5b34801561009757600080fd5b506100b260048036038101906100ad9190610e0b565b610200565b6040516100bf9190610ece565b60405180910390f35b3480156100d457600080fd5b506100ef60048036038101906100ea9190610ee9565b610215565b604051610100959493929190610f61565b60405180910390f35b610123600480360381019061011e9190610ee9565b610298565b005b61013f600480360381019061013a9190610fb4565b6104ce565b005b34801561014d57600080fd5b506101566108c9565b005b34801561016457600080fd5b5061016d6108dd565b60405161017a9190611003565b60405180910390f35b34801561018f57600080fd5b50610198610906565b6040516101a5919061101e565b60405180910390f35b3480156101ba57600080fd5b506101d560048036038101906101d09190610ee9565b610910565b005b3480156101e357600080fd5b506101fe60048036038101906101f99190611039565b610ae0565b005b600063150b7a0260e01b905095945050505050565b60046020528060005260406000206000915090508060000154908060010160009054906101000a900473ffffffffffffffffffffffffffffffffffffffff16908060020160009054906101000a900473ffffffffffffffffffffffffffffffffffffffff16908060030154908060040160009054906101000a900460ff16905085565b6102a0610b66565b6000600460008381526020019081526020016000206003015490508034146102fd576040517f08c379a00000000000000000000000000000000000000000000000000000000081526004016102f4906110c3565b60405180910390fd5b6004600083815260200190815260200160002060010160009054906101000a900473ffffffffffffffffffffffffffffffffffffffff1673ffffffffffffffffffffffffffffffffffffffff166108fc349081150290604051600060405180830381858888f19350505050158015610379573d6000803e3d6000fd5b50600560009054906101000a900473ffffffffffffffffffffffffffffffffffffffff1673ffffffffffffffffffffffffffffffffffffffff166323b872dd3033856040518463ffffffff1660e01b81526004016103d9939291906110e3565b600060405180830381600087803b1580156103f357600080fd5b505af1158015610407573d6000803e3d6000fd5b5050505060016004600084815260200190815260200160002060040160006101000a81548160ff021916908315150217905550600460008381526020019081526020016000206000808201600090556001820160006101000a81549073ffffffffffffffffffffffffffffffffffffffff02191690556002820160006101000a81549073ffffffffffffffffffffffffffffffffffffffff021916905560038201600090556004820160006101000a81549060ff02191690555050506104cb610bac565b50565b6104d6610b66565b3373ffffffffffffffffffffffffffffffffffffffff16600560009054906101000a900473ffffffffffffffffffffffffffffffffffffffff1673ffffffffffffffffffffffffffffffffffffffff16636352211e846040518263ffffffff1660e01b8152600401610548919061101e565b602060405180830381865afa158015610565573d6000803e3d6000fd5b505050506040513d601f19601f82011682018060405250810190610589919061112f565b73ffffffffffffffffffffffffffffffffffffffff16146105df576040517f08c379a00000000000000000000000000000000000000000000000000000000081526004016105d6906111a8565b60405180910390fd5b6000600460008481526020019081526020016000206000015414610638576040517f08c379a000000000000000000000000000000000000000000000000000000000815260040161062f90611214565b60405180910390fd5b6000811161067b576040517f08c379a000000000000000000000000000000000000000000000000000000000815260040161067290611280565b60405180910390fd5b60035434146106bf576040517f08c379a00000000000000000000000000000000000000000000000000000000081526004016106b690611312565b60405180910390fd5b6040518060a001604052808381526020013373ffffffffffffffffffffffffffffffffffffffff1681526020013073ffffffffffffffffffffffffffffffffffffffff16815260200182815260200160001515815250600460008481526020019081526020016000206000820151816000015560208201518160010160006101000a81548173ffffffffffffffffffffffffffffffffffffffff021916908373ffffffffffffffffffffffffffffffffffffffff16021790555060408201518160020160006101000a81548173ffffffffffffffffffffffffffffffffffffffff021916908373ffffffffffffffffffffffffffffffffffffffff1602179055506060820151816003015560808201518160040160006101000a81548160ff021916908315150217905550905050600560009054906101000a900473ffffffffffffffffffffffffffffffffffffffff1673ffffffffffffffffffffffffffffffffffffffff166323b872dd3330856040518463ffffffff1660e01b815260040161084c939291906110e3565b600060405180830381600087803b15801561086657600080fd5b505af115801561087a573d6000803e3d6000fd5b50505050817fb4d56b90073d0ff00f241bc47cb6a2575250588918394e7edd6b10bffb92c7e233308460006040516108b59493929190611332565b60405180910390a26108c5610bac565b5050565b6108d1610bb5565b6108db6000610c3c565b565b60008060009054906101000a900473ffffffffffffffffffffffffffffffffffffffff16905090565b6000600354905090565b610918610b66565b3373ffffffffffffffffffffffffffffffffffffffff166004600083815260200190815260200160002060010160009054906101000a900473ffffffffffffffffffffffffffffffffffffffff1673ffffffffffffffffffffffffffffffffffffffff16146109bc576040517f08c379a00000000000000000000000000000000000000000000000000000000081526004016109b3906113c3565b60405180910390fd5b600560009054906101000a900473ffffffffffffffffffffffffffffffffffffffff1673ffffffffffffffffffffffffffffffffffffffff166323b872dd3033846040518463ffffffff1660e01b8152600401610a1b939291906110e3565b600060405180830381600087803b158015610a3557600080fd5b505af1158015610a49573d6000803e3d6000fd5b50505050600460008281526020019081526020016000206000808201600090556001820160006101000a81549073ffffffffffffffffffffffffffffffffffffffff02191690556002820160006101000a81549073ffffffffffffffffffffffffffffffffffffffff021916905560038201600090556004820160006101000a81549060ff02191690555050610add610bac565b50565b610ae8610bb5565b600073ffffffffffffffffffffffffffffffffffffffff168173ffffffffffffffffffffffffffffffffffffffff1603610b5a5760006040517f1e4fbdf7000000000000000000000000000000000000000000000000000000008152600401610b519190611003565b60405180910390fd5b610b6381610c3c565b50565b600260015403610ba2576040517f3ee5aeb500000000000000000000000000000000000000000000000000000000815260040160405180910390fd5b6002600181905550565b60018081905550565b610bbd610d00565b73ffffffffffffffffffffffffffffffffffffffff16610bdb6108dd565b73ffffffffffffffffffffffffffffffffffffffff1614610c3a57610bfe610d00565b6040517f118cdaa7000000000000000000000000000000000000000000000000000000008152600401610c319190611003565b60405180910390fd5b565b60008060009054906101000a900473ffffffffffffffffffffffffffffffffffffffff169050816000806101000a81548173ffffffffffffffffffffffffffffffffffffffff021916908373ffffffffffffffffffffffffffffffffffffffff1602179055508173ffffffffffffffffffffffffffffffffffffffff168173ffffffffffffffffffffffffffffffffffffffff167f8be0079c531659141344cd1fd0a4f28419497f9722a3daafe3b4186f6b6457e060405160405180910390a35050565b600033905090565b600080fd5b600080fd5b600073ffffffffffffffffffffffffffffffffffffffff82169050919050565b6000610d3d82610d12565b9050919050565b610d4d81610d32565b8114610d5857600080fd5b50565b600081359050610d6a81610d44565b92915050565b6000819050919050565b610d8381610d70565b8114610d8e57600080fd5b50565b600081359050610da081610d7a565b92915050565b600080fd5b600080fd5b600080fd5b60008083601f840112610dcb57610dca610da6565b5b8235905067ffffffffffffffff811115610de857610de7610dab565b5b602083019150836001820283011115610e0457610e03610db0565b5b9250929050565b600080600080600060808688031215610e2757610e26610d08565b5b6000610e3588828901610d5b565b9550506020610e4688828901610d5b565b9450506040610e5788828901610d91565b935050606086013567ffffffffffffffff811115610e7857610e77610d0d565b5b610e8488828901610db5565b92509250509295509295909350565b60007fffffffff0000000000000000000000000000000000000000000000000000000082169050919050565b610ec881610e93565b82525050565b6000602082019050610ee36000830184610ebf565b92915050565b600060208284031215610eff57610efe610d08565b5b6000610f0d84828501610d91565b91505092915050565b610f1f81610d70565b82525050565b6000610f3082610d12565b9050919050565b610f4081610f25565b82525050565b60008115159050919050565b610f5b81610f46565b82525050565b600060a082019050610f766000830188610f16565b610f836020830187610f37565b610f906040830186610f37565b610f9d6060830185610f16565b610faa6080830184610f52565b9695505050505050565b60008060408385031215610fcb57610fca610d08565b5b6000610fd985828601610d91565b9250506020610fea85828601610d91565b9150509250929050565b610ffd81610d32565b82525050565b60006020820190506110186000830184610ff4565b92915050565b60006020820190506110336000830184610f16565b92915050565b60006020828403121561104f5761104e610d08565b5b600061105d84828501610d5b565b91505092915050565b600082825260208201905092915050565b7f616d6f756e7420697320656e6f75676874000000000000000000000000000000600082015250565b60006110ad601183611066565b91506110b882611077565b602082019050919050565b600060208201905081810360008301526110dc816110a0565b9050919050565b60006060820190506110f86000830186610ff4565b6111056020830185610ff4565b6111126040830184610f16565b949350505050565b60008151905061112981610d44565b92915050565b60006020828403121561114557611144610d08565b5b60006111538482850161111a565b91505092915050565b7f6e6f7420796f7572206e66747300000000000000000000000000000000000000600082015250565b6000611192600d83611066565b915061119d8261115c565b602082019050919050565b600060208201905081810360008301526111c181611185565b9050919050565b7f6e667420616c7265616479206c69737465640000000000000000000000000000600082015250565b60006111fe601283611066565b9150611209826111c8565b602082019050919050565b6000602082019050818103600083015261122d816111f1565b9050919050565b7f616d6f756e74206d7375742062652068696768746572207468616e2030000000600082015250565b600061126a601d83611066565b915061127582611234565b602082019050919050565b600060208201905081810360008301526112998161125d565b9050919050565b7f706c65617365207472616e7366657220302e303030323520657468657220637260008201527f7970746f20746f20706179206c697374696e6720666565000000000000000000602082015250565b60006112fc603783611066565b9150611307826112a0565b604082019050919050565b6000602082019050818103600083015261132b816112ef565b9050919050565b60006080820190506113476000830187610ff4565b6113546020830186610ff4565b6113616040830185610f16565b61136e6060830184610f52565b95945050505050565b7f6e6f7420796f7572206e66740000000000000000000000000000000000000000600082015250565b60006113ad600c83611066565b91506113b882611377565b602082019050919050565b600060208201905081810360008301526113dc816113a0565b905091905056fea26469706673582212208b73145c3c26b74e0b14bf699b59744bcbd11e84a3970af66fb85d07704b912264736f6c63430008180033",
  "linkReferences": {},
  "deployedLinkReferences": {}
}